:020000040001F9
:10B0000018370020F5B001000FB1010011B10100A7
:10B010000000000000000000000000000000000030
:10B0200000000000000000000000000013B101005B
:10B03000000000000000000015B1010017B1010080
:10B0400019B1010019B1010045B9010019B10100A0
:10B0500019B10100000000001DB7010019B1010085
:10B0600019B1010019B1010019B1010019B10100B4
:10B0700019B1010019B1010019B1010019B10100A4
:10B0800019B101005DB8010019B1010019B1010049
:10B090007DB8010019B1010085B8010019B10100A6
:10B0A00019B1010019B1010000000000000000000A
:10B0B0000000000000000000000000000000000090
:10B0C0000348854600F084FA004800475DEA010025
:10B0D00018370020401E00BF00BF00BF00BF00BFE8
:10B0E00000BF00BF00BF00BF00BF00BF00BFF1D165
:10B0F000704700000321094802680A4302600848BB
:10B1000002680A4302600748804707480047FEE795
:10B11000FEE7FEE7FEE7FEE7FEE70000240500404D
:10B1200054050040A5B80100C1B0010030B50B4680
:10B13000014600202022012409E00D46D5409D4211
:10B1400005D31D469540491B254695404019154697
:10B15000521E002DF1DC30BD70B5002425460028BC
:10B1600001DA01244042002901DA01254942FFF7B2
:10B17000DDFFAC4200D04042002C00D0494270BDFF
:10B1800003460B439B0703D009E008C9121F08C000
:10B19000042AFAD203E00B780370401C491C521EAB
:10B1A000F9D27047D2B201E00270401C491EFBD2B6
:10B1B00070470022F6E710B513460A4604461946C2
:10B1C000FFF7F0FF204610BD30B5044600200346CF
:10B1D00000E05B1C934203D2E05CCD5C401BF8D0E6
:10B1E00030BDF0B51FB40646002082B005464024AD
:10B1F000019100901BE0019922460F46304600F075
:10B2000009FA049A059B801A994110D310461946F1
:10B21000224600F0EFF9361A8F41019722460120AD
:10B220000021009F00F0E6F938184D4100902046BB
:10B23000641E0028DFDC019B00982946324607B0D7
:10B24000F0BD0000F0B507460846584087B0C00F73
:10B25000049048000E46590040084908BC1A88412D
:10B2600005D2384631461E4617460B460246580060
:10B27000400810434CD0300D039040055900400D5C
:10B28000490D0590401A0290402872DA18030121F6
:10B29000000B09050843019004980092002805D08E
:10B2A0000199524200208841009201900298402169
:10B2B0000A1A0199009800F09DF905460C466B4664
:10B2C00007CB00F0B8F9C0197141039A0E0D0023A5
:10B2D000D71756401A467A40164344D0049A002A9B
:10B2E0002DD0029A012A039A15DC1205C01A914149
:10B2F00001263605001C7141D20F059ED20700932E
:10B30000019202962A46234600F0B5F907B0F0BD37
:10B3100038463146FAE71605224A0F46B218C01AD7
:10B32000B74101210905001C4F4100187F4111461A
:10B3300018187941E20F10436D19644113E0E207D8
:10B340006D0815436408C2071443039A01261205C9
:10B35000C01A91413605001C7141CE0740083043A8
:10B360004908C01851412A46234600F077F9CDE735
:10B37000FFE7049801224000C117121A00238B41F5
:10B3800004983146C417381AA141EEE730B40124BD
:10B39000E407634030BC55E730B40124E407614062
:10B3A00030BC4FE70000E0FFF0B51FB488B00B9948
:10B3B0000998002448400999C00F4900490809919B
:10B3C000C0070B990090490049080B91099908980A
:10B3D000A64608431CD00B990A98084318D0099830
:10B3E00001244000420D4800410D09982405000346
:10B3F000000B204309900B980003000B20430B9097
:10B4000050181C494018002201901446104605E0CF
:10B41000002001460DB0F0BD032801DA034600E02C
:10B4200003239C46C11A0AAE0AE05F0008ADED5B3B
:10B430004F00F75B7D430027AA187C41491C5B1E27
:10B440006145F2DD410004AB5A522104120C0A435B
:10B45000240C401C0828DFDB0198029000997046FC
:10B4600001910090059B049A0799069800F003F952
:10B47000D0E700000DFCFFFFF0B50C465C4085B046
:10B48000E40FE40703944C00002664085900944636
:10B49000490802460296224321D062460A431ED042
:10B4A0006200570D4A000E032303550D0124024686
:10B4B0002C492405781B1B0B360B401823432643CD
:10B4C000614600901C46501AB44103D30098401CBA
:10B4D000009002E0921800985B41002803DA0020F7
:10B4E000014605B0F0BD002001210905074686464A
:10B4F00011E064461D46141BB54106D36546521B38
:10B50000B341744607430C43A646CD07400849089B
:10B51000284392185B4105460D43EAD11046184373
:10B5200013D06046194650407140084306D060462B
:10B53000101AB34106D20122002306E000220123A3
:10B54000DB0702E00122D243531000987446010544
:10B55000381C6141029C039D0019694100F07EF88E
:10B56000BFE70000FD0300004A0009030123090BA7
:10B570001B0519430A4B10B5520D9A4202DA0020FE
:10B58000014610BD064B34339A4203DC9A1A00F090
:10B5900041F810BD034BD21800F02CF810BD00008C
:10B5A000FF030000CDFBFFFF10B5002904DB0124E1
:10B5B000E40740428C412146002B04DB1C4601235A
:10B5C000DB075242A341994200D1904210BD0000D6
:10B5D000064C0125064E05E0E36807CC2B430C3CE6
:10B5E00098471034B442F7D3FFF76EFD0002020013
:10B5F0002002020010B5202A04DB0146203A9140C7
:10B60000002010BD914020239C1A0346E3401943BB
:10B61000904010BD10B5202A04DB0846203AD040E7
:10B62000002110BD0B46D340D0402024A21A9140E7
:10B630000843194610BD10B5202A06DBCB17084673
:10B64000203A1041C1170B4306E00B461341D0408E
:10B650002024A21A91400843194610BD10B5002BB2
:10B6600008DA0024401C614192185B411A4301D161
:10B670004008400010BDF0B51FB482B005460C0074
:10B6800003D0084600F074F902E000F071F92030B0
:10B690000246009021462846FFF7ACFF049B059A1E
:10B6A00004460F4618431143084314D0184610436C
:10B6B0001BD0009840210A1A18460599FFF7AAFFE7
:10B6C00005460E46009A05990498FFF793FF084334
:10B6D00005D0012004E02046394607B0F0BD002027
:10B6E000C11705430E432C43374300990E98630559
:10B6F000401A7905E40A00220C43FD0A0A3002D5FB
:10B7000000200146E9E70105101969410C9C0D9DD7
:10B7100000196941FFF7A2FFDFE70000F8B5002438
:10B72000FF250135012627460094284603F0CAFC70
:10B73000002808D031484068304204D03048002109
:10B740002818344301602D1D76007F1CADB2042FF4
:10B75000EBD3FF207D3003F0B5FC002807D029484B
:10B760000021016040070443274800690090274EEC
:10B77000200712D00127002527420AD02448AA001A
:10B78000111808690969C004C00E8903B258890FED
:10B7900090477F006D1C042DEED3002C1DDA30463F
:10B7A000203014214156491C17D0077DBC06A40E39
:10B7B000204601F0CBFC80003558002D0DD0BE098D
:10B7C0000121A140134AA00080180068009A80035C
:10B7D000800F114202D0022802D0F8BD0328FCD10C
:10B7E000032E05D1022807D00221204603F05AFC7F
:10B7F00031462046A847F8BD0321F6E70063004024
:10B80000006000407C61004000050050E82D0020F1
:10B8100000650040000700508307FF22DB0E9A40BE
:10B820008907090E994000280BDA0007000F083835
:10B83000830808489B001818C36993430B43C361EE
:10B840007047830804489B001B18186890430843FE
:10B850001860704700ED00E000E400E010B5064914
:10B860000020086048608860C8600349403908606B
:10B87000486004F0D3F910BD4011014010B504F048
:10B8800063F910BD10B506484068002805D0804710
:10B89000002801D000F0C6FE10BD02F001FE10BD70
:10B8A000CC28002010B502F045FE002805D01F4925
:10B8B0001D484860C8131E4988611E48018CC9B2E2
:10B8C00001290BD1828C120708D1028D1206120FAA
:10B8D000042A03D1828D1206120F0AD0012921D128
:10B8E000818C09071ED1018D0906090F0A2904D090
:10B8F00007E0114A01219160F5E7828D1206120FCF
:10B9000005D00D290ED1808D0006000F0AD10B48FD
:10B910000168012904D00A49016001680129FCD1AC
:10B92000C021416110BD0000DFFF07C000050040DD
:10B93000006C0040C00F00F00006004000EC064024
:10B940007593000010B504F0CFF910BD7CB51C460E
:10B950001546491E01910090044B6A46214628462F
:10B9600000F0D8F8009A002111707CBD4DC2010092
:10B970002021020C01D010211046020A01D01046ED
:10B980000839020901D01046091F820801D010466B
:10B99000891E420801D0881E7047081A704702E0CD
:10B9A00008C8121F08C1002AFAD17047704700204A
:10B9B00001E001C1121F002AFBD17047F0B51FB48E
:10B9C00084B007980699020D014314D04A484B49A8
:10B9D0001018484305140F9801280E981CD0281AF7
:10B9E000401C0024464E47490094019102900028D3
:10B9F00014DA474227E00F98012443A3012808D016
:10BA0000002104980F9A84600360C260416009B00D
:10BA1000F0BD0E98C143F4E74042E2E7074612E06A
:10BA2000F80707D02246334601990098FFF7BCFC7F
:10BA3000019100902246334610461946FFF7B4FCA8
:10BA400004460E467F10002FEAD10298019B002881
:10BA5000009A0799069802DAFFF7A6FC01E0FFF7C3
:10BA60000BFD04460E460022284BFFF79DFD03D830
:10BA70000020C043014607E00022254B2046314606
:10BA8000FFF7E0FBFFF770FD102409E0002C0ADB54
:10BA90000A220023FFF7A5FB059B30321A55641ECE
:10BAA00002460A43F2D11122641C059B121B1C1989
:10BAB0000F9B012B03D0012308430ED10AE008435A
:10BAC00004D011200E9000200F9084E70E98151AD4
:10BAD0006D1E0BE00E98824202DD00236D1C03E018
:10BAE000824201DA00236D1E002BEED004980F99DC
:10BAF0008260C16030C08AE701FCFFFF104D00008A
:10BB0000000024400000F03F300000000000F0433F
:10BB10000000E03FFFB597B00646002518E2252853
:10BB200077D100242746FD49049400E00443761CA5
:10BB300032780120203A90400842F7D130782A2804
:10BB40000ED00222307801463039092916D80499DE
:10BB50000A235943303940181443761C0490F1E706
:10BB6000189802C804911890002904DA01204003B3
:10BB700004434842049002200443761C30782E2867
:10BB800014D1042004437078761C2A2809D118980F
:10BB9000761C80C8189009E00A214F43303FC7192E
:10BBA000761C3078014630390929F5D930786C286F
:10BBB00010D006DC4C281AD068280ED06A2817D17D
:10BBC00004E0742813D07A2812D110E00120400537
:10BBD00004430CE00121090501E0032109050C43A0
:10BBE0007178814203D1012000052418761C761C4F
:10BBF0003078119066280BD013DC58287DD009DCF2
:10BC000000287BD04528F6D04628F4D047281AD102
:10BC1000A5E118E0632835D0642870D0652812D1DA
:10BC20009DE170286CD008DC6728F1D069287BD0B2
:10BC30006E280DD06F2806D1BAE073282ED0752853
:10BC400071D0782859D01A9A199990476D1C7EE1C5
:10BC50006002400F022809D003280DD0042818984C
:10BC600001680DD00D60001D189070E11898EA175A
:10BC700001680D604A60F6E7189801680D80F2E7E8
:10BC80000D70F0E718986A4601781172001D18903F
:10BC90000020507202A80090012005E0189802C808
:10BCA000189000200091C04361070DD5002101E0EC
:10BCB0000199491C0191B94212DA8142F8DB009ADC
:10BCC000515C0029F4D10BE0002101E00199491CED
:10BCD00001918142FADB019A0099895C0029F5D132
:10BCE000019904981A9B471A21463846199A00F080
:10BCF00097FA0199401945180BE04FE02CE113E049
:10BD00004EE0009800990078491C00911A9A199900
:10BD100090470198401E0190401CF2D121463846C0
:10BD20001A9B199A10E137E00A2000210090019136
:10BD30006002410F022907D0189A01CA1892C2174F
:10BD40009446032908D00AE01898C01DC108C9000C
:10BD500005C91891944607E000B2C2179446042919
:10BD600002D140B2C1178C4600226146944506DAE2
:10BD70000A460021404291418C462D2102E02105D6
:10BD800004D52B216A461173012103E0E10701D09C
:10BD90002021F7E7029155E00A200AE0102008E090
:10BDA000102000900021042004430191082703E0A3
:10BDB00008200021019100906002410F022907D064
:10BDC000189A01CA189200229446032908D008E064
:10BDD0001898C01DC108C90005C91891944603E010
:10BDE00080B2042900D1C0B200210291210729D5D7
:10BDF0001199702906D0009A1021019B4A401A43DC
:10BE000005D00EE040216A461173012108E0614629
:10BE1000014306D030216A461173119951730221F2
:10BE20000291009A0821019B4A401A430AD16146B7
:10BE3000014301D1610705D530216A461173012103
:10BE40007F1E02911199582904D035A10E910DA998
:10BE50000D910DE037A1F9E76146019B009AFFF7CC
:10BE6000C0F90E9B8C469B5C0D9A521E0D9213706E
:10BE700061460143F0D10D9805A9081A20300190C0
:10BE8000600703D501200004844300E001270198E6
:10BE9000874201DD381A00E0002001990090411826
:10BEA000029809180498401A0490E00306D4214629
:10BEB0001A9B199A049800F0B3F94519002706E077
:10BEC00003A81A9AC05D199990476D1C7F1C0298AF
:10BED0008742F5DBE0030CD521461A9B199A04989A
:10BEE00000F09EF9451904E01A9A302019999047FC
:10BEF0006D1C0099481E00900029F5DC08E00D98A3
:10BF00000D990078491C0D911A9A199990476D1C4A
:10BF10000199481E01900029F1DC63E10928010024
:10BF200030313233343536373839616263646566AF
:10BF30000000000030313233343536373839414271
:10BF4000434445460000000000F05AF94519761CAC
:10BF50003078002800D0E2E528461BB0F0BD60072D
:10BF600000D406271898C01DC108C90048680A688F
:10BF70000831C30FDB071891190001D09CA108E01C
:10BF8000210501D59BA104E0E10701D09AA100E0C1
:10BF90009AA1430011985B08109165280CD006DC2B
:10BFA000452809D046281DD0472841D141E06628C0
:10BFB00018D067283CD13CE00021112F01DB112073
:10BFC00000E0781C0191009008A911A8FFF7F6FC89
:10BFD000139905910021119A15927F1C12980197CF
:10BFE000009150E00120C00703900120019008A9B2
:10BFF000009711A8FFF7E2FC139A1499059200220A
:10C00000119B009212981593059A0192002901D074
:10C01000104602E0791C40180190381A01D50198A9
:10C0200004E04042401E0090781C0190C01B02902A
:10C0300043E0012F00DA01270021112F01DD11203B
:10C0400000E038460191009008A911A8FFF7B6FC5E
:10C0500013990591119A0021129815920091019758
:10C0600021070CD40599B94201DB019900E0019147
:10C07000012904DD159A491E515C302906D0B842C9
:10C0800001DA011D05DA0121029115E00199491E2D
:10C09000EDE7002805DC0099411800910199091A83
:10C0A00003E0019A411C914200DD01910099401A80
:10C0B000401C02900120C0070390200706D402997B
:10C0C0000198814202DB0020C043029000206946B3
:10C0D000C87707AF012103980337C907884224D0E6
:10C0E000022011902B201290039800280CDA404275
:10C0F00003902D20129007E00A210398FFF716F80D
:10C1000030317F1E039039701199481E119000291B
:10C11000F2DC03980028EFD1791E1298087030786D
:10C12000202108404530BF1E387006A8C01BC01D26
:10C13000039010980078002800D001200199411840
:10C140000298C0170918039809180498401A401E4D
:10C150000490E00306D421461A9B199A049800F033
:10C160005FF8451910980078002803D01A9A199999
:10C1700090476D1CE00324D521461A9B199A049818
:10C1800000F04EF845191CE00098002807DB0099E4
:10C190000598884203DD1598405C199901E01999CA
:10C1A00030201A9A904700986D1C401C009002980D
:10C1B000401E0290002804D11A9A2E201999904707
:10C1C0006D1C0199481E01900029DDDC05E03878DE
:10C1D0001A9A7F1C199990476D1C0399481E039069
:10C1E0000029F4DC21461A9B199A0498ACE6000059
:10C1F0002D0000002B0000002000000000000000C7
:10C20000F8B5044600251E461746880404D405E008
:10C2100039462020B0476D1C641EF9D52846F8BD6C
:10C22000FFB50446002581B01E46C80301D530275E
:10C2300000E02027880404D505E038460399B0477C
:10C240006D1C641EF9D5284605B0F0BD4A68002A69
:10C2500006D00A68531C0B6010704868401E486086
:10C260007047F7B584B00025168807461580406BE7
:10C270001446002813D003780598032E51D30221C9
:10C28000017021881122491C89B2218042542188E1
:10C29000491C89B2218043542088401C2080386B7F
:10C2A00000281DD005462088059902461232B24268
:10C2B00037D811220A5420881022401C80B22080D6
:10C2C0000A542088401C20800F202A5C2388401EAE
:10C2D000CA54228840B2521C22800028F5DA002578
:10C2E000384620300290807B002806D03346224614
:10C2F000059902F06BF9050014D10298407B0028E3
:10C3000006D032462146059800F07EFD050009D191
:10C31000B878002823D0059886462088001DB042B2
:10C3200002D90C2007B0F0BD684679DF0028F9D1AA
:10C33000218803207246505420881921401C80B265
:10C340002080115420887146401C80B22080411802
:10C350006846008803F05CFD218840182080F8784A
:10C36000002817D0218803230A46FB56C91C0598CC
:10C37000B142D6D80221815421880122491C89B2B8
:10C38000218042542188491C89B22180435420884D
:10C39000401C20807868002817D021880023C356CD
:10C3A0000A46C91C0598B142BBD802218154218894
:10C3B0000A22491C89B2218042542188491C89B231
:10C3C000218043542088401C2080388900280AD0CE
:10C3D000009438460196062202210830059B03F09E
:10C3E00096FD05009ED1388A00280AD00094384670
:10C3F0000196072203211030059B03F088FD0500FC
:10C4000090D1388B00280AD0009438460196152226
:10C4100014211830059B03F07AFD050082D1386A9B
:10C42000002806D033462246059900F0EFFF0500AC
:10C43000D8D1786A002806D033462246059902F002
:10C440000BFC0500CED10298007B002807D03346B4
:10C4500022463846059903F0B3F90500C2D1387871
:10C46000002807D0334622463846059902F028FCBA
:10C470000500B7D1284655E710B598B0382101A876
:10C48000FEF797FE0221684601710124847106219E
:10C49000C171032181821148069024210FA8FEF763
:10C4A00088FE10A80472FF20E1301390B42014908D
:10C4B0000020014600900A4B0FAA01A800F052FA92
:10C4C000040007D007A001F0F5F8204600F0AAF814
:10C4D00018B010BD13A001F0EDF8F9E70428002012
:10C4E000F5F001004F6F6F70732E2E20536F6D6546
:10C4F0007468696E672069732077726F6E67207742
:10C5000069746820696E697469616C6973696E67C2
:10C51000206164766572746973696E672E2E0D0AE8
:10C52000000000004164766572746973696E67206B
:10C53000696E697469616C69736564210D0A000034
:10C5400070B504462ECC0D482EC00C4D20682861D5
:10C55000A088A882E088E8820948E86120892886C6
:10C56000A07A68862146284607220B313430103CD9
:10C57000FEF706FE606AE86370BD0000402B0020F5
:10C580007C15000010B50E4C04280FD005280DD0E6
:10C5900007280AD1607E002807D00020607650DF8F
:10C5A0000AE0E16B002900D0884710BD207E0028FA
:10C5B000FBD0002002F0EAF90028F2D110BD000003
:10C5C000402B002010B50B4C0120207660760A48E5
:10C5D0004FDF002803D0E16B002900D088470120FD
:10C5E00002F0D4F9002803D0E16B002900D088477D
:10C5F00010BD0000402B0020E5E9010001490020AA
:10C6000008767047402B0020BFF34F8F0449034842
:10C61000C860BFF34F8F00BFFDE700000400FA05BC
:10C6200000ED00E00EB50021029000916A460191F4
:10C630000148FFF7E9FF000001400000014B1B68C3
:10C6400018470000842C002038B50C46A2680C2343
:10C650005A43064B09789D58054A126A00920246D1
:10C66000204608302369A84738BD0000082F002065
:10C670008828002010B5064914230A785A43511817
:10C68000091DFFF7E1FF042003F0E2F810BD0000F0
:10C690003C2E0020094B9B68002B07D0002A07D0B6
:10C6A000002805D00068037C002B03D008207047C9
:10C6B000072070474174426100207047AC28002079
:10C6C000FFB59007002581B014460E46002832D1F0
:10C6D0001B4F002C31D003F01FF804987861032021
:10C6E000387033461821224600204B43BC60183472
:10C6F000C10089180D704D708E704C601C19401C63
:10C700000328F5DBFD607D7001240E48BD70240513
:10C71000046003211420FFF77FF80B4804600B4CE2
:10C720000198A06003211120FFF776F86068386156
:10C73000002005B0F0BD0720FBE7BD60FBE700006F
:10C74000AC28002080E200E000E100E0001501409C
:10C75000FEB50D461B4917468968044600292AD0B4
:10C76000002C28D0052D01D20720FEBD60690028CD
:10C7700021D0607C012820D0002603F08BFBC00074
:10C780001049019089684018694603F0ADFB002804
:10C7900015D0012101700C49446049680830E2C09D
:10C7A000084901988968411868460078487003F084
:10C7B0000DFA0020FEBD0820FEBD2E46DDE7042058
:10C7C000FEBD0000AC28002000150140F8B5134D57
:10C7D0000446A96800291CD0002C1AD060690028E2
:10C7E00017D00026267403F055FBC700A8686946D9
:10C7F000381803F079FB00280DD002210170446045
:10C80000A868391868460078487003F0DFF93046A8
:10C81000F8BD0820F8BD0420F8BD0000AC280020B9
:10C8200010B5102211491248FEF7AAFCFF2110484A
:10C83000913101610F4981820F49C18259210183E0
:10C84000C32181760D4941621B3071DF040009D09C
:10C850000BA000F02FFF2046FFF7E4FE0448FFF78F
:10C860006FFE10BD14A000F025FFF7E71028002090
:10C87000F02A00203412000078560000CDC80100D4
:10C880004F6F6F70732E2E20536F6D657468696ED5
:10C89000672069732077726F6E67207769746820EC
:10C8A00067657474696E672074686520616464727A
:10C8B0006573732E2E0D0A00476F7420746865200F
:10C8C0006164647265737321210D0A0010B504461A
:10C8D00003A000F0EFFE2046FFF7A4FE10BD00000D
:10C8E000426561636F6E2061647665727469736519
:10C8F00072206572726F7221210D0A00F0B50C462C
:10C9000093B01F216A4611800726002791800028D6
:10C9100009D0C17849070DD502A9FFF7A2FC00286C
:10C9200009D102AD01E000251780002C0ED0E0787F
:10C93000002802D0304613B0F0BD01AA0AA9204653
:10C94000FFF78FFC0028F6D10AAA02E06846002211
:10C95000878068468088C3B268460088C1B228468E
:10C9600072DFE8E770B50D4604991646040042D020
:10C97000002E40D0424800224271C360016124224F
:10C9800031464048FEF7FCFB00F0D4F83D49343115
:10C990000846103801602031816038215C38FEF78C
:10C9A00008FC3848217838380170A1788170E17826
:10C9B000C170617841706269216942610161E26818
:10C9C000A168C26081600146E369A269CB618A61A6
:10C9D000616A002919D00146AC310246B832416281
:10C9E0008A60636A1B880B80616A436A89889980C0
:10C9F0000021436A06E00E2070BD666AB668765C68
:10CA00005654491C9E888E42F7D8A16A00291CD032
:10CA10001C4AAC3211460C398A608162A36A9B8839
:10CA20008B80A16A836A098819800021836A04E0E7
:10CA3000A66AB668765C5654491C9E888E42F7D822
:10CA40002C210A5D0F4918390A73216A002909D07F
:10CA50000B4914310162226A52884A80216A026AB3
:10CA6000098811806168002904D00549891D416049
:10CA700061684160034829463838FFF73FFF70BDC1
:10CA800054280020E02C002010B502881C4C102AED
:10CA900017D00021112A1AD0192A11D18079002823
:10CAA0000ED1607901281ED0022822D0032822D07E
:10CAB000042805D12171E2680846002A00D0904779
:10CAC00010BD017D0129FBD18088208110BD6170DE
:10CAD000808821898842F9D1012005E02169002957
:10CAE000F4D0884710BD022000F02CF80028F5D1C2
:10CAF00010BD0320F8E7032020710420F4E70000B4
:10CB00005428002010B5022801D003280ED1084C6B
:10CB1000207800280AD000202070607900F012F8F8
:10CB2000002803D02169002900D0884710BD0000EB
:10CB30005428002010B507210148FEF73AFB10BD2C
:10CB40006C280020F0B5754C87B06071002606A8EF
:10CB5000069602F0ABFB0127082806D000286FD10B
:10CB60000698002802D02770D4E00696FFF7E2FF6F
:10CB70006B4D6878002802D06079012805D0A8782C
:10CB800000280AD06079022807D1E168002903D083
:10CB9000E7700820884700E0E6706079012808D136
:10CBA0006878002809D05D48193002F057FB00284A
:10CBB00003D06079022802D00CE002206071A878CE
:10CBC000002805D05548193002F048FB002801D153
:10CBD00003206071287B002804D16079032801D1EB
:10CBE00004206071287E002804D16079042801D1D6
:10CBF00066712671E16800290AD06079032801D0A6
:10CC0000042805D12878002802D06078002818D0A0
:10CC1000A67018216846FEF7CCFA684606700196A1
:10CC200006720396607901280FD0022816D03C4E78
:10CC3000243637465C3F03281CD004285ED13BE0F5
:10CC400069E0A77007208847E3E73448183001906F
:10CC50006846077046820682277152E02F481830D6
:10CC600001906846077029894182A98801820220C3
:10CC7000207146E0A88A69464882288A08822848A6
:10CC8000243003F0B3F9002805D02878002802D01A
:10CC90006078002801D003202FE002206946087246
:10CCA00004200396F8701E4800213838FFF726FE4E
:10CCB000002830D1052020E0A88B69460882288C06
:10CCC00048821748243003F091F9002805D02878CD
:10CCD000002802D06078002801D004200DE0022056
:10CCE0006946087204200396F8700D480021383810
:10CCF000FFF704FE00280ED106202071607900287D
:10CD000003D0684673DF002805D1E168002901D00F
:10CD100020798847002007B0F0BD0000542800208B
:10CD2000E02C002070B5054601461C220E48FEF797
:10CD300027FA0E4C002626702968002906D0082202
:10CD4000201DFEF71DFA201D7ADF02E00748001DB6
:10CD50007BDF002807D1401E60806670044A0021F6
:10CD60000448FFF797FC70BDCC2D002074280020EC
:10CD700031FE01004C000200F8B5214C028800276A
:10CD80001E4DE689102A15D01E49112A21D0122ADB
:10CD90002DD0502A1CD1C288801DB24218D1028BDE
:10CDA000022A15D1C27E837E10021843C007C00F2D
:10CDB0000CD112E0818869800146104808221631A2
:10CDC0000C30FEF7DDF96F70002E01D100F0C6FBCC
:10CDD000F8BD0020C04368806F700868FFF7F6FC5C
:10CDE0000028F5D0A1690029F2D08847F8BD811D3F
:10CDF000024808220C30FEF7C3F9E7E77428002048
:10CE0000CC2D00204C0002007CB5054608880C465D
:10CE10000930904201D90C207CBD684671DF0028A2
:10CE2000FAD121880820685420881B21401C80B238
:10CE300020802954208800A9401C80B220804019FD
:10CE400006220131FEF79CF920886946801D80B2D8
:10CE500020800978002900D0012129542088401C15
:10CE6000208000207CBD10B5044600F0A1FD2046C6
:10CE7000FFF782FF204602F07DF92046FFF704FE0F
:10CE800010BD000010B586B00023482227490820B5
:10CE900002F02EFD002801D0FFF7C4FB6A460121F5
:10CEA000002002F00DFD04002FD0214800F002FC0C
:10CEB0002046FFF7B7FB1F4802F07AFC002801D09C
:10CEC000FFF7B0FB684602F0F1FC040021D01AA085
:10CED00000F0F0FB2046FFF7A5FB254802F0DCFC44
:10CEE00004001AD023A000F0E5FB2046FFF79AFBD0
:10CEF000304802F015FD040013D02FA000F0DAFB3B
:10CF00002046FFF78FFB06B010BD3BA000F0D2FB20
:10CF1000D1E747A000F0CEFBDFE74EA000F0CAFB50
:10CF2000E6E756A000F0C6FBEDE70000A82A0020C7
:10CF300078010200001E00204F6F6F70732E2E20AC
:10CF4000536F6D657468696E672069732077726FBF
:10CF50006E67207769746820656E61626C696E67C0
:10CF600020736F66746465766963652E2E0D0A0002
:10CF700067CE01004F6F6F70732E2E20536F6D655B
:10CF80007468696E672077656E742077726F6E675C
:10CF90002077697468207265676973746572696E59
:10CFA0006720746F20424C45206576656E74732E41
:10CFB0002E0D0A0015FB01004F6F6F70732E2E208F
:10CFC000536F6D657468696E672077656E7420773E
:10CFD000726F6E6720776974682072656769737411
:10CFE0006572696E6720746F2053595320657665AA
:10CFF0006E74732E2E0D0A00536F66746465766925
:10D00000636520636F6E6669677572656420776912
:10D010007468206C696E6B7320616E6420626C654D
:10D0200020706172616D6574657273210D0A000074
:10D03000536F667464657669636520656E61626CC2
:10D040006564207375636365737366756C6C7921B1
:10D050000D0A0000536F667464657669636520721B
:10D0600065676973746572656420666F7220424CEF
:10D0700045206576656E7473210D0A00536F6674E2
:10D080006465766963652072656769737465726546
:10D090006420666F7220535953206576656E7473F1
:10D0A000210D0A001CB5044681786A460C4802F03E
:10D0B00011F9002812D160781C21484309491C232A
:10D0C00040181A46694602F0BFF906480649403042
:10D0D000807A80000A582146684690471CBD0000AF
:10D0E0004C280020442C00202C0002000022D243B7
:10D0F000830004490428CA5002D30818203002745F
:10D1000070470000E82D0020F0B50025ED43002A0F
:10D1100002D00023042601E0042305260A4C04E083
:10D120009F00E7597F1C04D05B1CB342F8D328460C
:10D13000F0BD5DB2261835759E00A151002AF6D1CA
:10D14000E11820310874F2E7E82D0020024909189F
:10D150001420085670470000E82D0020F8B53E481E
:10D160001422017851430C18E0680C2148433A49D5
:10D170002769CC314018058941890091241D4668F2
:10D1800002F036F901463846FDF7D0FF002932D0CB
:10D1900000200099A2884D436188AE198918CD19E5
:10D1A00000222E4900280A6109D002F021F9618885
:10D1B000884222D0B54202D1A08800281DD0A068A4
:10D1C00002281AD002F014F9A188CA1901461046A3
:10D1D000FDF7ACFF214C8808E06002F009F9014638
:10D1E0002846FDF7A3FF002911D00020B5422FD01B
:10D1F00000280ED02CE00120CBE702F0F9F8014620
:10D200003846FDF793FF15494861032021E00120CE
:10D21000ECE7ADB2B7B202F0EBF801463846FDF7E5
:10D2200085FF064602F0E4F801462846FDF77EFF3A
:10D23000864201D1781B09E002F0DAF8064602F0D6
:10D24000D7F801462846FDF771FF701A8008206163
:10D25000022002F0FDFAF8BD3C2E002088280020B4
:10D2600010B50748142201785143081800790428A2
:10D2700002D000F059F810BD012002F0E9FA10BD0B
:10D280003C2E002010B50B48142201785143081899
:10D29000094AC18811620079012806D0032801D00B
:10D2A000042801D1FFF75AFF10BD012002F0D0FA87
:10D2B00010BD00003C2E002088280020142250437E
:10D2C000054A002180180171C18001220161C260FC
:10D2D00041610181704700003C2E0020F8B5104CE0
:10D2E000069E65780A2D19D027787D190A2D00D35E
:10D2F0000A3D14277D432D1928716A6103C92961EC
:10D30000E860EB802E816078401C607005480078F2
:10D31000002801D1FFF7B6FF0020F8BD0420F8BDBA
:10D320003C2E00208828002010B50D4C14212078B8
:10D33000484301190020091DFFF786F92078FFF7FF
:10D34000BDFF6078401E60702078401CC0B2207025
:10D350000A2801D100202070002002F079FA10BDC7
:10D360003C2E0020F8B52348C16800293ED00E6845
:10D3700021494C680769C078E11B0D022D0AED1C9C
:10D38000002814D101201D4A000450601B4A403A75
:10D3900050601B49400008601A4908601A49012082
:10D3A00008602F20FDF796FE12490120C870B54293
:10D3B00000D23546E81900020F4B000A40331860CE
:10D3C0000D4A5168001B091B0902090A0002000AE4
:10D3D000C91C814209D9506818602F20FDF77AFED8
:10D3E00001200749400480390860F8BD02F094F933
:10D3F000F8BD0000AC28002000150140401301409A
:10D4000080E200E000E100E000100140F8B50646CF
:10D41000108814468446801D0D46984201D90C2080
:10D42000F8BD32880720062AFAD31927FF01184BC6
:10D43000BA4201D99A42F3D171880629F0D3B94290
:10D4400001D99942ECD19A4203D0994201D08A4243
:10D45000E6D805216046295420881221401C80B25C
:10D46000208029542088401C80B2208041193088B7
:10D4700002F0CEFC2188401880B2208041197088CB
:10D4800002F0C6FC2188401820800020F8BD000072
:10D49000FFFF000010B5044603A000F00BF9204682
:10D4A000FFF7C0F810BD0000436F6E6E65637469CE
:10D4B0006F6E20706172616D657465727320657244
:10D4C000726F7221200D0A0010B588B01C216846C9
:10D4D000FDF76FFE0521C90301910F21090400200A
:10D4E00002910090032269460A73C88108740A48B1
:10D4F00005900A4806906846FFF714FC040007D020
:10D50000074800F0D7F82046FFF78CF808B010BDA8
:10D5100004A000F0CFF8F9E7F9F1010095D401007B
:10D5200078010200536F66746465766963652063F1
:10D530006F6E666967757265642077697468206CC0
:10D54000696E6B7320616E6420626C65207061721D
:10D55000616D6574657273210D0A0000F8B5164897
:10D5600000F0DAFF144D00260C3D144C002807D0C3
:10D57000616900291CD001206A461070684616E0D7
:10D580002878002805D06169002911D06846067006
:10D590000DE0687800280DD0A168094800220068D5
:10D5A000FFF7D6F8002803D0A169002900D08847EA
:10D5B0002E70F8BD6168F0E780280020CC2D002097
:10D5C0004C00020070B5094B04469E7A08200025E5
:10D5D0000E4207D00648844202D01889A04202D1E8
:10D5E0000020156070BD052070BD0000782C002063
:10D5F000FFFF00000C214843064910B501224018E6
:10D600008272911E0181FF21C1720721FDF7D1FDB8
:10D6100010BD0000782C002010B5134C20790007B5
:10D620001FD46069401C6061E068002801D00420BC
:10D6300004E000F0A3FF002803D0022002F060FA0B
:10D6400010BD2069002809D06068C10701D00320FF
:10D65000F4E70121084360600020EFE7FFF700FED8
:10D6600010BD02F041FA10BD8828002010B508480E
:10D6700041680A0708D48A0702D501221143416094
:10D68000022002F03DFA10BD02F02EFA10BD00009B
:10D690008828002000B589B0202205496846FDF79A
:10D6A0006FFD0021684601F017FC09B000BD0000C5
:10D6B000FCFF01000FB400B5C1B0FF2143AB013145
:10D6C0006846429AFEF742F9002803D0C1B2684684
:10D6D00001F066FC41B008BC04B01847FEB50E4628
:10D6E000044681786A46234801F0F4FD002827D1DA
:10D6F00060780C21204F4843C019807A400620D41E
:10D70000022E1ED0012E1ED01C4DA0781C21484395
:10D7100019490023F83941181C226846A8470028F7
:10D7200013D0022E0CD020780C21484312490C3122
:10D730004018807A124980000A582146684690476E
:10D74000FEBD104DE1E7104DDFE7022EF8D0607806
:10D750000C214843C019817ABF2211408172607840
:10D760001C2148430449343941181C231A46684691
:10D77000A847D8E74C280020782C00206DFA01003B
:10D780001C00020089F60100ADF5010070B50546E8
:10D79000114A124800241C2363431B189B7EFF2B55
:10D7A00004D0641C072CF6D3104670BD0A78022AF8
:10D7B00009D01C2262431018FD2282760722103005
:10D7C000FDF7DEFC04E01C2161430818FE21817690
:10D7D0002C700022E8E7000043800000802B00202E
:10D7E000F7B505250F4F06460024002E0AD01C2051
:10D7F0006043C019072231461030FDF7E5FC0028D0
:10D8000007D00AE01C206043C019018B02988142B6
:10D8100003D101980025046002E0641C072CE4D3C6
:10D820002846FEBD802B00207CB5054681B26A46A5
:10D83000074801F04FFD040008D15421684601F06B
:10D8400073FD040002D1284601F014FD20467CBD82
:10D850004C28002010B5144604A0FFF72BFF200031
:10D8600001D0FEF7DFFE002010BD0000444D206512
:10D8700076656E74210D0A001FB56946087301F0C4
:10D88000BDFD040033D02048FFF714FF2046FEF70B
:10D89000C9FE03A800F084FA04002CD01BA0FFF7F7
:10D8A00009FF2046FEF7BEFE01A805210130FDF765
:10D8B00080FC6946487901221043E1210840DF21BC
:10D8C0000C30084069464871072088711020C871E3
:10D8D0001D4800900A711D4800F074FB04000ED032
:10D8E0001B48FFF7E7FE2046FEF79CFE1FBD19A070
:10D8F000FFF7E0FECDE721A0FFF7DCFED4E724A090
:10D90000FFF7D8FE1FBD0000340102004F6F6F709B
:10D91000732E2E20536F6D657468696E672077656E
:10D920006E742077726F6E67207769746820696EF5
:10D93000697469616C6973696E67207468652044F5
:10D940004D2E2E0D0A00000055D8010000280020A1
:10D95000E800020050657273697374656E74207319
:10D96000746F72616765206D6F64756C6520697393
:10D97000207265616479210D0A000000444D206920
:10D980006E697469616C69736564210D0A00000039
:10D990005265676973746572656420706172616D48
:10D9A000657465727320666F7220444D210D0A0004
:10D9B000F0B5054693B000200290FF24EC480E9489
:10D9C0000078002849D0EB4F3868002845D001A8DE
:10D9D00000F0D8F9002801D0FEF724FE281D05909C
:10D9E0002A2069460883FF20002688710E7103965D
:10D9F000E04C28880C3C10280ED0A88803AA0221ED
:10DA0000FFF7E0FD002807D103980C2141430919D5
:10DA1000CA7A69468A7148712888132217287CD0EF
:10DA20000FDC10281BD0112853D0132876D01428CF
:10DA300013D103980C2148430019C07AFF2871D0F4
:10DA40008DE0CD4918286BD01C286AD0522804D10B
:10DA5000B87A8000095801A8884713B0F0BDC74FB5
:10DA600003AA01213846FFF7ADFD0028F5D103993F
:10DA70000C20484302220019827211236A46137453
:10DA80005171A98801810722A91DFDF779FB687DE5
:10DA9000C10707D04108B6480830405CFF2808D0CD
:10DAA0000E9006E03A460EA9A81DFFF799FE002841
:10DAB0000ED103990C22514309190E98C8728A7A23
:10DAC00008231A438A726946887101A8FFF7EAFAA7
:10DAD00039E103980C2148430119887AFD2210404E
:10DAE0008872010706D5C0090DD0002101A8FFF7F3
:10DAF000F5FD08E068468079FF2804D001F0BAFB04
:10DB0000FF206946887103980C22504310210019A8
:10DB1000817212206946087415E17FE030E001E06F
:10DB2000D5E00EE1EA890EA90020FFF759FE002892
:10DB30000ED103980C22504300190E99C172837ABA
:10DB40000822134383726846817101A8FFF7AAFA7D
:10DB500003980C2148430019C07AFF2806D0039887
:10DB60001C214843834940394018029003981C21E6
:10DB7000484383494218A8880023029982DF6CE752
:10DB800068460274039B0C2058430119887A0422CA
:10DB900010438872C87AFF2830D01620694608746E
:10DBA0001820434373480E21243818180830FDF715
:10DBB00000FB03980C2148430019817A402211434D
:10DBC000817203990C2200204A430A901219D27ADA
:10DBD0001C235A436A4B0C90D2180B921C225143BF
:10DBE0001A46C43289180791089009903A1DA888EE
:10DBF00007AB00217FDF0028C1D1A4E00EA8FFF70A
:10DC0000C5FD002801D00646DBE769460E988871FD
:10DC100003990C2251430919C872D2E7787A400857
:10DC200040007872039A0C209446424311198B7A73
:10DC3000FB2003408B7214206F463874A8790028AB
:10DC400004D0C87AFFF7F0FDAE797CE0E8794007B0
:10DC500079D5B879FF2876D008273B438B72EB7AC9
:10DC60009B0708D51C2503466B43454D5B199D7EDC
:10DC70006D086D009D76CB7AFF2B64D0A25C022AE2
:10DC800010D01C2250433E4D072240191030FDF7A2
:10DC900077FA684680791C2148434019817EFD222D
:10DCA00011400EE061461C225143324A403A891825
:10DCB0004A8A1C214843324940180283817E490820
:10DCC00049008176012101A8FFF708FD3BE0A87912
:10DCD0000209012A23D10007000F01281FD1039850
:10DCE0000C2242431219927A120718D51821484380
:10DCF0002049243940180E210830FDF75AFA162021
:10DD00006946087403980C2148430119887A6022F7
:10DD100010438872787A0221084378720FE00398E2
:10DD20000C2250430019827A80231A4382721520F4
:10DD30006A461074B87A8000095801A888470026FE
:10DD400001E068460274324604A901A8FEF776FC99
:10DD50006846007C122800D07FE603980C214143DE
:10DD60000919897A0129F7D0FFF744FC75E600000C
:10DD70003C280020842C00203C000200FFFF000013
:10DD8000802B0020002806D0FF2101704170817097
:10DD9000C170002070470148704700000E800000ED
:10DDA000F0B585B0040036D02948002505604572DD
:10DDB00085722846FFF71EFC254818212438FDF7F8
:10DDC000F8F90026FF27304601F054FA214887551C
:10DDD000761C072EF7D35421684681800721C18025
:10DDE0001D481C4900900831684601F081FB00285D
:10DDF0000FD1184E0120083E3070207800280CD03A
:10DE000069468888C988484381B23046103001F09D
:10DE10008BFA05B0F0BD1148FBE7114F00240D4807
:10DE2000A1B202AA083001F055FA002809D11C203D
:10DE30006043C01900231C2202A901F005FB002841
:10DE400001D03570E5E7641C072CE8D3E1E700005A
:10DE5000842C00204428002065DE01000E80000094
:10DE6000802B0020FFB554488FB00068189F1E46D5
:10DE700000284FD0542F4DD86846FFF783FF002865
:10DE800001D0FEF7CFFB00246846047004712546DC
:10DE900005970696A9B20DAA484801F01BFA00287A
:10DEA00006D108220DA90F98FDF78EF9002819D088
:10DEB0006D1C072DEED3684680780790FF2829D087
:10DEC00010982025032810D03D481C21301AFDF75A
:10DED0002DF9012707282DD204A8029011980028B7
:10DEE0001AD021E068468570E5E7542F03D0402022
:10DEF0006946087101E068460571694608790321A1
:10DF000008436946087104A8029001A96846119A5D
:10DF1000FEF794FB13B0F0BD0799384688402749B7
:10DF2000103949680842F5D0079801F077FF684634
:10DF3000057138E020481C214038301AFDF7F6F80A
:10DF400000280BD01C4D1821243D701BFDF7EEF866
:10DF500000281AD0402069460871DBE704A8029027
:10DF600068460571447014480A940C300B904C3884
:10DF70000790684680781C21484311494018089052
:10DF800007A80690182005900DE030216846017121
:10DF90004470C77008480C38807A800703D428463C
:10DFA0001821FDF706F9109869460228087901D072
:10DFB0000221A5E73843A5E7842C00204C28002047
:10DFC000802B002070B5064618480D4600780028C2
:10DFD0000ED01749002E0ED0002D0CD02868002836
:10DFE00009D0144C2168002907D011480A3870BDA7
:10DFF0000F48801F70BD084670BD20600522691D56
:10E00000201DFDF7BDF82879A072207A0221400872
:10E0100040000843FB2210402072E079012318439E
:10E0200008431040E0710020307070BD3C28002093
:10E030000E800000842C002010B50E4900234A7881
:10E040008C78A24212D0521CD2B24A70022A00D15D
:10E050004B704A78074B920018339A58026008694F
:10E0600010180002000A0861012010BD03600020A2
:10E0700010BD0000AC28002010B5002803D01128E6
:10E0800002D0FEF7F7FA10BD02480822416811439A
:10E09000416010BD8828002010B51C4C2178204616
:10E0A0004068012906D0022929D0032912D100078E
:10E0B00017D513E0000711D41548142201785143F5
:10E0C0000818C188A28B891A0904090CC18002D0E2
:10E0D00001F0CEFC10BDFFF727F910BD00F0B0FD38
:10E0E00010BD6069401C606100F048FA002803D050
:10E0F000207801F0ADFB10BDFFF7B2F810BD6078DD
:10E10000044980000858804710BD0000882800207E
:10E110003C2E00208400020010B528DFFFF7ACFF82
:10E1200010BD10B529DFFFF7A7FF10BD3EB51120C8
:10E13000694608720E221BA102A87CDF040025D0CC
:10E140001CA0FFF7B7FA2046FEF76CFA274878DFE5
:10E1500004001FD026A0FFF7ADFA2046FEF762FAB2
:10E160000020FF21913100906A46019011804B0000
:10E1700053809080D18068467ADF04000ED02B480F
:10E18000FFF798FA2046FEF74DFA3EBD28A0FFF7AC
:10E1900091FADBE72BA0FFF78DFAE1E72EA0FFF75E
:10E1A00089FA3EBD4E6F726469635F48524D5F618C
:10E1B000647600004F6F6F70732E2E20536F6D6565
:10E1C0007468696E672077656E742077726F6E670A
:10E1D00020776974682073657474696E6720746849
:10E1E00065206E616D652E2E0D0A00004103000052
:10E1F0004F6F6F70732E2E20536F6D657468696E4C
:10E20000672069732077726F6E6720776974682062
:10E2100073657474696E67207468652061707065D9
:10E22000617272616E63652E2E0D0A00BC010200E0
:10E23000446576696365206E616D65207365742140
:10E240000D0A0000417070656172616E6365207334
:10E250006574210D0A000000436F6E6E656374697A
:10E260006F6E20706172616D657465727320736585
:10E2700074210D0A00000000002070470020704744
:10E2800000207047F8B506464078182104464C43F4
:10E2900024490C2250436118224A00254B68183249
:10E2A0008018AE462F469C46002B0CD0827A13462F
:10E2B000D20908D05A0606D40D461A4A614689B2D8
:10E2C000175908358E46174C008918343B4672465C
:10E2D0002946A9DF0B2819D0002800D01248012FA9
:10E2E00013D170780C214843001900890F4AA7DF29
:10E2F00000280AD00E49884212D0082810D0891C64
:10E3000088420DD011280BD00020F8BD70780C2168
:10E31000484301230019008972462946A9DFE0E736
:10E320000148F8BD602C002041800000FFFF000084
:10E330000230000070B50C46014660781822084D86
:10E3400050434019382301F07FF8002807D1617845
:10E350001822514349194A68521C00D14A6070BDC5
:10E36000602C0020F3B585B00D460E20694608826A
:10E3700068780C2103274843224E3B4680190089C8
:10E3800004AA6946AADF002838D1687818214843D2
:10E39000741A001969460A8A0830FCF715FF00282C
:10E3A000687807D0182148430119496800290DD021
:10E3B000154E0CE00C2141438919897A89071DD437
:10E3C000182148430019FCF7F4FE17E00F4E2750C0
:10E3D0006846028A687818214843001942606878C4
:10E3E0004843001969460830FCF7CAFE68781821CE
:10E3F00048430119382318220598B047002007B078
:10E40000F0BD0000782C002089F60100ADF5010078
:10E4100010B5FFF737FF10BD10B5FFF78BFF10BD2C
:10E4200010B5FFF79FFF10BD70B51B4C207900079A
:10E430002ED41A481422017851430D182E6900F089
:10E44000D7FF0146E8882A89761E80188019FCF7D4
:10E450006DFE21690025002909D06169814206D13C
:10E46000E560606801210843606000200AE000F078
:10E4700085F8002802D00220E56003E0206900282A
:10E4800003D0032001F03CFB70BDFEF7E9FE70BD38
:10E4900001F02AFB70BD0000882800203C2E0020DF
:10E4A000F8B51C4C2078002833D02069002807D00C
:10E4B0000026E068002805D00025002E04D011E0D9
:10E4C0000126F6E70125F8E7684652DF052804D063
:10E4D000002804D0FEF7A6F804E0012602E0216936
:10E4E00000988847002D10D1608869460880A06890
:10E4F00061DF052804D0002804D0FEF793F804E07B
:10E50000012502E0E168A0688847002EDCD0002DDC
:10E51000D3D0F8BDCC28002041880548028891421C
:10E5200004D34088814201D8012070470020704701
:10E53000782800201048018CC9B2012917D1818C9C
:10E54000090714D1018D09060A0F03D1828D120625
:10E55000120F0ED0090F012903D1828D1206120F5E
:10E5600007D0032903D1808D0006000F01D00020C1
:10E570007047012070470000C00F00F070B50E48D2
:10E580001422017851430C18256900F031FF01462F
:10E59000E08822896D1E80184019FCF7C7FD0749E5
:10E5A0004A69824206D3824202D10869002801D01A
:10E5B000002070BD012070BD3C2E00208828002066
:10E5C000800701D0002070470120704730B51588C2
:10E5D000EC1C9C4201D90C2030BD02244C55138800
:10E5E0001C255B1C9BB21380CD5413885B1C9BB213
:10E5F0001380012807D0022807D0032807D0042859
:10E6000007D0072030BD002004E0012002E0CC54F8
:10E6100001E00320C8541088401C1080002030BD49
:10E62000F8B500200B4DFF27044602370090A600E6
:10E63000A859694600F0FCFB002801D0FDF7F2FF65
:10E64000A8598100044808180760641C022CEED900
:10E65000F8BD0000202800200007005010B5054A32
:10E6600080001058002902D000F0DAFB10BD00F045
:10E670002BFC10BD20280020F8B52C49C8680A6979
:10E680000C780F7989688646944600913EE000999F
:10E69000E20055182A7836E0182353436968521C63
:10E6A000C918AB78D2B2934200D100220B78022B6A
:10E6B00002D0032B27D123E04E680346014603E036
:10E6C000B14204D00B46C96900291CD0F8E70029E3
:10E6D00019D08B4208D1C069002805D1144F0126FA
:10E6E000BE600026B44601270E68C969D9610029B9
:10E6F00009D00B689B190B6005E00174C06900E04C
:10E7000000210028F9D169789142C5D12146641EC3
:10E71000E4B20029BBD1054962460A61C8600F71A5
:10E72000704501D00120F8BD0020F8BDAC280020C4
:10E7300000100140F8B5044631480026C168009138
:10E7400007784EE02E48F90080680D1843E0002C51
:10E7500002D02046E4691FE02878182141436A6806
:10E76000401CC0B251182870AA78904200D12E7077
:10E770000A784868012A30D1027C002A2DD18A68A3
:10E780004260CA6882600A69C260496981611C4945
:10E790000979002900D04660194943680A699C46F6
:10E7A000991A0902174B090A994202D282688918FC
:10E7B00007E06146511A09028268090A8A4202D9B1
:10E7C000511A016000E00660466001218660017414
:10E7D000C66101F003FA002CB9D128786978884223
:10E7E000BAD138467F1EFFB20028ABD10448C168B9
:10E7F0000098814201D00120F8BD0020F8BD000042
:10E80000AC280020FFFF7F00074801210170017143
:10E8100000214171014620397D230A69DB005A43FA
:10E820008A62CA69CA627047602B002010B500F086
:10E8300039F812490122CA631249114B4B61124B3C
:10E840008B61FF2304334B63104B8B630A63104BC4
:10E8500003221A600A610B4B962240335A600D4B1B
:10E8600010225A608E224A620B4ACA610B4ACA635E
:10E8700048600B490220086010BD0000C01F004026
:10E880000601020000150040250003025B0600009F
:10E89000001200400013004000D6BE8955555500B7
:10E8A00000E100E070B51D4C422020700020607037
:10E8B000A07021460225E01C06225D31FCF760FCB9
:10E8C00065720120A0720620E07200202073FF20F4
:10E8D000264660732836308E21468873000AC87336
:10E8E000084625741230054610222831FCF748FCF2
:10E8F000B08AB11F0870000A48702422F18AA0185B
:10E900000170090A41702621708E605462701A20CD
:10E9100020731520203DE877204670BD182B00207D
:10E92000F8B5012401280DD0FF260A4D91360A4F73
:10E9300002280DD0032804D1272000F03BF8EC601A
:10E940003E60F8BD252000F035F804480460F8BDAD
:10E950002620F2E700800040408500400010004083
:10E9600010B50848064C4461074901610549801506
:10E9700040394860FFF75AFF0120206110BD0000B8
:10E980000010004040F5014040810040014607482A
:10E990000022027001220271417101462039CA69C8
:10E9A0008A62034ACA6251DF70470000602B002070
:10E9B00040420F000A4A0A494032252808D026283A
:10E9C0000AD0272803D15020886027205061704743
:10E9D000022088602520F9E71A2088602620F5E7C4
:10E9E0000015004070B5194D002169602C1F297079
:10E9F000002809D0164E02280AD0F16B002901D058
:10EA000008208847114870BDFFF7AAFF01200BE0DE
:10EA100010480269012AF5D101612078FFF780FFD3
:10EA20002078042802D0401C2070EBE7FF200A4920
:10EA300001308860307E002804D0FFF7E5FE686072
:10EA4000032000E002202870DCE7000030280020CE
:10EA5000402B00200011004000F50140FEF71AFE97
:10EA60002BA0FEF727FE00F0B1F9040047D032A03A
:10EA7000FEF720FE2046FDF7D5FDFFF7D1FD3CA0B7
:10EA8000FEF718FE0023434A05211846FDF718FE3D
:10EA9000002801D0FDF7C6FDFEF7F4F9FDF7C0FE32
:10EAA0002846FEF7E9FEFFF741FBFDF7E5FC3AA03B
:10EAB000FEF700FEFEF708FD3CA0FEF7FBFD03207D
:10EAC000FEF740F804001ED03EA0FEF7F3FD2046FE
:10EAD000FDF7A8FD01210020FFF7C0FD0021012066
:10EAE000FFF7BCFD00210220FFF7B8FD43A0FEF7B1
:10EAF000E1FD48DF0028FCD0FDF794FDF9E743A0D5
:10EB0000FEF7D8FDB9E747A0FEF7D4FDE2E7000025
:10EB1000446562756720706F7274206F70656E65F2
:10EB2000642E2E2E20496E697469616C6973696E5A
:10EB3000672E2E2E0D0A00004F6F6F70732E2E2041
:10EB4000536F6D657468696E672069732077726FA3
:10EB50006E67207769746820696E697469616C6991
:10EB600073696E67204750494F54452E2E0D0A0099
:10EB700056697375616C20666565646261636B20BC
:10EB800073686F756C642062652061637469766573
:10EB9000210D0A00E02800205345525649434553B1
:10EBA00020454D5054592E2E0D0A00004E4F205432
:10EBB000494D45525320544F205354415254212122
:10EBC0000D0A00004F6F6F70732E2E20536F6D650E
:10EBD0007468696E672077656E742077726F6E67F0
:10EBE0002077697468207374617274696E6720613C
:10EBF0006476657274732E2E0D0A0000526561648E
:10EC00007979792E2E200D0A000000004750494FD7
:10EC1000544520696E697469616C69736564210D7E
:10EC20000A0000004164766572746973656D656EF3
:10EC30007473207374617274656421210D0A00007D
:10EC400010B504480822416891434160007800F003
:10EC5000FFFD10BD8828002070B5144682880E463E
:10EC600005462088111D4118921C994201D8FE2AA0
:10EC700001D90C2070BD521C32542088FF21401C49
:10EC800080B2208031542088401C80B220808119BD
:10EC9000288801F0BDF82188401880B22080AA8819
:10ECA000002A09D0A968002908D08019FCF768FA61
:10ECB0002088A98840182080002070BD072070BDE2
:10ECC000F8B50F46017814460546012902D1687847
:10ECD000002806D02088821C9A422DD8012902D013
:10ECE00006E00720F8BD69784118891C994223D8AD
:10ECF000181A801E86B2684606802188B81C08183B
:10ED000069467DDF0028EDD12878022805D16946C3
:10ED10000988B14201D809210AE00821012805D15A
:10ED20006878B04202D86A46108001E068460680E2
:10ED300068460088FE2801D90C20F8BD2288401CB6
:10ED4000B8542088401C80B22080395420886946FD
:10ED5000401C20800988401820800020F8BD002039
:10ED60007047002070470020704700008207D30ED4
:10ED7000FF229A408907090E10B5994000280BDA46
:10ED800003071B0F083B9C080C4BA400E318DC692D
:10ED900094430C43DC6107E08408094BA400E418A9
:10EDA000236893430B432360C106C90E01208840AA
:10EDB000044908600449086010BD000000ED00E04F
:10EDC00000E400E080E200E000E100E070B5124DF8
:10EDD000687D002801D0082070BD0F49002020392F
:10EDE000421E0B18401CC0B21A752028F9D300240B
:10EDF0002046FEF77BF9641CE4B2052CF8D303210E
:10EE00000620FFF7B3FF01200449C0074860012036
:10EE10006875002070BD0000082E002000630040CF
:10EE2000012181400148C160704700000005005089
:10EE3000FEB5044620480D4600191421415600260F
:10EE4000491C01D0082633E0A97800291DD00122F1
:10EE500000212046FEF758F9411C14D083001748C2
:10EE60002A78181869780369154F3B4003610369D4
:10EE7000E706FF0C9207920BC907C90A3B430A43F6
:10EE80001343036104E0042612E00121C943017524
:10EE90006A780120A0400B49012A0BD0C8600021EC
:10EEA00000910B46012201912046114600F0C2F864
:10EEB0003046FEBD8860F2E7E82D00200065004086
:10EEC000FFE0ECFF00050050012181400148816016
:10EED0007047000000050050F3B52A4C0746E07E5D
:10EEE00081B0002801D00820FEBD002F00D1264FA0
:10EEF000386800F0CCF83878012631468140234844
:10EF000081600021786800F0B9F8214DB869686225
:10EF1000787D397D0843E86603CFE8606961387B16
:10EF2000083F01280FD10021B86800F0A7F8F86861
:10EF300000F0ADF8387B3146814014488160F968B3
:10EF4000B868A9602861029860603969216000286A
:10EF50000ED0FF230F481D33397F0022C250FF23FC
:10EF60004533C2500D4A0C4850600220FFF7FEFEA8
:10EF7000042028600020E0752076A075E676A07653
:10EF8000FEBD0000202E00205000020000050050B1
:10EF900000250040002000408000020000230040C7
:10EFA00010B5064A937D002B01D0112010BD91753C
:10EFB00090600020908200F003F810BD202E002009
:10EFC000F8B50026194FFF251D357E510120B86088
:10EFD00000F064FE164C6168002910D022E0FF2783
:10EFE00001372946114800F077F8002802D1A08A9D
:10EFF000B842F6D1A08AB84201D000F04FFEA08AF4
:10F00000A17D8842EBD3A18AC81FF9380CD0074FE5
:10F010002946384600F060F80028F9D00120F86051
:10F020000020A0753046F8BD0F26F9E7002000400B
:10F03000202E002030B552000A439900039C0A4359
:10F040002102049D0A4329040A4302498000401812
:10F05000026030BD0007005030B552000A439900ED
:10F06000039C0A432102049D0A4329040A430249DE
:10F0700080004018026030BD000700501CB500221F
:10F080000B46009211460192FFF7E6FF1CBD1CB52E
:10F09000002100910B46012201911146FFF7DCFF90
:10F0A0001CBD0000820006481018026803231B04E0
:10F0B0009A430260026809040A4302607047000034
:10F0C00000070050034940180068012800D00020C4
:10F0D00070470000006000404058002800D0012028
:10F0E00070470322120280184068084000D00120B7
:10F0F0007047000010B5002805D0032802D108A0F1
:10F10000FEF7D8FA10BD0DA0FEF7D4FA11A0FEF755
:10F11000D1FA3CDF0028F5D0FDF784FA10BD0000DD
:10F12000456E746572696E672066617374206164F0
:10F1300076657274732E2E2E200D0A00456E74654E
:10F1400072696E672049646C65206D6F64652E205E
:10F150000D0A00004379636C6520706F776572203B
:10F16000746F20726573746172742E204279652EFB
:10F17000200D0A0010B504460088102810D0112870
:10F180000DD1FDF71FFAFDF777F90320FDF7DAFC43
:10F19000002801D0FDF746FA06A0FEF78BFA10BD55
:10F1A00010A0FEF787FA1349A0884880FDF726FAD9
:10F1B00010BD0000446973636F6E6E6563746564AF
:10F1C0002C204164766572746973696E672070657E
:10F1D000726970686572616C20616761696E200D8B
:10F1E0000A000000436F6E6E6563746564203A29FF
:10F1F0000D0A00000028002010B5007800280BD16F
:10F2000008483B21408876DF040006D00648FEF718
:10F2100051FA2046FDF706FA10BD04A0FEF74AFA9F
:10F2200010BD00000028002098000200424C455FFD
:10F23000434F4E4E5F504152414D535F4556545FD0
:10F240004641494C45442C20646973636F6E6E657A
:10F250006374696E67210D0A000000000021425CA2
:10F26000002A01D001207047491C0629F7D300204D
:10F270007047000070B505461C200B4968434418D0
:10F28000204611300621FBF794FF20461021FBF7A2
:10F2900090FFFF2121740020A176C04320832846DF
:10F2A00000F0BCFD70BD0000802B002007490979EB
:10F2B000490701D408207047002804D00449497840
:10F2C0000160002070470E20704700008828002051
:10F2D0003C2E002030B5124B1B795B0701D408206F
:10F2E00030BD002805D0002A03D00468002C10D1BE
:10F2F00001E00E2030BD0B4B1D68002D09D0456884
:10F300001889414369185D8945435868281888421F
:10F3100001D8072030BD14600020516030BD0000CE
:10F3200088280020082F0020FEB5054625480E46F7
:10F330000079400701D40820FEBD002D03D02868C5
:10F34000002834D101E00E20FEBD1F4C21680029A9
:10F350002DD06089218948436168411868688142DD
:10F3600025D9FFF72DF900280FD06868019029688A
:10F370000C2251430F1979680091401A39890C46C3
:10F38000FBF7D4FE002912D101E01020FEBD21467A
:10F390003046FBF7CBFE002909D1002E07D0788933
:10F3A00044430198811900980019814201D907202E
:10F3B000FEBD002002460090334629460320FDF79B
:10F3C0008DFFFEBD88280020082F002010B50748BB
:10F3D0004469601C06D000F00BF801462046FBF79C
:10F3E000A5FE10BD01200007406910BD00100010EF
:10F3F00001200007006980B27047000070B500244A
:10F400000F482546047044702846FDF757FF6D1CD1
:10F410000A2DF9D30B4D6C80FFF7D8FF861EFFF73E
:10F42000E7FF46430648AE60CC306C61046004815F
:10F4300044812C70AC610420EC616860002070BDD8
:10F440003C2E002088280020FFB5274881B0007995
:10F450001F4616460D46400702D4082005B0F0BDF1
:10F46000002D06D00198002803D02868002815D167
:10F4700001E00E20F2E71D4C206800280ED06189C3
:10F4800020896268414389186A68914206D9002E32
:10F4900004D0B04202D3F119814201D90720DDE73F
:10F4A0000198FFF78DF800281BD03846FFF788F841
:10F4B000002816D06868FFF783F8002811D0686824
:10F4C0003246C1190198FBF75BFE009628680C21B3
:10F4D00048432458002202212846019BA0470020CF
:10F4E000BCE71020BAE7000088280020082F002081
:10F4F000F8B52C4D044628790E46400701D4082063
:10F50000F8BD002C20D0002E1ED0206800281BD073
:10F51000FFF76EFF0146A088814213D3102811D354
:10F52000E08800280ED0FFF751FF471EFFF760FF6D
:10F530004743E288A188A8684A431218974201D33A
:10F54000890703D00720F8BD0E20F8BD698801297E
:10F5500026D031600C22144B51437060CA185060A1
:10F5600020685850A0881081E0885081FFF740FF44
:10F570000646FFF73DFFA188E288401E5143401830
:10F580003146FBF7E9FD0446FFF732FF0146A86864
:10F5900061430818A8606888401C68800020F8BD96
:10F5A0000420F8BD88280020082F0020F8B5044664
:10F5B00020481E46007915460F46400701D4082012
:10F5C000F8BD002F05D0002C03D02068002815D1ED
:10F5D00001E00E20F8BD1848016800290ED04289CC
:10F5E000018940684A4310186268904206D9002D8C
:10F5F00004D0A94202D3A819884201D90720F8BD36
:10F600003846FEF7DDFF002811D03046FEF7D8FF60
:10F6100000280CD06068FEF7D3FF002807D02B46E7
:10F620003A46214601200096FDF758FEF8BD10200D
:10F63000F8BD000088280020082F002010B51149CF
:10F6400002460878002811D004280FD0022A16D0CC
:10F65000032A0BD10A79120711D48A69521C8A61D4
:10F66000032A08D0022802D000F0F2F810BD487832
:10F6700000F046FA10BD0D20FCF7FCFF10BDFEF7B0
:10F680000BFD10BD88280020F8B5044620481E4612
:10F69000007915460F46400701D40820F8BD002F19
:10F6A00005D0002C03D02068002815D101E00E20E1
:10F6B000F8BD1848016800290ED0428901894068C8
:10F6C0004A4310186268904206D9002D04D0A9421E
:10F6D00002D3A819884201D90720F8BD3846FEF7A1
:10F6E0006FFF002811D03046FEF76AFF00280CD0CB
:10F6F0006068FEF765FF002807D02B463A46214692
:10F7000004200096FDF7EAFDF8BD1020F8BD0000CA
:10F7100088280020082F002070B501240B496004C0
:10F7200008600B4940108860094940398860094DDC
:10F730006C602F20FBF7CEFCAC60074D00242F201F
:10F740002C61FBF7C7FCEC7070BD000080E100E0AD
:10F750004013014000100140AC28002030B50A4899
:10F76000FF21C57D0022094C0931094B002D625053
:10F7700007D09969437EC268D154417E491C4176C5
:10F7800030BD986930BD0000202E002000200040D0
:10F79000002500401FB501236A461370107203480C
:10F7A000019106C8684690471FBD0000202E00202A
:10F7B00008B502490020009108BD00000028002083
:10F7C000FFB50746806A81B0144600283DD0002569
:10F7D00038462030009033E00C20B96A68430E1898
:10F7E000B088801CFE2802D90C2005B0F0BD22880C
:10F7F0000299401C885420881622401C80B2208028
:10F8000002990A542088401C80B220800299411835
:10F81000308800F0FDFA2188401880B22080B2883C
:10F82000002A0AD0B16800290FD0029BC018FBF74C
:10F83000A7FC2088B188401820806D1C0098EDB28C
:10F84000007BA842C8D80020CFE70720CDE7000002
:10F8500010B50F490028087009D0012811D00228DE
:10F8600012D0032802D14869FEF756FC10BD0020D3
:10F870008861C861074840780028F7D0FDF702FD8D
:10F8800010BD00F0F5F810BD00F054F810BD0000F8
:10F89000882800203C2E0020002803D00249C860A0
:10F8A000002070470E207047CC2800201CB503496B
:10F8B00001910091694660DF1CBD00000028002016
:10F8C00070B50E460546144614211046FBF771FC30
:10F8D0000120002120802161217326726572002D94
:10F8E00000D0A072002070BD10B5FCF78DFE10BDD9
:10F8F00070B5002901D08C0701D0072070BD064CDF
:10F900000125A16062800549636010DF0028F5D100
:10F91000257016202EDF70BDCC280020E9F80100EC
:10F92000002803D002490861002070470E2070476C
:10F93000CC280020F8B5164C14226068400840001E
:10F9400060601448017851430E183769FFF750FD85
:10F9500001463846FBF7EAFB05466061FFF748FDC4
:10F960000146F0887F1EC019FBF7E0FB02228542AA
:10F97000606801D1104300E090436060E16810408E
:10F98000084303D0002000F0BBF8F8BD0220FAE7DE
:10F99000882800203C2E002010B502484069FEF760
:10F9A000BBFB10BD8828002010B5FFF70FFD441EDB
:10F9B000FFF71EFD4443FFF71BFD04494A69521E31
:10F9C0005043CA682146FEF7ACFB10BD88280020D2
:10F9D000F8B510481422017851430C182569FFF737
:10F9E00007FD0146E088228980184019FBF79EFB3D
:10F9F0000F46FFF7EBFC461EFFF7FAFC4643E08894
:10FA00002289F1198018044A40191269FEF789FB0E
:10FA1000F8BD00003C2E00208828002070B5FFF7BC
:10FA2000E7FC0546FFF7D2FC441EFFF7E1FC60430C
:10FA30002946FBF77BFBFEF76FFB70BD70B5FFF748
:10FA4000D7FC8608FFF7D4FC0749496948430446B8
:10FA5000FFF7BCFC451EFFF7CBFC6843324621464E
:10FA6000FEF75FFB70BD0000882800200020704773
:10FA700070B514481422017851430C18241DFFF767
:10FA8000B7FC6188104E884211D2FFF7B1FC618843
:10FA90000D1AFFF7ADFC8208A188E06840182169C3
:10FAA00040194919FEF73DFBFFF7A2FC07E0A288C9
:10FAB000E06880188A082169FEF733FB6088F061EE
:10FAC00070BD00003C2E00208828002010B505489D
:10FAD0000079000703D4012000F012F810BD00F0F7
:10FAE00003F810BD8828002010B50448082241689A
:10FAF00091434160407800F003F810BD8828002051
:10FB000002494870024980000858004788280020B0
:10FB10007000020010B50446FFF790FD2046FCF788
:10FB200031FD2046FCF7EEFF10BD000010B5054882
:10FB30000079000702D4FDF793FB10BDFFF7D4FF57
:10FB400010BD000088280020FEB51F4C0025276945
:10FB5000E06802906846FEF76FFA0190FEF78CFDB0
:10FB600006460198002822D000230098E16817E09B
:10FB70000E680A46864202D9301A086012E0801BDD
:10FB8000F31800261660D668D169B446002E07D057
:10FB9000FE183602360A566066469660D5611546EE
:10FBA0000029E5D12846E160FEF7C4FD06E02846BD
:10FBB000FEF7C0FD002801D1002E02D00298FDF70B
:10FBC000D1FB00202071FEBDAC280020012002499D
:10FBD000000508607047000000E200E010B50E4B21
:10FBE000D968002906D002680C68A24204D8A21A7B
:10FBF0000A60C161D86010BD0B4604E00B46C969BC
:10FC0000121B002904D00C689442F7D3A41A0C608C
:10FC10000260C161D86110BDAC280020F8B51D4D4F
:10FC2000EC68002C34D01C48002740682969401A31
:10FC30000602360A2068B04218D8361AC71922467A
:10FC4000107CE46900280FD0002010746B69002B31
:10FC500007D0916950699847002805D0FCF7E2FC6D
:10FC600002E0516990698847002CE3D16978A8784F
:10FC7000814206D1401CC0B2A870022801D10020E8
:10FC8000A87004490006800D18310F50FFF79EFF41
:10FC9000F8BD0000AC28002000150140FF210748F6
:10FCA0001D31002242500648828A8168895C828A1E
:10FCB000521C82820348C16170470000002000404E
:10FCC000202E0020002500401FB500216A4611703B
:10FCD0001072044882680192817506C86846904790
:10FCE0001FBD0000202E0020F0B5454D012185B03C
:10FCF00049022846FFF7F5F901270026414C002864
:10FD000024D0FF2125312846FFF7E6F900281DD031
:10FD1000FF2025302E5081203B4980008860A07E46
:10FD2000002800D16F6002216846017037490868D9
:10FD300008600390E17D68460172E0680190E67515
:10FD4000267606CC6846083C90472BE004212846DE
:10FD5000FFF7C7F9002825D0FF2109312846FFF712
:10FD6000BBF900281ED0FFF7F9FCE07D617E8842D8
:10FD700018D1207E002808D0627EE168E0752069F5
:10FD8000E0602676667610460AE0A07E002800D164
:10FD90006F6081201C4980008860E675607EE168A4
:10FDA000FFF7F8FCFF211D312846FFF795F90028E1
:10FDB0000DD0A18AA07D814202D2FFF76FFF06E03D
:10FDC000FF211D316E50002801D0FFF77DFFFF217C
:10FDD00045312846FFF780F900280ED0FF20453036
:10FDE0002E50A07E002800D02F60E07D002804D097
:10FDF000E675607EE168FFF7CDFC05B0F0BD000060
:10FE000000200040202E00200023004080240040DD
:10FE10000870000A487002207047000001218140EC
:10FE2000024842688A434260704700003C28002034
:10FE300038B51549154A488890420FD04A78144C75
:10FE4000521CD2B24A70237B934208D3091D75DF3E
:10FE5000002803D0A169002900D0884738BD0025BB
:10FE60004D70217C002907D03B2176DF002803D08C
:10FE7000A169002900D0884761690029EED0684651
:10FE80000570884738BD000074280020FFFF00007F
:10FE9000CC2D002012494868C005C00D19D010387B
:10FEA00040B2002807DA0207120F083A92089200BF
:10FEB0005118C96904E081080A4A8900891809684B
:10FEC0008007C00EC1400806800F012803D0032818
:10FED00003D00220704700207047012070470000C7
:10FEE00000ED00E000E400E042788378521CD2B2DA
:10FEF000934200D100220378934201D10020704741
:10FF00000A70416840781822504308187047FFB5BE
:10FF100083B016460C9D0D9C1F460222009501944D
:10FF2000039800F00CF8002807D13B461022314618
:10FF300000950194039800F002F807B0F0BDFFB5FA
:10FF400083B0074600200C9C8646268805463AE08A
:10FF50007868A90042181188684681805188C1805C
:10FF60000022694601A865DF002839D1684601787A
:10FF70000598814226D17046002801D0002200E079
:10FF800002222088891842180D998A4227D8714682
:10FF900000290AD1401C80B22080069A049911548D
:10FFA0002088401C208001208646218806980A1857
:10FFB000694601A865DF002812D1694620880978C2
:10FFC000401820806D1C3888A842C1DC704600288B
:10FFD0000AD02088801B401E80B2FF2802D90C2046
:10FFE00007B0F0BD069988550020F9E7017900298E
:10FFF00002D1007B002800D00120704711000000D2
:020000040002F8
:1000000012000000000000000000000000000000DE
:100010000000000000509D000300000067ED01009B
:1000200065E3010081E2010021E4010063ED0100CC
:1000300035E301007DE2010019E401005FED0100FC
:1000400085E2010079E2010011E40100AC2D0020FD
:10005000110000001200000000000000000000007D
:10006000000000000000000000509D0003000000A0
:100070001DFA01003DFA010099F90100D1F90100D2
:10008000A9F90100CDFA01006DD6010019D60100D1
:100090002DFB010029E40100547269656420746F2E
:1000A00020646973636F6E6E656374206166746546
:1000B0007220424C455F434F4E4E5F504152414D7E
:1000C000535F4556545F4641494C45442062757420
:1000D0002074686572652077617320616E20657297
:1000E000726F72210D0A00004F6F6F70732E2E20F9
:1000F000536F6D657468696E672077656E742077DD
:10010000726F6E67207769746820726567697374AF
:100110006572696E672074686520706172616D65D3
:100120007465727320666F722074686520444D2E6A
:100130002E0D0A004F6F6F70732E2E20536F6D655A
:100140007468696E672077656E742077726F6E676A
:10015000207769746820696E697469616C69736974
:100160006E6720746865205053206D6F64756C65F0
:100170002E2E0D0A000000004F6F6F70732E2E2080
:10018000536F6D657468696E672069732077726F4D
:100190006E6720776974682073657474696E672070
:1001A000736F667464657669636520706172616DF2
:1001B00065746572732E2E0D0A0000004F6F6F700C
:1001C000732E2E20536F6D657468696E6720697396
:1001D0002077726F6E672077697468207365747416
:1001E000696E6720636F6E6E656374696F6E2070F1
:1001F0006172616D65746572732E2E0D0A000000C8
:100200002002020000280020E00000009EB901004A
:1002100000030200E0280020380E0000AEB9010003
:100220000000FFFF0D1801000F1801000A1801005F
:10023000FFFE2D121E4B0FA4994ECEB531F405458D
:10024000020000001E00000003000000000000008B
:1002500000000000000000000024F4000000000086
:10026000000000000000000000000000000000008E
:10027000000000000000000000000000FFFF000080
:10028000000000000000000000000000000000006E
:10029000000000000000000000000000000000005E
:1002A000000000000000000000000000000000004E
:1002B000000000000000000000000000000000003E
:1002C000000000000000000000000000000000002E
:1002D000000000000000000000000000000000001E
:1002E000000000000000000000000000000000000E
:1002F00000000000000000000000000000000000FE
:040000050001B0C185
:00000001FF
