:020000040001F9
:10B00000E8280020F5B001000FB1010011B10100E6
:10B010000000000000000000000000000000000030
:10B0200000000000000000000000000013B101005B
:10B03000000000000000000015B1010017B1010080
:10B0400019B1010019B10100EDB2010019B10100FF
:10B0500019B101000000000051B1010019B1010057
:10B0600019B1010019B1010019B1010019B10100B4
:10B0700019B1010019B1010019B1010019B10100A4
:10B0800019B1010019B1010019B1010019B1010094
:10B0900019B1010019B1010019B1010019B1010084
:10B0A00019B1010019B1010000000000000000000A
:10B0B0000000000000000000000000000000000090
:10B0C0000348854600F032F80048004759B40100B3
:10B0D000E8280020401E00BF00BF00BF00BF00BF27
:10B0E00000BF00BF00BF00BF00BF00BF00BFF1D165
:10B0F000704700000321094802680A4302600848BB
:10B1000002680A4302600748804707480047FEE795
:10B11000FEE7FEE7FEE7FEE7FEE70000240500404D
:10B12000540500404DB20100C1B00100064C01259C
:10B13000064E05E0E36807CC2B430C3C98471034DF
:10B14000B442F7D3FFF7C0FF68B8010088B8010028
:10B15000F8B50024FF25013501262746009428462E
:10B1600000F086FA002808D031484068304204D008
:10B17000304800212818344301602D1D76007F1CC3
:10B18000ADB2042FEBD3FF207D3000F071FA002820
:10B1900007D029480021016040070443274800697F
:10B1A0000090274E200712D00127002527420AD001
:10B1B0002448AA00111808690969C004C00E89034F
:10B1C000B258890F90477F006D1C042DEED3002CE0
:10B1D0001DDA3046203014214156491C17D0077D16
:10B1E000BC06A40E204600F0DFF880003558002D84
:10B1F0000DD0BE090121A140134AA00080180068AB
:10B20000009A8003800F114202D0022802D0F8BDBC
:10B210000328FCD1032E05D1022807D002212046A5
:10B2200000F016FA31462046A847F8BD0321F6E79C
:10B2300000630040006000407C6100400005005059
:10B24000AC200020006500400007005010B500F061
:10B25000B3F8002805D01F491D484860C8131E498F
:10B2600088611E48018CC9B201290BD1828C12075A
:10B2700008D1028D1206120F042A03D1828D120604
:10B28000120F0AD0012921D1818C09071ED1018D0D
:10B290000906090F0A2904D007E0114A012191602B
:10B2A000F5E7828D1206120F05D00D290ED1808D83
:10B2B0000006000F0AD10B480168012904D00A4991
:10B2C000016001680129FCD1C021416110BD00006D
:10B2D000DFFF07C000050040006C0040C00F00F019
:10B2E0000006004000EC06407593000010B500F029
:10B2F00027FA10BD02E008C8121F08C1002AFAD1BF
:10B3000070477047002001E001C1121F002AFBD1E5
:10B3100070470000BFF34F8F04490348C860BFF374
:10B320004F8F00BFFDE700000400FA0500ED00E0CC
:10B330000EB50021029000916A4601910148FFF785
:10B34000E9FF0000014000000022D24383000449CD
:10B350000428CA5002D30818203002747047000035
:10B36000AC200020F0B50025ED43002A02D00023D8
:10B37000042601E0042305260A4C04E09F00E75957
:10B380007F1C04D05B1CB342F8D32846F0BD5DB2ED
:10B39000261835759E00A151002AF6D1E1182031FA
:10B3A0000874F2E7AC20002002490918142008565E
:10B3B00070470000AC2000201048018CC9B2012960
:10B3C00017D1818C090714D1018D09060A0F03D109
:10B3D000828D1206120F0ED0090F012903D1828D22
:10B3E0001206120F07D0032903D1808D0006000F2B
:10B3F00001D000207047012070470000C00F00F00E
:10B40000F8B500200B4DFF27044602370090A60038
:10B41000A859694600F0B6F8002801D0FFF788FF68
:10B42000A8598100044808180760641C022CEED952
:10B43000F8BD0000802000200007005010B5054A2C
:10B4400080001058002902D000F094F810BD00F0E0
:10B45000E5F810BD8020002000F062F8002801D03F
:10B46000FFF766FFFFF7CCFF00210120FFF7E6FFA3
:10B4700000210220FFF7E2FFFF24F5340121002024
:10B48000FFF7DCFF204600F009F800210846FFF72F
:10B49000D5FF204600F002F8F0E7000031B5054C7A
:10B4A00004E0401E00902046FFF714FE009800289C
:10B4B000F7D138BDE70300008207D30EFF229A4080
:10B4C0008907090E10B59940002808DB8408104B45
:10B4D000A400E418236893430B4323600AE00307A6
:10B4E0001B0F083B9C080B4BA400E318DC6994433A
:10B4F0000C43DC61C206D20E01219140002801DB21
:10B50000054A1160002801DB0448016010BD0000FD
:10B5100000E400E000ED00E080E200E000E100E097
:10B5200070B5124D687D002801D0082070BD0F490C
:10B5300000202039421E0B18401CC0B21A7520286A
:10B54000F9D300242046FFF7FFFE641CE4B2052C6B
:10B55000F8D303210620FFF7AFFF01200449C007FD
:10B56000486001206875002070BD0000CC200020DC
:10B5700000630040012181400148C1607047000024
:10B5800000050050FEB5044620480D460019142160
:10B5900041560026491C01D0082633E0A97800292D
:10B5A0001DD0012200212046FFF7DCFE411C14D0F3
:10B5B000830017482A78181869780369154F3B40AB
:10B5C00003610369E706FF0C9207920BC907C90ADA
:10B5D0003B430A431343036104E0042612E00121C4
:10B5E000C94301756A780120A0400B49012A0BD09C
:10B5F000C860002100910B460122019120461146AE
:10B6000000F014F83046FEBD8860F2E7AC20002060
:10B6100000650040FFE0ECFF000500500121814083
:10B6200001488160704700000005005030B55200AD
:10B630000A439900039C0A432102049D0A432904FA
:10B640000A43024980004018026030BD00070050E4
:10B65000820006481018026803231B049A43026004
:10B66000026809040A4302607047000000070050A6
:10B67000034940180068012800D0002070470000EE
:10B68000006000404058002800D00120704703228D
:10B69000120280184068084000D001207047000066
:10B6A00030B50A48FF21C57D0022094C0931094BFC
:10B6B000002D625007D09969437EC268D154417E03
:10B6C000491C417630BD986930BD000090200020B3
:10B6D00000200040002500401FB501236A4613707A
:10B6E00010720348019106C8684690471FBD0000CC
:10B6F00090200020FF2107481D31002242500648BB
:10B70000828A8168895C828A521C82820348C16174
:10B7100070470000002000409020002000250040DD
:10B720001FB500216A4611701072044882680192A8
:10B73000817506C8684690471FBD00009020002014
:10B74000F0B5454D012185B049022846FFF79FFF1E
:10B7500001270026414C002824D0FF21253128460E
:10B76000FFF790FF00281DD0FF2025302E508120AC
:10B770003B4980008860A07E002800D16F600221D4
:10B78000684601703749086808600390E17D6846A3
:10B790000172E0680190E675267606CC6846083CA2
:10B7A00090472BE004212846FFF771FF002825D0A1
:10B7B000FF2109312846FFF765FF00281ED0FFF75B
:10B7C0006FFFE07D617E884218D1207E002808D07E
:10B7D000627EE168E0752069E06026766676104654
:10B7E0000AE0A07E002800D16F6081201C49800003
:10B7F0008860E675607EE168FFF76EFFFF211D310E
:10B800002846FFF73FFF00280DD0A18AA07D814286
:10B8100002D2FFF76FFF06E0FF211D316E500028B6
:10B8200001D0FFF77DFFFF2145312846FFF72AFFB2
:10B8300000280ED0FF2045302E50A07E002800D0DA
:10B840002F60E07D002804D0E675607EE168FFF798
:10B8500043FF05B0F0BD0000002000409020002014
:10B86000002300408024004088B801008020002090
:10B8700010000000F4B2010098B8010090200020F0
:10B880005808000004B30100020000001E00000080
:08B89000030000000024F40095
:040000050001B0C185
:00000001FF
