:020000040001F9
:10B00000D0320020F5B001000FB1010011B10100F4
:10B010000000000000000000000000000000000030
:10B0200000000000000000000000000013B101005B
:10B03000000000000000000015B1010017B1010080
:10B0400019B1010019B1010001B9010019B10100E4
:10B0500019B1010000000000D9B6010019B10100CA
:10B0600019B1010019B1010019B1010019B10100B4
:10B0700019B1010019B1010019B1010019B10100A4
:10B0800019B1010019B8010019B1010019B101008D
:10B0900039B8010019B1010041B8010019B101002E
:10B0A00019B1010019B1010000000000000000000A
:10B0B0000000000000000000000000000000000090
:10B0C0000348854600F062FA0048004731CD010090
:10B0D000D0320020401E00BF00BF00BF00BF00BF35
:10B0E00000BF00BF00BF00BF00BF00BF00BFF1D165
:10B0F000704700000321094802680A4302600848BB
:10B1000002680A4302600748804707480047FEE795
:10B11000FEE7FEE7FEE7FEE7FEE70000240500404D
:10B120005405004061B80100C1B0010003460B4363
:10B130009B0703D009E008C9121F08C0042AFAD2ED
:10B1400003E00B780370401C491C521EF9D2704773
:10B15000D2B201E00270401C491EFBD270470022AF
:10B16000F6E710B513460A4604461946FFF7F0FF06
:10B17000204610BD30B50B46014600202022012498
:10B1800009E00D46D5409D4205D31D469540491B1B
:10B190002546954040191546521E002DF1DC30BD64
:10B1A000F0B51FB40646002082B005464024019148
:10B1B00000901BE0019922460F46304600F008FA45
:10B1C000049A059B801A994110D3104619462246CD
:10B1D00000F0EEF9361A8F41019722460120002136
:10B1E000009F00F0E5F938184D4100902046641E9C
:10B1F0000028DFDC019B00982946324607B0F0BDED
:10B20000F0B507460846584087B0C00F0490480084
:10B210000E46590040084908BC1A884105D23846F4
:10B2200031461E4617460B4602465800400810435A
:10B230004CD0300D039040055900400D490D05904C
:10B24000401A0290402872DA18030121000B090508
:10B250000843019004980092002805D001995242B9
:10B260000020884100920190029840210A1A019919
:10B27000009800F09DF905460C466B4607CB00F0A0
:10B28000B8F9C0197141039A0E0D0023D717564023
:10B290001A467A40164344D0049A002A2DD0029AC6
:10B2A000012A039A15DC1205C01A914101263605C0
:10B2B000001C7141D20F059ED207009301920296A5
:10B2C0002A46234600F0B5F907B0F0BD38463146AE
:10B2D000FAE71605224A0F46B218C01AB7410121F3
:10B2E0000905001C4F4100187F411146181879418B
:10B2F000E20F10436D19644113E0E2076D08154336
:10B300006408C2071443039A01261205C01A91412A
:10B310003605001C7141CE07400830434908C0186B
:10B3200051412A46234600F077F9CDE7FFE704981C
:10B3300001224000C117121A00238B4104983146A4
:10B34000C417381AA141EEE730B40124E407634082
:10B3500030BC55E730B40124E407614030BC4FE70E
:10B360000000E0FFF0B51FB488B00B9909980024E5
:10B3700048400999C00F490049080991C0070B9935
:10B380000090490049080B9109990898A64608437E
:10B390001CD00B990A98084318D009980124400042
:10B3A000420D4800410D099824050003000B20437D
:10B3B00009900B980003000B20430B9050181C4978
:10B3C0004018002201901446104605E00020014676
:10B3D0000DB0F0BD032801DA034600E003239C46CC
:10B3E000C11A0AAE0AE05F0008ADED5B4F00F75BE3
:10B3F0007D430027AA187C41491C5B1E6145F2DD94
:10B40000410004AB5A522104120C0A43240C401C84
:10B410000828DFDB019802900099704601910090A6
:10B42000059B049A0799069800F003F9D0E70000FD
:10B430000DFCFFFFF0B50C465C4085B0E40FE4075F
:10B4400003944C00002664085900944649080246BB
:10B450000296224321D062460A431ED06200570D55
:10B460004A000E032303550D012402462C492405EE
:10B47000781B1B0B360B4018234326436146009074
:10B480001C46501AB44103D30098401C009002E0BF
:10B49000921800985B41002803DA0020014605B0AD
:10B4A000F0BD0020012109050746864611E06446EB
:10B4B0001D46141BB54106D36546521BB341744665
:10B4C00007430C43A646CD07400849082843921875
:10B4D0005B4105460D43EAD11046184313D0604640
:10B4E000194650407140084306D06046101AB341D7
:10B4F00006D20122002306E000220123DB0702E03E
:10B500000122D2435310009874460105381C614152
:10B51000029C039D0019694100F07EF8BFE700001E
:10B52000FD0300004A0009030123090B1B05194311
:10B530000A4B10B5520D9A4202DA0020014610BDA6
:10B54000064B34339A4203DC9A1A00F041F810BDDE
:10B55000034BD21800F02CF810BD0000FF030000D0
:10B56000CDFBFFFF10B5002904DB0124E4074042B6
:10B570008C412146002B04DB1C460123DB07524291
:10B58000A341994200D1904210BD0000064C012514
:10B59000064E05E0E36807CC2B430C3C984710347B
:10B5A000B442F7D3FFF790FD2CD901004CD901002C
:10B5B00010B5202A04DB0146203A9140002010BD3E
:10B5C000914020239C1A0346E3401943904010BD4C
:10B5D00010B5202A04DB0846203AD040002110BDD7
:10B5E0000B46D340D0402024A21A9140084319466C
:10B5F00010BD10B5202A06DBCB170846203A1041B3
:10B60000C1170B4306E00B461341D0402024A21A79
:10B6100091400843194610BD10B5002B08DA0024EC
:10B62000401C614192185B411A4301D1400840001F
:10B6300010BDF0B51FB482B005460C0003D008461B
:10B6400000F074F902E000F071F920300246009039
:10B6500021462846FFF7ACFF049B059A04460F4697
:10B6600018431143084314D0184610431BD00098C8
:10B6700040210A1A18460599FFF7AAFF05460E460B
:10B68000009A05990498FFF793FF084305D001201D
:10B6900004E02046394607B0F0BD0020C11705433D
:10B6A0000E432C43374300990E986305401A7905E1
:10B6B000E40A00220C43FD0A0A3002D500200146AC
:10B6C000E9E70105101969410C9C0D9D00196941BC
:10B6D000FFF7A2FFDFE70000F8B50024FF250135E2
:10B6E000012627460094284601F016FE002808D0BF
:10B6F00031484068304204D0304800212818344393
:10B7000001602D1D76007F1CADB2042FEBD3FF200E
:10B710007D3001F001FE002807D02948002101609A
:10B7200040070443274800690090274E200712D0A5
:10B730000127002527420AD02448AA0011180869C9
:10B740000969C004C00E8903B258890F90477F0071
:10B750006D1C042DEED3002C1DDA30462030142150
:10B760004156491C17D0077DBC06A40E204601F0A7
:10B770007DF880003558002D0DD0BE090121A14073
:10B78000134AA00080180068009A8003800F1142BD
:10B7900002D0022802D0F8BD0328FCD1032E05D127
:10B7A000022807D00221204601F0A6FD314620469E
:10B7B000A847F8BD0321F6E70063004000600040A1
:10B7C0007C610040000500507C2A0020006500409C
:10B7D000000700508307FF22DB0E9A408907090EFD
:10B7E000994000280BDA0007000F08388308084842
:10B7F0009B001818C36993430B43C36170478308C8
:10B8000004489B001B181868904308431860704751
:10B8100000ED00E000E400E010B5064900200860FB
:10B8200048608860C860034940390860486001F09A
:10B83000CBFE10BD4011014010B501F05BFE10BD04
:10B8400010B506484068002805D08047002801D080
:10B8500000F08CFE10BD01F0EDF810BD4028002076
:10B8600010B501F023F9002805D01F491D48486094
:10B87000C8131E4988611E48018CC9B201290BD129
:10B88000828C120708D1028D1206120F042A03D1EE
:10B89000828D1206120F0AD0012921D1818C09074D
:10B8A0001ED1018D0906090F0A2904D007E0114AAB
:10B8B00001219160F5E7828D1206120F05D00D2946
:10B8C0000ED1808D0006000F0AD10B4801680129B6
:10B8D00004D00A49016001680129FCD1C0214161FD
:10B8E00010BD0000DFFF07C000050040006C0040F5
:10B8F000C00F00F00006004000EC06407593000009
:10B9000010B501F0C7FE10BD7CB51C461546491E9A
:10B9100001910090044B6A462146284600F0D8F871
:10B92000009A002111707CBD09C201002021020C87
:10B9300001D010211046020A01D010460839020930
:10B9400001D01046091F820801D01046891E420806
:10B9500001D0881E7047081A704702E008C8121FFD
:10B9600008C1002AFAD170477047002001E001C1E8
:10B97000121F002AFBD17047F0B51FB484B007989E
:10B980000699020D014314D04A484B491018484308
:10B9900005140F9801280E981CD0281A401C00246A
:10B9A000464E4749009401910290002814DA47421C
:10B9B00027E00F98012443A3012808D00021049810
:10B9C0000F9A84600360C260416009B0F0BD0E98B8
:10B9D000C143F4E74042E2E7074612E0F80707D028
:10B9E0002246334601990098FFF7BCFC0191009074
:10B9F0002246334610461946FFF7B4FC04460E466D
:10BA00007F10002FEAD10298019B0028009A079925
:10BA1000069802DAFFF7A6FC01E0FFF70BFD0446EB
:10BA20000E460022284BFFF79DFD03D80020C0439F
:10BA3000014607E00022254B20463146FFF7E0FB98
:10BA4000FFF770FD102409E0002C0ADB0A22002316
:10BA5000FFF7A6FB059B30321A55641E02460A43C7
:10BA6000F2D11122641C059B121B1C190F9B012B88
:10BA700003D0012308430ED10AE0084304D011206B
:10BA80000E9000200F9084E70E98151A6D1E0BE0A3
:10BA90000E98824202DD00236D1C03E0824201DA2F
:10BAA00000236D1E002BEED004980F998260C160B8
:10BAB00030C08AE701FCFFFF104D00000000244069
:10BAC0000000F03F300000000000F0430000E03FC5
:10BAD000FFB597B00646002518E2252877D1002447
:10BAE0002746FD49049400E00443761C3278012087
:10BAF000203A90400842F7D130782A280ED002220E
:10BB0000307801463039092916D804990A23594357
:10BB1000303940181443761C0490F1E7189802C895
:10BB200004911890002904DA01204003044348429C
:10BB3000049002200443761C30782E2814D104206F
:10BB400004437078761C2A2809D11898761C80C87E
:10BB5000189009E00A214F43303FC719761C30780E
:10BB6000014630390929F5D930786C2810D006DC27
:10BB70004C281AD068280ED06A2817D104E07428FF
:10BB800013D07A2812D110E00120400504430CE0C4
:10BB90000121090501E0032109050C437178814267
:10BBA00003D1012000052418761C761C30781190F2
:10BBB00066280BD013DC58287DD009DC00287BD008
:10BBC0004528F6D04628F4D047281AD1A5E118E038
:10BBD000632835D0642870D0652812D19DE1702883
:10BBE0006CD008DC6728F1D069287BD06E280DD096
:10BBF0006F2806D1BAE073282ED0752871D0782826
:10BC000059D01A9A199990476D1C7EE16002400F35
:10BC1000022809D003280DD00428189801680DD0F7
:10BC20000D60001D189070E11898EA1701680D600A
:10BC30004A60F6E7189801680D80F2E70D70F0E7AA
:10BC400018986A4601781172001D189000205072F1
:10BC500002A80090012005E0189802C81890002062
:10BC60000091C04361070DD5002101E00199491CF5
:10BC70000191B94212DA8142F8DB009A515C002945
:10BC8000F4D10BE0002101E00199491C01918142AE
:10BC9000FADB019A0099895C0029F5D10199049891
:10BCA0001A9B471A21463846199A00F097FA0199CB
:10BCB000401945180BE04FE02CE113E04EE00098EE
:10BCC00000990078491C00911A9A19999047019897
:10BCD000401E0190401CF2D1214638461A9B199A09
:10BCE00010E137E00A200021009001916002410F2D
:10BCF000022907D0189A01CA1892C217944603293C
:10BD000008D00AE01898C01DC108C90005C91891DB
:10BD1000944607E000B2C2179446042902D140B20B
:10BD2000C1178C4600226146944506DA0A46002176
:10BD3000404291418C462D2102E0210504D52B2162
:10BD40006A461173012103E0E10701D02021F7E7E2
:10BD5000029155E00A200AE0102008E0102000902F
:10BD60000021042004430191082703E0082000215A
:10BD7000019100906002410F022907D0189A01CA70
:10BD8000189200229446032908D008E01898C01D94
:10BD9000C108C90005C91891944603E080B204297E
:10BDA00000D1C0B200210291210729D51199702933
:10BDB00006D0009A1021019B4A401A4305D00EE09C
:10BDC00040216A461173012108E06146014306D013
:10BDD00030216A4611731199517302210291009A20
:10BDE0000821019B4A401A430AD16146014301D10F
:10BDF000610705D530216A46117301217F1E02912A
:10BE00001199582904D035A10E910DA90D910DE07D
:10BE100037A1F9E76146019B009AFFF7C1F90E9B34
:10BE20008C469B5C0D9A521E0D9213706146014325
:10BE3000F0D10D9805A9081A20300190600703D5AC
:10BE400001200004844300E001270198874201DDBE
:10BE5000381A00E000200199009041180298091852
:10BE60000498401A0490E00306D421461A9B199ABC
:10BE7000049800F0B3F94519002706E003A81A9AC0
:10BE8000C05D199990476D1C7F1C02988742F5DBB5
:10BE9000E0030CD521461A9B199A049800F09EF9EC
:10BEA000451904E01A9A3020199990476D1C0099A1
:10BEB000481E00900029F5DC08E00D980D990078E7
:10BEC000491C0D911A9A199990476D1C0199481EA9
:10BED00001900029F1DC63E109280100303132339F
:10BEE00034353637383961626364656600000000B6
:10BEF00030313233343536373839414243444546A0
:10BF00000000000000F05AF94519761C307800282E
:10BF100000D0E2E528461BB0F0BD600700D406273C
:10BF20001898C01DC108C90048680A680831C30FC5
:10BF3000DB071891190001D09CA108E0210501D56B
:10BF40009BA104E0E10701D09AA100E09AA143007F
:10BF500011985B08109165280CD006DC452809D0A3
:10BF600046281DD0472841D141E0662818D06728CF
:10BF70003CD13CE00021112F01DB112000E0781CB6
:10BF80000191009008A911A8FFF7F6FC13990591FB
:10BF90000021119A15927F1C12980197009150E090
:10BFA0000120C00703900120019008A9009711A863
:10BFB000FFF7E2FC139A149905920022119B00925C
:10BFC00012981593059A0192002901D0104602E0BB
:10BFD000791C40180190381A01D5019804E04042BC
:10BFE000401E0090781C0190C01B029043E0012F7E
:10BFF00000DA01270021112F01DD112000E0384671
:10C000000191009008A911A8FFF7B6FC13990591BA
:10C01000119A0021129815920091019721070CD4D2
:10C020000599B94201DB019900E00191012904DD84
:10C03000159A491E515C302906D0B84201DA011D1B
:10C0400005DA0121029115E00199491EEDE700286A
:10C0500005DC0099411800910199091A03E0019A41
:10C06000411C914200DD01910099401A401C029050
:10C070000120C0070390200706D40299019881424D
:10C0800002DB0020C043029000206946C87707AF5A
:10C09000012103980337C907884224D00220119058
:10C0A0002B201290039800280CDA404203902D2098
:10C0B000129007E00A210398FFF75CF830317F1EE9
:10C0C000039039701199481E11900029F2DC0398F1
:10C0D0000028EFD1791E129808703078202108408E
:10C0E0004530BF1E387006A8C01BC01D03901098B5
:10C0F0000078002800D00120019941180298C0174B
:10C100000918039809180498401A401E0490E00387
:10C1100006D421461A9B199A049800F05FF8451935
:10C1200010980078002803D01A9A199990476D1C2E
:10C13000E00324D521461A9B199A049800F04EF882
:10C1400045191CE00098002807DB009905988842F3
:10C1500003DD1598405C199901E0199930201A9A6D
:10C16000904700986D1C401C00900298401E029061
:10C17000002804D11A9A2E20199990476D1C019914
:10C18000481E01900029DDDC05E038781A9A7F1CF2
:10C19000199990476D1C0399481E03900029F4DCFF
:10C1A00021461A9B199A0498ACE600002D00000065
:10C1B0002B0000002000000000000000F8B504463D
:10C1C00000251E461746880404D405E03946202081
:10C1D000B0476D1C641EF9D52846F8BDFFB504466E
:10C1E000002581B01E46C80301D5302700E0202776
:10C1F000880404D505E038460399B0476D1C641ED9
:10C20000F9D5284605B0F0BD4A68002A06D00A686C
:10C21000531C0B6010704868401E48607047F7B5AB
:10C2200084B00025168807461580406B1446002808
:10C2300013D003780598032E51D302210170218871
:10C240001122491C89B2218042542188491C89B29B
:10C25000218043542088401C2080386B00281DD04A
:10C2600005462088059902461232B24237D811227B
:10C270000A5420881022401C80B220800A54208852
:10C28000401C20800F202A5C2388401ECA5422882C
:10C2900040B2521C22800028F5DA002538462030B2
:10C2A0000290807B002806D033462246059900F094
:10C2B00021FC050014D10298407B002806D03246AC
:10C2C0002146059800F0DAF9050009D1B878002870
:10C2D00023D0059886462088001DB04202D90C2044
:10C2E00007B0F0BD684679DF0028F9D12188032026
:10C2F0007246505420881921401C80B2208011546D
:10C3000020887146401C80B2208041186846008811
:10C3100001F054FA218840182080F878002817D0BE
:10C32000218803230A46FB56C91C0598B142D6D87A
:10C330000221815421880122491C89B22180425462
:10C340002188491C89B2218043542088401C2080C8
:10C350007868002817D021880023C3560A46C91CD4
:10C360000598B142BBD80221815421880A22491C78
:10C3700089B2218042542188491C89B221804354CA
:10C380002088401C2080388900280AD00094384634
:10C390000196062202210830059B01F014FA0500DF
:10C3A0009ED1388A00280AD0009438460196072288
:10C3B00003211030059B01F006FA050090D1388B5F
:10C3C00000280AD00094384601961522142118300E
:10C3D000059B01F0F8F9050082D1386A002806D0E3
:10C3E00033462246059900F09DFA0500D8D1786AB7
:10C3F000002806D033462246059900F05DFD050071
:10C40000CED10298007B002807D03346224638461A
:10C41000059900F0EDFF0500C2D13878002807D05B
:10C42000334622463846059900F07AFD0500B7D11B
:10C43000284655E730B5204895B0006813901F484E
:10C4400004900E21684681811D490180049903985A
:10C45000029101900624382105A8FEF780FE0025F0
:10C4600068460575C4750121818413A80A90684641
:10C470000F9010A80170294605A800F0CBF8040021
:10C4800016D010A000F0A2FA204600F06FF8182194
:10C490001C48FEF764FE1CA000F098FA194803211E
:10C4A000017045600572A0210182458215B030BD42
:10C4B00021A000F08BFAEAE7A4D8010000280020B0
:10C4C000AAFE00004F6F6F70732E2E20536F6D65A4
:10C4D0007468696E672069732077726F6E67207762
:10C4E0006974682073657474696E67206164766529
:10C4F00072746973696E6720646174612E2E0D0A0F
:10C5000000000000642A0020496E697469616C694A
:10C5100073696E6720616C6C206164766572746902
:10C5200073696E6720706172616D65746572732ED8
:10C530002E2E0D0A00000000416476657274697346
:10C54000696E67206461746120736574210D0A004F
:10C55000BFF34F8F04490348C860BFF34F8F00BF3C
:10C56000FDE700000400FA0500ED00E00EB5002133
:10C57000029000916A4601910148FFF7E9FF00002F
:10C5800001400000FFB59007002581B014460E461B
:10C59000002832D11B4F002C31D000F0D5FE04987A
:10C5A00078610320387033461821224600204B431F
:10C5B000BC601834C10089180D704D708E704C60CD
:10C5C0001C19401C0328F5DBFD607D7001240E481A
:10C5D000BD702405046003211420FFF7FBF80B480D
:10C5E00004600B4C0198A06003211120FFF7F2F8C2
:10C5F00060683861002005B0F0BD0720FBE7BD6032
:10C60000FBE700002028002080E200E000E100E0DD
:10C6100000150140F0B50C4693B01F216A46118009
:10C62000072600279180002809D0C17849070DD539
:10C6300002A9FFF7F4FD002809D102AD01E00025B1
:10C640001780002C0ED0E078002802D0304613B0BE
:10C65000F0BD01AA0AA92046FFF7E1FD0028F6D1A6
:10C660000AAA02E068460022878068468088C3B232
:10C6700068460088C1B2284672DFE8E77CB5054607
:10C6800008880C460930904201D90C207CBD6846D0
:10C6900071DF0028FAD121880820685420881B21E6
:10C6A000401C80B220802954208800A9401C80B200
:10C6B0002080401906220131FEF738FD20886946A6
:10C6C000801D80B220800978002900D001212954E2
:10C6D0002088401C208000207CBD000010B586B062
:10C6E000002348221949082000F0ECFE002801D060
:10C6F000FFF73CFF16A000F069F900216A460846E2
:10C7000000F0C8FE040019D0194800F05FF9204677
:10C71000FFF72CFF174800F063FE002801D0FFF759
:10C7200025FF684600F0ACFE04000BD012A000F01C
:10C730004DF92046FFF71AFF06B010BD1CA000F00F
:10C7400045F9E7E728A000F041F9F5E75428002073
:10C75000536F66746465766963656420696E697495
:10C7600069616C697365642E2E200D0A000000005B
:10C77000E8D80100D81600204F6F6F70732E2E205E
:10C78000536F6D657468696E672069732077726F87
:10C790006E67207769746820656E61626C696E6788
:10C7A00020736F66746465766963652E2E0D0A00CA
:10C7B000536F667464657669636520636F6E66693E
:10C7C00067757265642077697468206C696E6B7335
:10C7D00020616E6420626C6520706172616D6574A9
:10C7E000657273210D0A0000536F66746465766983
:10C7F000636520656E61626C656420737563636553
:10C80000737366756C6C79210D0A00000022D243A7
:10C81000830004490428CA5002D308182030027447
:10C82000704700007C2A0020F0B50025ED43002A67
:10C8300002D00023042601E0042305260A4C04E06C
:10C840009F00E7597F1C04D05B1CB342F8D32846F5
:10C85000F0BD5DB2261835759E00A151002AF6D1B3
:10C86000E11820310874F2E77C2A002002490918F7
:10C8700014200856704700007C2A0020F8B5234891
:10C88000C16800293ED00E6821494C680769C0780C
:10C89000E11B0D022D0AED1C002814D101201D4AB8
:10C8A000000450601B4A403A50601B494000086039
:10C8B0001A4908601A49012008602F20FEF70AFC77
:10C8C00012490120C870B54200D23546E81900026D
:10C8D0000F4B000A403318600D4A5168001B091BBA
:10C8E0000902090A0002000AC91C814209D95068DC
:10C8F00018602F20FEF7EEFB012007494004803925
:10C900000860F8BD00F020FDF8BD000020280020E0
:10C91000001501404013014080E200E000E100E02A
:10C9200000100140F8B50646108814468446801D64
:10C930000D46984201D90C20F8BD32880720062AFE
:10C94000FAD31927FF01184BBA4201D99A42F3D101
:10C9500071880629F0D3B94201D99942ECD19A42A3
:10C9600003D0994201D08A42E6D805216046295475
:10C9700020881221401C80B2208029542088401C2D
:10C9800080B220804119308800F018FF21884018BB
:10C9900080B220804119708800F010FF2188401873
:10C9A00020800020F8BD0000FFFF000000B589B026
:10C9B000202205496846FEF7B9FB0021684600F0D1
:10C9C000B5FB09B000BD0000A8D801000FB400B548
:10C9D000C1B0FF2143AB01316846429AFEF794FF94
:10C9E000002803D0C1B2684600F004FC41B008BC86
:10C9F00004B0184710B50E4900234A788C78A2423B
:10CA000012D0521CD2B24A70022A00D14B704A781E
:10CA1000074B920018339A580260086910180002F8
:10CA2000000A0861012010BD0360002010BD000055
:10CA300020280020F8B51C4C2078002833D020692D
:10CA4000002807D00026E068002805D00025002E29
:10CA500004D011E00126F6E70125F8E7684652DF29
:10CA6000052804D0002804D0FFF780FD04E001264B
:10CA700002E0216900988847002D10D1608869463E
:10CA80000880A06861DF052804D0002804D0FFF7E3
:10CA90006DFD04E0012502E0E168A0688847002EF2
:10CAA000DCD0002DD3D0F8BD402800201048018CE8
:10CAB000C9B2012917D1818C090714D1018D09064A
:10CAC0000A0F03D1828D1206120F0ED0090F012911
:10CAD00003D1828D1206120F07D0032903D1808D56
:10CAE0000006000F01D000207047012070470000B1
:10CAF000C00F00F030B51588EC1C9C4201D90C2009
:10CB000030BD02244C5513881C255B1C9BB213803E
:10CB1000CD5413885B1C9BB21380012807D00228D8
:10CB200007D0032807D0042807D0072030BD0020F5
:10CB300004E0012002E0CC5401E00320C854108836
:10CB4000401C1080002030BDF8B500200B4DFF27A1
:10CB5000044602370090A600A859694600F092FAF0
:10CB6000002801D0FFF702FDA859810004480818E9
:10CB70000760641C022CEED9F8BD000010280020CC
:10CB80000007005010B5054A80001058002902D057
:10CB900000F070FA10BD00F0C1FA10BD102800209E
:10CBA000F8B52C49C8680A690C780F7989688646F7
:10CBB000944600913EE00099E20055182A7836E04C
:10CBC000182353436968521CC918AB78D2B29342F8
:10CBD00000D100220B78022B02D0032B27D123E0B7
:10CBE0004E680346014603E0B14204D00B46C969D2
:10CBF00000291CD0F8E7002919D08B4208D1C06960
:10CC0000002805D1144F0126BE600026B446012736
:10CC10000E68C969D961002909D00B689B190B609E
:10CC200005E00174C06900E000210028F9D16978AD
:10CC30009142C5D12146641EE4B20029BBD1054909
:10CC400062460A61C8600F71704501D00120F8BDCD
:10CC50000020F8BD2028002000100140F8B504464F
:10CC600031480026C168009107784EE02E48F9004F
:10CC700080680D1843E0002C02D02046E4691FE0D4
:10CC80002878182141436A68401CC0B251182870A6
:10CC9000AA78904200D12E700A784868012A30D1D3
:10CCA000027C002A2DD18A684260CA6882600A69C3
:10CCB000C260496981611C490979002900D0466038
:10CCC000194943680A699C46991A0902174B090ACF
:10CCD000994202D28268891807E06146511A090216
:10CCE0008268090A8A4202D9511A016000E006608E
:10CCF0004660012186600174C66100F045FC002C8D
:10CD0000B9D1287869788842BAD138467F1EFFB2F7
:10CD10000028ABD10448C1680098814201D00120AD
:10CD2000F8BD0020F8BD000020280020FFFF7F0094
:10CD3000FFF73CFE24A0FFF749FE00F071F9040064
:10CD40003AD02BA0FFF742FE2046FFF70FFCFFF77B
:10CD5000FBFE2FA0FFF73AFE0023364A05211846B6
:10CD6000FFF710FC002801D0FFF700FC32A0FFF70E
:10CD70002DFEFFF7B3FCFFF75DFB364873DF0400C1
:10CD80001ED035A0FFF722FE2046FFF7EFFB012162
:10CD90000020FFF7F7FE00210120FFF7F3FE00213E
:10CDA0000220FFF7EFFE34A0FFF710FE48DF002857
:10CDB000FCD0FFF7DBFBF9E732A0FFF707FEC6E781
:10CDC00036A0FFF703FEE2E7446562756720706FE7
:10CDD0007274206F70656E65642E2E2E20496E6908
:10CDE0007469616C6973696E672E2E2E0D0A0000DE
:10CDF0004F6F6F70732E2E20536F6D657468696E60
:10CE0000672069732077726F6E672E2E0D0A0000FF
:10CE100056697375616C20666565646261636B2039
:10CE200073686F756C6420626520616374697665F0
:10CE3000210D0A009C2800204170702074696D65E6
:10CE40007220696E697469616C697365642E2E2045
:10CE50000D0A0000642A00204F6F6F70732E2E2081
:10CE6000536F6D657468696E672069732077726FA0
:10CE70006E672E2E0D0A000052656164792E2E20F9
:10CE80000D0A00004750494F544520696E69746986
:10CE9000616C69736564210D0A0000004164766568
:10CEA00072746973656D656E7473207374617274E6
:10CEB000656421210D0A000070B5144682880E4673
:10CEC00005462088111D4118921C994201D8FE2A5E
:10CED00001D90C2070BD521C32542088FF21401C07
:10CEE00080B2208031542088401C80B2208081197B
:10CEF000288800F063FC2188401880B22080AA882E
:10CF0000002A09D0A968002908D08019FEF70EF977
:10CF10002088A98840182080002070BD072070BD9F
:10CF2000F8B50F46017814460546012902D1687804
:10CF3000002806D02088821C9A422DD8012902D0D0
:10CF400006E00720F8BD69784118891C994223D86A
:10CF5000181A801E86B2684606802188B81C0818F8
:10CF600069467DDF0028EDD12878022805D1694681
:10CF70000988B14201D809210AE00821012805D118
:10CF80006878B04202D86A46108001E068460680A0
:10CF900068460088FE2801D90C20F8BD2288401C74
:10CFA000B8542088401C80B22080395420886946BB
:10CFB000401C20800988401820800020F8BD000017
:10CFC0008207D30EFF229A408907090E10B59940B7
:10CFD00000280BDA03071B0F083B9C080C4BA4002E
:10CFE000E318DC6994430C43DC6107E08408094BD7
:10CFF000A400E418236893430B432360C106C90EC1
:10D0000001208840044908600449086010BD000000
:10D0100000ED00E000E400E080E200E000E100E07C
:10D0200070B5124D687D002801D0082070BD0F49F1
:10D0300000202039421E0B18401CC0B21A7520284F
:10D04000F9D300242046FFF7E1FB641CE4B2052C71
:10D05000F8D303210620FFF7B3FF01200449C007DE
:10D06000486001206875002070BD00009C2A0020E7
:10D0700000630040012181400148C1607047000009
:10D0800000050050FEB5044620480D460019142145
:10D0900041560026491C01D0082633E0A978002912
:10D0A0001DD0012200212046FFF7BEFB411C14D0F9
:10D0B000830017482A78181869780369154F3B4090
:10D0C00003610369E706FF0C9207920BC907C90ABF
:10D0D0003B430A431343036104E0042612E00121A9
:10D0E000C94301756A780120A0400B49012A0BD081
:10D0F000C860002100910B46012201912046114693
:10D1000000F0C2F83046FEBD8860F2E77C2A0020BD
:10D1100000650040FFE0ECFF000500500121814068
:10D12000014881607047000000050050F3B52A4CAB
:10D130000746E07E81B0002801D00820FEBD002F08
:10D1400000D1264F386800F0CCF8387801263146F7
:10D150008140234881600021786800F0B9F8214DB2
:10D16000B8696862787D397D0843E86603CFE86076
:10D170006961387B083F01280FD10021B86800F0B1
:10D18000A7F8F86800F0ADF8387B314681401448C4
:10D190008160F968B868A96028610298606039699F
:10D1A000216000280ED0FF230F481D33397F002255
:10D1B000C250FF234533C2500D4A0C485060022034
:10D1C000FFF7FEFE042028600020E0752076A075A1
:10D1D000E676A076FEBD0000B42A0020C8D8010083
:10D1E00000050050002500400020004080000200A3
:10D1F0000023004010B5064A937D002B01D011207A
:10D2000010BD917590600020908200F003F810BD71
:10D21000B42A0020F8B50026194FFF251D357E5190
:10D220000120B86000F010FA164C6168002910D097
:10D2300022E0FF2701372946114800F077F800283F
:10D2400002D1A08AB842F6D1A08AB84201D000F03B
:10D25000FBF9A08AA17D8842EBD3A18AC81FF938C7
:10D260000CD0074F2946384600F060F80028F9D066
:10D270000120F8600020A0753046F8BD0F26F9E7C0
:10D2800000200040B42A002030B552000A43990023
:10D29000039C0A432102049D0A4329040A430249CC
:10D2A00080004018026030BD0007005030B55200C9
:10D2B0000A439900039C0A432102049D0A4329045E
:10D2C0000A43024980004018026030BD0007005048
:10D2D0001CB500220B46009211460192FFF7E6FFB3
:10D2E0001CBD1CB5002100910B4601220191114685
:10D2F000FFF7DCFF1CBD0000820006481018026822
:10D3000003231B049A430260026809040A43026073
:10D3100070470000000700500349401800680128CA
:10D3200000D00020704700000060004040580028F6
:10D3300000D0012070470322120280184068084084
:10D3400000D001207047000070B501240B49600433
:10D3500008600B4940108860094940398860094DD0
:10D360006C602F20FDF7B6FEAC60074D00242F2027
:10D370002C61FDF7AFFEEC7070BD000080E100E0B5
:10D3800040130140001001402028002030B50A4819
:10D39000FF21C57D0022094C0931094B002D625047
:10D3A00007D09969437EC268D154417E491C4176B9
:10D3B00030BD986930BD0000B42A00200020004034
:10D3C000002500401FB501236A4613701072034800
:10D3D000019106C8684690471FBD0000B42A00208E
:10D3E00008B502490020009108BD00000028002077
:10D3F000FFB50746806A81B0144600283DD000255D
:10D4000038462030009033E00C20B96A68430E188B
:10D41000B088801CFE2802D90C2005B0F0BD2288FF
:10D420000299401C885420881622401C80B220801B
:10D4300002990A542088401C80B220800299411829
:10D44000308800F0BBF92188401880B22080B28873
:10D45000002A0AD0B16800290FD0029BC018FDF73E
:10D4600065FE2088B188401820806D1C0098EDB2C0
:10D47000007BA842C8D80020CFE70720CDE70000F6
:10D480001CB5034901910091694660DF1CBD000095
:10D490000028002070B50E4605461446142110469B
:10D4A000FDF75DFE0120002120802161217326729D
:10D4B0006572002D00D0A072002070BD10B5FFF77E
:10D4C00047F810BD70B5002901D08C0701D00720A6
:10D4D00070BD064C0125A16062800549636010DFC4
:10D4E0000028F5D1257016202EDF70BD40280020C1
:10D4F000BDD40100FEB51F4C00252769E0680290ED
:10D500006846FFF777FA0190FFF74AFB0646019855
:10D51000002822D000230098E16817E00E680A4630
:10D52000864202D9301A086012E0801BF3180026E8
:10D530001660D668D169B446002E07D0FE183602B0
:10D54000360A566066469660D56115460029E5D1D3
:10D550002846E160FFF782FB06E02846FFF77EFBE6
:10D56000002801D1002E02D00298FFF787F9002091
:10D570002071FEBD2028002001200249000508601E
:10D580007047000000E200E010B50E4BD96800299A
:10D5900006D002680C68A24204D8A21A0A60C161CF
:10D5A000D86010BD0B4604E00B46C969121B002968
:10D5B00004D00C689442F7D3A41A0C600260C161D5
:10D5C000D86110BD20280020F8B51D4DEC68002C56
:10D5D00034D01C48002740682969401A0602360AE0
:10D5E0002068B04218D8361AC7192246107CE46960
:10D5F00000280FD0002010746B69002B07D09169B0
:10D6000050699847002805D0FEF7B0FF02E0516945
:10D6100090698847002CE3D16978A878814206D1C7
:10D62000401CC0B2A870022801D10020A870044993
:10D630000006800D18310F50FFF79EFFF8BD000067
:10D640002028002000150140FF2107481D3100223D
:10D6500042500648828A8168895C828A521C828292
:10D660000348C1617047000000200040B42A002038
:10D67000002500401FB500216A4611701072044851
:10D6800082680192817506C8684690471FBD0000F8
:10D69000B42A0020F0B5454D012185B04902284645
:10D6A000FFF749FE01270026414C002824D0FF2126
:10D6B00025312846FFF73AFE00281DD0FF202530EF
:10D6C0002E5081203B4980008860A07E002800D138
:10D6D0006F6002216846017037490868086003904E
:10D6E000E17D68460172E0680190E675267606CC19
:10D6F0006846083C90472BE004212846FFF71BFEB4
:10D70000002825D0FF2109312846FFF70FFE002809
:10D710001ED0FFF73BFEE07D617E884218D1207E5F
:10D72000002808D0627EE168E0752069E060267616
:10D73000667610460AE0A07E002800D16F60812046
:10D740001C4980008860E675607EE168FFF73AFE5C
:10D75000FF211D312846FFF7E9FD00280DD0A18AE1
:10D76000A07D814202D2FFF76FFF06E0FF211D314D
:10D770006E50002801D0FFF77DFFFF21453128467C
:10D78000FFF7D4FD00280ED0FF2045302E50A07E9C
:10D79000002800D02F60E07D002804D0E675607E70
:10D7A000E168FFF70FFE05B0F0BD0000002000406B
:10D7B000B42A002000230040802400400870000AA2
:10D7C000487002207047FFB583B016460C9D0D9C33
:10D7D0001F46022200950194039800F00CF80028DF
:10D7E00007D13B461022314600950194039800F082
:10D7F00002F807B0F0BDFFB583B0074600200C9CCF
:10D800008646268805463AE07868A90042181188BD
:10D81000684681805188C1800022694601A865DF81
:10D82000002839D1684601780598814226D1704692
:10D83000002801D0002200E0022220888918421826
:10D840000D998A4227D8714600290AD1401C80B21E
:10D850002080069A049911542088401C20800120C1
:10D860008646218806980A18694601A865DF0028BF
:10D8700012D1694620880978401820806D1C3888AC
:10D88000A842C1DC704600280AD02088801B401EB8
:10D8900080B2FF2802D90C2007B0F0BD0699885548
:10D8A0000020F9E7AAFE01001100000012000000AC
:10D8B0000000000000000000000000000000000068
:10D8C00000509D0003000000110000001200000045
:10D8D0000000000000000000000000000000000048
:10D8E00000509D00030000004F6F6F70732E2E20BC
:10D8F000536F6D657468696E672069732077726F06
:10D900006E6720776974682073657474696E672028
:10D91000736F667464657669636520706172616DAA
:10D9200065746572732E2E0D0A0000004CD901003B
:10D9300000280020540000005AB90100A0D90100BD
:10D94000542800207C0A00006AB9010010EE006E25
:10D950006F7264696373656D690000000200000006
:10D960001E000000030000000024F400000000007E
:10D9700000000000000000000000000000000000A7
:10D980000000000000000000000000000000000097
:10D990000000000000000000000000000000000087
:040000050001B0C185
:00000001FF
