:020000040001F9
:10B00000E8280020F5B001000FB1010011B10100E6
:10B010000000000000000000000000000000000030
:10B0200000000000000000000000000013B101005B
:10B03000000000000000000015B1010017B1010080
:10B0400019B1010019B1010051B8010019B1010095
:10B0500019B1010000000000B5B6010019B10100EE
:10B0600019B1010019B1010019B1010019B10100B4
:10B0700019B1010019B1010019B1010019B10100A4
:10B0800019B1010019B1010019B1010019B1010094
:10B0900019B1010019B1010019B1010019B1010084
:10B0A00019B1010019B1010000000000000000000A
:10B0B0000000000000000000000000000000000090
:10B0C0000348854600F050FA00480047FDC20100E1
:10B0D000E8280020401E00BF00BF00BF00BF00BF27
:10B0E00000BF00BF00BF00BF00BF00BF00BFF1D165
:10B0F000704700000321094802680A4302600848BB
:10B1000002680A4302600748804707480047FEE795
:10B11000FEE7FEE7FEE7FEE7FEE70000240500404D
:10B1200054050040B1B70100C1B0010003460B4314
:10B130009B0703D009E008C9121F08C0042AFAD2ED
:10B1400003E00B780370401C491C521EF9D2704773
:10B1500030B50B46014600202022012409E00D46AF
:10B16000D5409D4205D31D469540491B2546954037
:10B1700040191546521E002DF1DC30BDF0B51FB44C
:10B180000646002082B005464024019100901BE055
:10B19000019922460F46304600F008FA049A059BB2
:10B1A000801A994110D310461946224600F0EEF954
:10B1B000361A8F410197224601200021009F00F09E
:10B1C000E5F938184D4100902046641E0028DFDC68
:10B1D000019B00982946324607B0F0BDF0B50746FE
:10B1E0000846584087B0C00F049048000E465900EA
:10B1F00040084908BC1A884105D2384631461E46E7
:10B2000017460B4602465800400810434CD0300DFC
:10B21000039040055900400D490D0590401A0290D9
:10B22000402872DA18030121000B09050843019038
:10B2300004980092002805D00199524200208841CC
:10B2400000920190029840210A1A0199009800F09A
:10B250009DF905460C466B4607CB00F0B8F9C019BE
:10B260007141039A0E0D0023D71756401A467A40B3
:10B27000164344D0049A002A2DD0029A012A039A38
:10B2800015DC1205C01A914101263605001C7141DA
:10B29000D20F059ED2070093019202962A462346BA
:10B2A00000F0B5F907B0F0BD38463146FAE71605AB
:10B2B000224A0F46B218C01AB74101210905001CE5
:10B2C0004F4100187F41114618187941E20F104391
:10B2D0006D19644113E0E2076D0815436408C20765
:10B2E0001443039A01261205C01A91413605001C29
:10B2F0007141CE07400830434908C01851412A46E1
:10B30000234600F077F9CDE7FFE7049801224000DB
:10B31000C117121A00238B4104983146C417381AFA
:10B32000A141EEE730B40124E407634030BC55E7A7
:10B3300030B40124E407614030BC4FE70000E0FF77
:10B34000F0B51FB488B00B990998002448400999BA
:10B35000C00F490049080991C0070B9900904900A6
:10B3600049080B9109990898A64608431CD00B99E7
:10B370000A98084318D0099801244000420D48005B
:10B38000410D099824050003000B204309900B98F8
:10B390000003000B20430B9050181C49401800225A
:10B3A00001901446104605E0002001460DB0F0BDA6
:10B3B000032801DA034600E003239C46C11A0AAEC3
:10B3C0000AE05F0008ADED5B4F00F75B7D430027AF
:10B3D000AA187C41491C5B1E6145F2DD410004ABAB
:10B3E0005A522104120C0A43240C401C0828DFDBAB
:10B3F000019802900099704601910090059B049A73
:10B400000799069800F003F9D0E700000DFCFFFF54
:10B41000F0B50C465C4085B0E40FE40703944C00A3
:10B4200000266408590094464908024602962243C1
:10B4300021D062460A431ED06200570D4A000E0317
:10B440002303550D012402462C492405781B1B0BB0
:10B45000360B401823432643614600901C46501A81
:10B46000B44103D30098401C009002E09218009869
:10B470005B41002803DA0020014605B0F0BD002042
:10B48000012109050746864611E064461D46141B46
:10B49000B54106D36546521BB341744607430C437E
:10B4A000A646CD0740084908284392185B41054647
:10B4B0000D43EAD11046184313D060461946504058
:10B4C0007140084306D06046101AB34106D20122EB
:10B4D000002306E000220123DB0702E00122D24321
:10B4E0005310009874460105381C6141029C039D6D
:10B4F0000019694100F07EF8BFE70000FD0300007D
:10B500004A0009030123090B1B0519430A4B10B517
:10B51000520D9A4202DA0020014610BD064B343328
:10B520009A4203DC9A1A00F041F810BD034BD2187E
:10B5300000F02CF810BD0000FF030000CDFBFFFF62
:10B5400010B5002904DB0124E40740428C41214668
:10B55000002B04DB1C460123DB075242A341994226
:10B5600000D1904210BD0000064C0125064E05E0BA
:10B57000E36807CC2B430C3C98471034B442F7D314
:10B58000FFF7A2FD8CC90100ACC9010010B5202A4B
:10B5900004DB0146203A9140002010BD9140202359
:10B5A0009C1A0346E3401943904010BD10B5202A71
:10B5B00004DB0846203AD040002110BD0B46D340A2
:10B5C000D0402024A21A91400843194610BD10B55E
:10B5D000202A06DBCB170846203A1041C1170B433F
:10B5E00006E00B461341D0402024A21A91400843A4
:10B5F000194610BD10B5002B08DA0024401C61412B
:10B6000092185B411A4301D14008400010BDF0B5CB
:10B610001FB482B005460C0003D0084600F02EF996
:10B6200002E000F02BF92030024600902146284627
:10B63000FFF7ACFF049B059A04460F4618431143DD
:10B64000084314D0184610431BD0009840210A1A12
:10B6500018460599FFF7AAFF05460E46009A059978
:10B660000498FFF793FF084305D0012004E020462B
:10B67000394607B0F0BD0020C11705430E432C43E7
:10B68000374300990E986305401A7905E40A0022B1
:10B690000C43FD0A0A3002D500200146E9E7010506
:10B6A000101969410C9C0D9D00196941FFF7A2FF1B
:10B6B000DFE70000F8B50024FF2501350126274605
:10B6C0000094284601F046F8002808D03148406828
:10B6D000304204D0304800212818344301602D1D29
:10B6E00076007F1CADB2042FEBD3FF207D3001F03C
:10B6F00031F8002807D029480021016040070443A1
:10B70000274800690090274E200712D00127002506
:10B7100027420AD02448AA00111808690969C00400
:10B72000C00E8903B258890F90477F006D1C042D0D
:10B73000EED3002C1DDA3046203014214156491C2E
:10B7400017D0077DBC06A40E204600F05BFD8000EC
:10B750003558002D0DD0BE090121A140134AA0008B
:10B7600080180068009A8003800F114202D00228DE
:10B7700002D0F8BD0328FCD1032E05D1022807D042
:10B780000221204600F0D6FF31462046A847F8BDEA
:10B790000321F6E700630040006000407C61004048
:10B7A00000050050AC20002000650040000700505C
:10B7B00010B500F053FD002805D01F491D48486012
:10B7C000C8131E4988611E48018CC9B201290BD1DA
:10B7D000828C120708D1028D1206120F042A03D19F
:10B7E000828D1206120F0AD0012921D1818C0907FE
:10B7F0001ED1018D0906090F0A2904D007E0114A5C
:10B8000001219160F5E7828D1206120F05D00D29F6
:10B810000ED1808D0006000F0AD10B480168012966
:10B8200004D00A49016001680129FCD1C0214161AD
:10B8300010BD0000DFFF07C000050040006C0040A5
:10B84000C00F00F00006004000EC064075930000B9
:10B8500010B500F0E7FF10BD7CB51C461546491E2B
:10B8600001910090044B6A462146284600F0D8F822
:10B87000009A002111707CBD59C101002021020CE9
:10B8800001D010211046020A01D0104608390209E1
:10B8900001D01046091F820801D01046891E4208B7
:10B8A00001D0881E7047081A704702E008C8121FAE
:10B8B00008C1002AFAD170477047002001E001C199
:10B8C000121F002AFBD17047F0B51FB484B007984F
:10B8D0000699020D014314D04A484B4910184843B9
:10B8E00005140F9801280E981CD0281A401C00241B
:10B8F000464E4749009401910290002814DA4742CD
:10B9000027E00F98012443A3012808D000210498C0
:10B910000F9A84600360C260416009B0F0BD0E9868
:10B92000C143F4E74042E2E7074612E0F80707D0D8
:10B930002246334601990098FFF702FD01910090DD
:10B940002246334610461946FFF7FAFC04460E46D7
:10B950007F10002FEAD10298019B0028009A0799D6
:10B96000069802DAFFF7ECFC01E0FFF751FD044610
:10B970000E460022284BFFF7E3FD03D80020C0430A
:10B98000014607E00022254B20463146FFF726FC02
:10B99000FFF7B6FD102409E0002C0ADB0A22002381
:10B9A000FFF7ECFB059B30321A55641E02460A4332
:10B9B000F2D11122641C059B121B1C190F9B012B39
:10B9C00003D0012308430ED10AE0084304D011201C
:10B9D0000E9000200F9084E70E98151A6D1E0BE054
:10B9E0000E98824202DD00236D1C03E0824201DAE0
:10B9F00000236D1E002BEED004980F998260C16069
:10BA000030C08AE701FCFFFF104D00000000244019
:10BA10000000F03F300000000000F0430000E03F75
:10BA2000FFB597B00646002518E2252877D10024F7
:10BA30002746FD49049400E00443761C3278012037
:10BA4000203A90400842F7D130782A280ED00222BE
:10BA5000307801463039092916D804990A23594308
:10BA6000303940181443761C0490F1E7189802C846
:10BA700004911890002904DA01204003044348424D
:10BA8000049002200443761C30782E2814D1042020
:10BA900004437078761C2A2809D11898761C80C82F
:10BAA000189009E00A214F43303FC719761C3078BF
:10BAB000014630390929F5D930786C2810D006DCD8
:10BAC0004C281AD068280ED06A2817D104E07428B0
:10BAD00013D07A2812D110E00120400504430CE075
:10BAE0000121090501E0032109050C437178814218
:10BAF00003D1012000052418761C761C30781190A3
:10BB000066280BD013DC58287DD009DC00287BD0B8
:10BB10004528F6D04628F4D047281AD1A5E118E0E8
:10BB2000632835D0642870D0652812D19DE1702833
:10BB30006CD008DC6728F1D069287BD06E280DD046
:10BB40006F2806D1BAE073282ED0752871D07828D6
:10BB500059D01A9A199990476D1C7EE16002400FE6
:10BB6000022809D003280DD00428189801680DD0A8
:10BB70000D60001D189070E11898EA1701680D60BB
:10BB80004A60F6E7189801680D80F2E70D70F0E75B
:10BB900018986A4601781172001D189000205072A2
:10BBA00002A80090012005E0189802C81890002013
:10BBB0000091C04361070DD5002101E00199491CA6
:10BBC0000191B94212DA8142F8DB009A515C0029F6
:10BBD000F4D10BE0002101E00199491C019181425F
:10BBE000FADB019A0099895C0029F5D10199049842
:10BBF0001A9B471A21463846199A00F097FA01997C
:10BC0000401945180BE04FE02CE113E04EE000989E
:10BC100000990078491C00911A9A19999047019847
:10BC2000401E0190401CF2D1214638461A9B199AB9
:10BC300010E137E00A200021009001916002410FDD
:10BC4000022907D0189A01CA1892C21794460329EC
:10BC500008D00AE01898C01DC108C90005C918918C
:10BC6000944607E000B2C2179446042902D140B2BC
:10BC7000C1178C4600226146944506DA0A46002127
:10BC8000404291418C462D2102E0210504D52B2113
:10BC90006A461173012103E0E10701D02021F7E793
:10BCA000029155E00A200AE0102008E010200090E0
:10BCB0000021042004430191082703E0082000210B
:10BCC000019100906002410F022907D0189A01CA21
:10BCD000189200229446032908D008E01898C01D45
:10BCE000C108C90005C91891944603E080B204292F
:10BCF00000D1C0B200210291210729D511997029E4
:10BD000006D0009A1021019B4A401A4305D00EE04C
:10BD100040216A461173012108E06146014306D0C3
:10BD200030216A4611731199517302210291009AD0
:10BD30000821019B4A401A430AD16146014301D1BF
:10BD4000610705D530216A46117301217F1E0291DA
:10BD50001199582904D035A10E910DA90D910DE02E
:10BD600037A1F9E76146019B009AFFF707FA0E9B9E
:10BD70008C469B5C0D9A521E0D92137061460143D6
:10BD8000F0D10D9805A9081A20300190600703D55D
:10BD900001200004844300E001270198874201DD6F
:10BDA000381A00E000200199009041180298091803
:10BDB0000498401A0490E00306D421461A9B199A6D
:10BDC000049800F0B3F94519002706E003A81A9A71
:10BDD000C05D199990476D1C7F1C02988742F5DB66
:10BDE000E0030CD521461A9B199A049800F09EF99D
:10BDF000451904E01A9A3020199990476D1C009952
:10BE0000481E00900029F5DC08E00D980D99007897
:10BE1000491C0D911A9A199990476D1C0199481E59
:10BE200001900029F1DC63E109280100303132334F
:10BE30003435363738396162636465660000000066
:10BE40003031323334353637383941424344454650
:10BE50000000000000F05AF94519761C30780028DF
:10BE600000D0E2E528461BB0F0BD600700D40627ED
:10BE70001898C01DC108C90048680A680831C30F76
:10BE8000DB071891190001D09CA108E0210501D51C
:10BE90009BA104E0E10701D09AA100E09AA1430030
:10BEA00011985B08109165280CD006DC452809D054
:10BEB00046281DD0472841D141E0662818D0672880
:10BEC0003CD13CE00021112F01DB112000E0781C67
:10BED0000191009008A911A8FFF7F6FC13990591AC
:10BEE0000021119A15927F1C12980197009150E041
:10BEF0000120C00703900120019008A9009711A814
:10BF0000FFF7E2FC139A149905920022119B00920C
:10BF100012981593059A0192002901D0104602E06B
:10BF2000791C40180190381A01D5019804E040426C
:10BF3000401E0090781C0190C01B029043E0012F2E
:10BF400000DA01270021112F01DD112000E0384621
:10BF50000191009008A911A8FFF7B6FC139905916B
:10BF6000119A0021129815920091019721070CD483
:10BF70000599B94201DB019900E00191012904DD35
:10BF8000159A491E515C302906D0B84201DA011DCC
:10BF900005DA0121029115E00199491EEDE700281B
:10BFA00005DC0099411800910199091A03E0019AF2
:10BFB000411C914200DD01910099401A401C029001
:10BFC0000120C0070390200706D4029901988142FE
:10BFD00002DB0020C043029000206946C87707AF0B
:10BFE000012103980337C907884224D00220119009
:10BFF0002B201290039800280CDA404203902D2049
:10C00000129007E00A210398FFF7A2F830317F1E53
:10C01000039039701199481E11900029F2DC0398A1
:10C020000028EFD1791E129808703078202108403E
:10C030004530BF1E387006A8C01BC01D0390109865
:10C040000078002800D00120019941180298C017FB
:10C050000918039809180498401A401E0490E00338
:10C0600006D421461A9B199A049800F05FF84519E6
:10C0700010980078002803D01A9A199990476D1CDF
:10C08000E00324D521461A9B199A049800F04EF833
:10C0900045191CE00098002807DB009905988842A4
:10C0A00003DD1598405C199901E0199930201A9A1E
:10C0B000904700986D1C401C00900298401E029012
:10C0C000002804D11A9A2E20199990476D1C0199C5
:10C0D000481E01900029DDDC05E038781A9A7F1CA3
:10C0E000199990476D1C0399481E03900029F4DCB0
:10C0F00021461A9B199A0498ACE600002D00000016
:10C100002B0000002000000000000000F8B50446ED
:10C1100000251E461746880404D405E03946202031
:10C12000B0476D1C641EF9D52846F8BDFFB504461E
:10C13000002581B01E46C80301D5302700E0202726
:10C14000880404D505E038460399B0476D1C641E89
:10C15000F9D5284605B0F0BD4A68002A06D00A681D
:10C16000531C0B6010704868401E48607047000008
:10C17000BFF34F8F04490348C860BFF34F8F00BF20
:10C18000FDE700000400FA0500ED00E00EB5002117
:10C19000029000916A4601910148FFF7E9FF000013
:10C1A000014000000022D243830004490428CA5001
:10C1B00002D308182030027470470000AC20002021
:10C1C000F0B50025ED43002A02D00023042601E04B
:10C1D000042305260A4C04E09F00E7597F1C04D085
:10C1E0005B1CB342F8D32846F0BD5DB22618357506
:10C1F0009E00A151002AF6D1E11820310874F2E71F
:10C20000AC2000200249091814200856704700008D
:10C21000AC20002000B589B0202205496846FEF711
:10C2200085FF0021684600F09FF909B000BD0000BD
:10C230004CC901000FB400B5C1B0FF2143AB0131BF
:10C240006846429AFFF708FB002803D0C1B268464F
:10C2500000F0EEF941B008BC04B018471048018C5A
:10C26000C9B2012917D1818C090714D1018D0906A2
:10C270000A0F03D1828D1206120F0ED0090F012969
:10C2800003D1828D1206120F07D0032903D1808DAE
:10C290000006000F01D00020704701207047000009
:10C2A000C00F00F0F8B500200B4DFF270446023701
:10C2B0000090A600A859694600F002F9002801D0B4
:10C2C000FFF764FFA8598100044808180760641C40
:10C2D000022CEED9F8BD000080200020000700509D
:10C2E00010B5054A80001058002902D000F0E0F88F
:10C2F00010BD00F031F910BD80200020FFF78AFF4B
:10C3000018A0FFF797FF00F0A9F8002825D0FFF745
:10C310003DFFFFF7C7FF1DA0FFF78CFF00210120A5
:10C32000FFF7DEFF00210220FFF7DAFF20A0FFF772
:10C3300081FFFF24F53401210020FFF7D1FF2046C3
:10C3400000F04AF800210846FFF7CAFF204600F037
:10C3500043F81AA0FFF76EFFEDE719A0FFF76AFF99
:10C36000D7E70000446562756720706F7274206FB4
:10C3700070656E65642E2E2E20496E697469616C3D
:10C380006973696E672E2E2E0D0A0000566973754B
:10C39000616C20666565646261636B2073686F75AC
:10C3A0006C6420626520616374697665210D0A0002
:10C3B00052656164792E2E200D0A00002E000000C7
:10C3C0004750494F544520696E697469616C6973BF
:10C3D0006564210D0A00000031B5054C04E0401EE3
:10C3E00000902046FEF776FE00980028F7D138BD71
:10C3F000E70300008207D30EFF229A408907090E47
:10C4000010B59940002808DB8408104BA400E418FC
:10C41000236893430B4323600AE003071B0F083B89
:10C420009C080B4BA400E318DC6994430C43DC61CB
:10C43000C206D20E01219140002801DB054A11609D
:10C44000002801DB0448016010BD000000E400E0AA
:10C4500000ED00E080E200E000E100E070B5124D88
:10C46000687D002801D0082070BD0F4900202039C8
:10C47000421E0B18401CC0B21A752028F9D30024A4
:10C480002046FFF78FFE641CE4B2052CF8D303218D
:10C490000620FFF7AFFF01200449C00748600120D4
:10C4A0006875002070BD0000CC20002000630040B3
:10C4B000012181400148C160704700000005005023
:10C4C000FEB5044620480D460019142141560026A9
:10C4D000491C01D0082633E0A97800291DD001228B
:10C4E00000212046FFF76CFE411C14D08300174842
:10C4F0002A78181869780369154F3B40036103696E
:10C50000E706FF0C9207920BC907C90A3B430A438F
:10C510001343036104E0042612E00121C9430175BD
:10C520006A780120A0400B49012A0BD0C860002185
:10C5300000910B46012201912046114600F0D4F8EB
:10C540003046FEBD8860F2E7AC2000200065004068
:10C55000FFE0ECFF000500500121814001488160AF
:10C560007047000000050050F3B52A4C0746E07EF6
:10C5700081B0002801D00820FEBD002F00D1264F39
:10C58000386800F0CCF838780126314681402348DD
:10C5900081600021786800F0B9F8214DB8696862BF
:10C5A000787D397D0843E86603CFE8606961387BB0
:10C5B000083F01280FD10021B86800F0A7F8F868FB
:10C5C00000F0ADF8387B3146814014488160F9684D
:10C5D000B868A96028610298606039692160002804
:10C5E0000ED0FF230F481D33397F0022C250FF2396
:10C5F0004533C2500D4A0C4850600220FFF7FAFE46
:10C60000042028600020E0752076A075E676A076EC
:10C61000FEBD0000902000206CC901000005005004
:10C620000025004000200040800002000023004060
:10C6300010B5064A937D002B01D0112010BD9175D5
:10C6400090600020908200F003F810BD9020002040
:10C65000F8B50026194FFF251D357E510120B86021
:10C6600000F0BAF8164C6168002910D022E0FF27CC
:10C6700001372946114800F077F8002802D1A08A36
:10C68000B842F6D1A08AB84201D000F0A5F8A08A3D
:10C69000A17D8842EBD3A18AC81FF9380CD0074F7F
:10C6A0002946384600F060F80028F9D00120F860EB
:10C6B0000020A0753046F8BD0F26F9E700200040A5
:10C6C0009020002030B552000A439900039C0A4391
:10C6D0002102049D0A4329040A43024980004018AC
:10C6E000026030BD0007005030B552000A43990087
:10C6F000039C0A432102049D0A4329040A43024978
:10C7000080004018026030BD000700501CB50022B8
:10C710000B46009211460192FFF7D4FF1CBD1CB5D9
:10C72000002100910B46012201911146FFF7CAFF3B
:10C730001CBD0000820006481018026803231B0479
:10C740009A430260026809040A43026070470000CD
:10C7500000070050034940180068012800D000205D
:10C7600070470000006000404058002800D00120C1
:10C7700070470322120280184068084000D0012050
:10C780007047000030B50A48FF21C57D0022094CE2
:10C790000931094B002D625007D09969437EC26868
:10C7A000D154417E491C417630BD986930BD0000AE
:10C7B0009020002000200040002500401FB50123EC
:10C7C0006A46137010720348019106C86846904784
:10C7D0001FBD000090200020FF2107481D310022CE
:10C7E00042500648828A8168895C828A521C828211
:10C7F0000348C161704700000020004090200020E5
:10C80000002500401FB500216A46117010720448CF
:10C8100082680192817506C8684690471FBD000076
:10C8200090200020F0B5454D012185B049022846F1
:10C83000FFF79FFF01270026414C002824D0FF214D
:10C8400025312846FFF790FF00281DD0FF20253016
:10C850002E5081203B4980008860A07E002800D1B6
:10C860006F600221684601703749086808600390CC
:10C87000E17D68460172E0680190E675267606CC97
:10C880006846083C90472BE004212846FFF771FFDB
:10C89000002825D0FF2109312846FFF765FF002831
:10C8A0001ED0FFF76FFFE07D617E884218D1207EA9
:10C8B000002808D0627EE168E0752069E060267695
:10C8C000667610460AE0A07E002800D16F608120C5
:10C8D0001C4980008860E675607EE168FFF76EFFA6
:10C8E000FF211D312846FFF73FFF00280DD0A18A08
:10C8F000A07D814202D2FFF76FFF06E0FF211D31CC
:10C900006E50002801D0FFF77DFFFF2145312846FA
:10C91000FFF72AFF00280ED0FF2045302E50A07EC2
:10C92000002800D02F60E07D002804D0E675607EEE
:10C93000E168FFF743FF05B0F0BD000000200040B4
:10C9400090200020002300408024004011000000BF
:10C9500012000000000000000000000000000000C5
:10C960000000000000509D000300000011000000C6
:10C9700012000000000000000000000000000000A5
:10C980000000000000509D0003000000ACC9010041
:10C990008020002010000000AAB80100BCC90100DE
:10C9A0009020002058080000BAB8010002000000E2
:0CC9B0001E000000030000000024F40042
:040000050001B0C185
:00000001FF
