:020000040001F9
:10B00000F0370020F5B001000FB1010011B10100CF
:10B010000000000000000000000000000000000030
:10B0200000000000000000000000000013B101005B
:10B03000000000000000000015B1010017B1010080
:10B0400019B1010019B1010099B9010019B101004C
:10B0500019B101000000000071B7010019B1010031
:10B0600019B1010019B1010019B1010019B10100B4
:10B0700019B1010019B1010019B1010019B10100A4
:10B0800019B10100B1B8010019B1010019B10100F5
:10B09000D1B8010019B10100D9B8010019B10100FE
:10B0A00019B1010019B1010000000000000000000A
:10B0B0000000000000000000000000000000000090
:10B0C0000348854600F084FA0048004759F1010022
:10B0D000F0370020401E00BF00BF00BF00BF00BF10
:10B0E00000BF00BF00BF00BF00BF00BF00BFF1D165
:10B0F000704700000321094802680A4302600848BB
:10B1000002680A4302600748804707480047FEE795
:10B11000FEE7FEE7FEE7FEE7FEE70000240500404D
:10B1200054050040F9B80100C1B0010030B50B462C
:10B13000014600202022012409E00D46D5409D4211
:10B1400005D31D469540491B254695404019154697
:10B15000521E002DF1DC30BD70B5002425460028BC
:10B1600001DA01244042002901DA01254942FFF7B2
:10B17000DDFFAC4200D04042002C00D0494270BDFF
:10B1800003460B439B0703D009E008C9121F08C000
:10B19000042AFAD203E00B780370401C491C521EAB
:10B1A000F9D27047D2B201E00270401C491EFBD2B6
:10B1B00070470022F6E710B513460A4604461946C2
:10B1C000FFF7F0FF204610BD30B5044600200346CF
:10B1D00000E05B1C934203D2E05CCD5C401BF8D0E6
:10B1E00030BDF0B51FB40646002082B005464024AD
:10B1F000019100901BE0019922460F46304600F075
:10B2000009FA049A059B801A994110D310461946F1
:10B21000224600F0EFF9361A8F41019722460120AD
:10B220000021009F00F0E6F938184D4100902046BB
:10B23000641E0028DFDC019B00982946324607B0D7
:10B24000F0BD0000F0B507460846584087B0C00F73
:10B25000049048000E46590040084908BC1A88412D
:10B2600005D2384631461E4617460B460246580060
:10B27000400810434CD0300D039040055900400D5C
:10B28000490D0590401A0290402872DA18030121F6
:10B29000000B09050843019004980092002805D08E
:10B2A0000199524200208841009201900298402169
:10B2B0000A1A0199009800F09DF905460C466B4664
:10B2C00007CB00F0B8F9C0197141039A0E0D0023A5
:10B2D000D71756401A467A40164344D0049A002A9B
:10B2E0002DD0029A012A039A15DC1205C01A914149
:10B2F00001263605001C7141D20F059ED20700932E
:10B30000019202962A46234600F0B5F907B0F0BD37
:10B3100038463146FAE71605224A0F46B218C01AD7
:10B32000B74101210905001C4F4100187F4111461A
:10B3300018187941E20F10436D19644113E0E207D8
:10B340006D0815436408C2071443039A01261205C9
:10B35000C01A91413605001C7141CE0740083043A8
:10B360004908C01851412A46234600F077F9CDE735
:10B37000FFE7049801224000C117121A00238B41F5
:10B3800004983146C417381AA141EEE730B40124BD
:10B39000E407634030BC55E730B40124E407614062
:10B3A00030BC4FE70000E0FFF0B51FB488B00B9948
:10B3B0000998002448400999C00F4900490809919B
:10B3C000C0070B990090490049080B91099908980A
:10B3D000A64608431CD00B990A98084318D0099830
:10B3E00001244000420D4800410D09982405000346
:10B3F000000B204309900B980003000B20430B9097
:10B4000050181C494018002201901446104605E0CF
:10B41000002001460DB0F0BD032801DA034600E02C
:10B4200003239C46C11A0AAE0AE05F0008ADED5B3B
:10B430004F00F75B7D430027AA187C41491C5B1E27
:10B440006145F2DD410004AB5A522104120C0A435B
:10B45000240C401C0828DFDB0198029000997046FC
:10B4600001910090059B049A0799069800F003F952
:10B47000D0E700000DFCFFFFF0B50C465C4085B046
:10B48000E40FE40703944C00002664085900944636
:10B49000490802460296224321D062460A431ED042
:10B4A0006200570D4A000E032303550D0124024686
:10B4B0002C492405781B1B0B360B401823432643CD
:10B4C000614600901C46501AB44103D30098401CBA
:10B4D000009002E0921800985B41002803DA0020F7
:10B4E000014605B0F0BD002001210905074686464A
:10B4F00011E064461D46141BB54106D36546521B38
:10B50000B341744607430C43A646CD07400849089B
:10B51000284392185B4105460D43EAD11046184373
:10B5200013D06046194650407140084306D060462B
:10B53000101AB34106D20122002306E000220123A3
:10B54000DB0702E00122D243531000987446010544
:10B55000381C6141029C039D0019694100F07EF88E
:10B56000BFE70000FD0300004A0009030123090BA7
:10B570001B0519430A4B10B5520D9A4202DA0020FE
:10B58000014610BD064B34339A4203DC9A1A00F090
:10B5900041F810BD034BD21800F02CF810BD00008C
:10B5A000FF030000CDFBFFFF10B5002904DB0124E1
:10B5B000E40740428C412146002B04DB1C4601235A
:10B5C000DB075242A341994200D1904210BD0000D6
:10B5D000064C0125064E05E0E36807CC2B430C3CE6
:10B5E00098471034B442F7D3FFF76EFD740C020095
:10B5F000940C020010B5202A04DB0146203A914049
:10B60000002010BD914020239C1A0346E3401943BB
:10B61000904010BD10B5202A04DB0846203AD040E7
:10B62000002110BD0B46D340D0402024A21A9140E7
:10B630000843194610BD10B5202A06DBCB17084673
:10B64000203A1041C1170B4306E00B461341D0408E
:10B650002024A21A91400843194610BD10B5002BB2
:10B6600008DA0024401C614192185B411A4301D161
:10B670004008400010BDF0B51FB482B005460C0074
:10B6800003D0084600F09EF902E000F09BF920305C
:10B690000246009021462846FFF7ACFF049B059A1E
:10B6A00004460F4618431143084314D0184610436C
:10B6B0001BD0009840210A1A18460599FFF7AAFFE7
:10B6C00005460E46009A05990498FFF793FF084334
:10B6D00005D0012004E02046394607B0F0BD002027
:10B6E000C11705430E432C43374300990E98630559
:10B6F000401A7905E40A00220C43FD0A0A3002D5FB
:10B7000000200146E9E70105101969410C9C0D9DD7
:10B7100000196941FFF7A2FFDFE770B58C180578C3
:10B72000401C6B075B0F01D10378401C2A1106D126
:10B730000278401C03E006780E70401C491C5B1E1A
:10B74000F9D12B0705D40023521E0DD40B70491CD0
:10B75000FAE70378401CCB1A921C03E01D780D70A9
:10B76000491C5B1C521EF9D5A142D8D3002070BDE4
:10B77000F8B50024FF250135012627460094284608
:10B7800004F042F8002808D031484068304204D024
:10B79000304800212818344301602D1D76007F1C9D
:10B7A000ADB2042FEBD3FF207D3004F02DF800283C
:10B7B00007D0294800210160400704432748006959
:10B7C0000090274E200712D00127002527420AD0DB
:10B7D0002448AA00111808690969C004C00E890329
:10B7E000B258890F90477F006D1C042DEED3002CBA
:10B7F0001DDA3046203014214156491C17D0077DF0
:10B80000BC06A40E204601F0B1FF80003558002D83
:10B810000DD0BE090121A140134AA0008018006884
:10B82000009A8003800F114202D0022802D0F8BD96
:10B830000328FCD1032E05D1022807D0022120467F
:10B8400003F0D2FF31462046A847F8BD0321F6E7B2
:10B8500000630040006000407C6100400005005033
:10B86000C42E002000650040000700508307FF221F
:10B87000DB0E9A408907090E994000280BDA000771
:10B88000000F0838830808489B001818C3699343C1
:10B890000B43C3617047830804489B001B1818685A
:10B8A000904308431860704700ED00E000E400E0BA
:10B8B00010B506490020086048608860C8600349E8
:10B8C00040390860486004F073FE10BD401101402B
:10B8D00010B504F003FE10BD10B5064840680028FE
:10B8E00005D08047002801D000F0C8FE10BD03F04D
:10B8F00049F910BD1C29002010B503F08DF900286E
:10B9000005D01F491D484860C8131E4988611E485C
:10B91000018CC9B201290BD1828C120708D1028D8A
:10B920001206120F042A03D1828D1206120F0AD0BA
:10B93000012921D1818C09071ED1018D0906090F2A
:10B940000A2904D007E0114A01219160F5E7828DB0
:10B950001206120F05D00D290ED1808D0006000FA2
:10B960000AD10B480168012904D00A490160016825
:10B970000129FCD1C021416110BD0000DFFF07C0DB
:10B9800000050040006C0040C00F00F000060040C1
:10B9900000EC06407593000010B504F0C9FE10BD20
:10B9A0007CB51C461546491E01910090044B6A4621
:10B9B0002146284600F0D8F8009A002111707CBD7D
:10B9C000A1C201002021020C01D010211046020A60
:10B9D00001D010460839020901D01046091F82081B
:10B9E00001D01046891E420801D0881E7047081AEF
:10B9F000704702E008C8121F08C1002AFAD1704738
:10BA00007047002001E001C1121F002AFBD17047DE
:10BA1000F0B51FB484B007980699020D014314D005
:10BA20004A484B491018484305140F9801280E98AE
:10BA30001CD0281A401C0024464E4749009401910E
:10BA40000290002814DA474227E00F98012443A30C
:10BA5000012808D0002104980F9A84600360C26016
:10BA6000416009B0F0BD0E98C143F4E74042E2E7FF
:10BA7000074612E0F80707D022463346019900989E
:10BA8000FFF792FC0191009022463346104619467A
:10BA9000FFF78AFC04460E467F10002FEAD1029879
:10BAA000019B0028009A0799069802DAFFF77CFCB0
:10BAB00001E0FFF7E1FC04460E460022284BFFF7A9
:10BAC00073FD03D80020C043014607E00022254B48
:10BAD00020463146FFF7B6FBFFF746FD102409E08C
:10BAE000002C0ADB0A220023FFF77BFB059B303288
:10BAF0001A55641E02460A43F2D11122641C059BAA
:10BB0000121B1C190F9B012B03D0012308430ED1DC
:10BB10000AE0084304D011200E9000200F9084E723
:10BB20000E98151A6D1E0BE00E98824202DD00235E
:10BB30006D1C03E0824201DA00236D1E002BEED063
:10BB400004980F998260C16030C08AE701FCFFFF52
:10BB5000104D0000000024400000F03F30000000C5
:10BB60000000F0430000E03FFFB597B00646002517
:10BB700018E2252877D100242746FD49049400E0E7
:10BB80000443761C32780120203A90400842F7D1D5
:10BB900030782A280ED0022230780146303909291F
:10BBA00016D804990A235943303940181443761C97
:10BBB0000490F1E7189802C804911890002904DA5B
:10BBC0000120400304434842049002200443761CB1
:10BBD00030782E2814D1042004437078761C2A284B
:10BBE00009D11898761C80C8189009E00A214F43A3
:10BBF000303FC719761C3078014630390929F5D90C
:10BC000030786C2810D006DC4C281AD068280ED06A
:10BC10006A2817D104E0742813D07A2812D110E0D2
:10BC20000120400504430CE00121090501E0032146
:10BC300009050C437178814203D1012000052418C5
:10BC4000761C761C3078119066280BD013DC5828AF
:10BC50007DD009DC00287BD04528F6D04628F4D0DA
:10BC600047281AD1A5E118E0632835D0642870D0A0
:10BC7000652812D19DE170286CD008DC6728F1D0CE
:10BC800069287BD06E280DD06F2806D1BAE07328C2
:10BC90002ED0752871D0782859D01A9A19999047C2
:10BCA0006D1C7EE16002400F022809D003280DD0F0
:10BCB0000428189801680DD00D60001D189070E1DF
:10BCC0001898EA1701680D604A60F6E7189801684D
:10BCD0000D80F2E70D70F0E718986A46017811724E
:10BCE000001D18900020507202A80090012005E06D
:10BCF000189802C8189000200091C04361070DD524
:10BD0000002101E00199491C0191B94212DA8142F6
:10BD1000F8DB009A515C0029F4D10BE0002101E02E
:10BD20000199491C01918142FADB019A0099895CD1
:10BD30000029F5D1019904981A9B471A21463846E3
:10BD4000199A00F097FA0199401945180BE04FE055
:10BD50002CE113E04EE0009800990078491C009116
:10BD60001A9A199990470198401E0190401CF2D1EF
:10BD7000214638461A9B199A10E137E00A20002123
:10BD8000009001916002410F022907D0189A01CA60
:10BD90001892C2179446032908D00AE01898C01DCB
:10BDA000C108C90005C91891944607E000B2C2173E
:10BDB0009446042902D140B2C1178C460022614644
:10BDC000944506DA0A460021404291418C462D21D5
:10BDD00002E0210504D52B216A461173012103E0FD
:10BDE000E10701D02021F7E7029155E00A200AE09F
:10BDF000102008E01020009000210420044301914D
:10BE0000082703E008200021019100906002410F03
:10BE1000022907D0189A01CA1892002294460329D1
:10BE200008D008E01898C01DC108C90005C91891BC
:10BE3000944603E080B2042900D1C0B200210291EF
:10BE4000210729D51199702906D0009A1021019B4C
:10BE50004A401A4305D00EE040216A461173012181
:10BE600008E06146014306D030216A4611731199FA
:10BE7000517302210291009A0821019B4A401A4302
:10BE80000AD16146014301D1610705D530216A46D7
:10BE9000117301217F1E02911199582904D035A1F7
:10BEA0000E910DA90D910DE037A1F9E76146019BB7
:10BEB000009AFFF796F90E9B8C469B5C0D9A521EDA
:10BEC0000D92137061460143F0D10D9805A9081A2F
:10BED00020300190600703D501200004844300E076
:10BEE00001270198874201DD381A00E000200199FE
:10BEF00000904118029809180498401A0490E00331
:10BF000006D421461A9B199A049800F0B3F94519F2
:10BF1000002706E003A81A9AC05D199990476D1C86
:10BF20007F1C02988742F5DBE0030CD521461A9B63
:10BF3000199A049800F09EF9451904E01A9A3020E5
:10BF4000199990476D1C0099481E00900029F5DC56
:10BF500008E00D980D990078491C0D911A9A1999CD
:10BF600090476D1C0199481E01900029F1DC63E1A6
:10BF700009280100303132333435363738396162BF
:10BF80006364656600000000303132333435363783
:10BF900038394142434445460000000000F05AF958
:10BFA0004519761C3078002800D0E2E528461BB001
:10BFB000F0BD600700D406271898C01DC108C9004D
:10BFC00048680A680831C30FDB071891190001D0CF
:10BFD0009CA108E0210501D59BA104E0E10701D067
:10BFE0009AA100E09AA1430011985B08109165287E
:10BFF0000CD006DC452809D046281DD0472841D161
:10C0000041E0662818D067283CD13CE00021112F80
:10C0100001DB112000E0781C0191009008A911A813
:10C02000FFF7F6FC139905910021119A15927F1CD8
:10C0300012980197009150E00120C0070390012061
:10C04000019008A9009711A8FFF7E2FC139A149930
:10C0500005920022119B009212981593059A019265
:10C06000002901D0104602E0791C40180190381ACE
:10C0700001D5019804E04042401E0090781C0190D8
:10C08000C01B029043E0012F00DA01270021112F8D
:10C0900001DD112000E038460191009008A911A8A7
:10C0A000FFF7B6FC13990591119A00211298159289
:10C0B0000091019721070CD40599B94201DB019940
:10C0C00000E00191012904DD159A491E515C3029D7
:10C0D00006D0B84201DA011D05DA0121029115E00E
:10C0E0000199491EEDE7002805DC009941180091EF
:10C0F0000199091A03E0019A411C914200DD019166
:10C100000099401A401C02900120C00703902007AC
:10C1100006D402990198814202DB0020C0430290BC
:10C1200000206946C87707AF012103980337C90784
:10C13000884224D0022011902B20129003980028CE
:10C140000CDA404203902D20129007E00A21039858
:10C15000FEF7ECFF30317F1E039039701199481EB5
:10C1600011900029F2DC03980028EFD1791E129873
:10C1700008703078202108404530BF1E387006A86E
:10C18000C01BC01D039010980078002800D001202B
:10C19000019941180298C0170918039809180498C2
:10C1A000401A401E0490E00306D421461A9B199AB7
:10C1B000049800F05FF8451910980078002803D023
:10C1C0001A9A199990476D1CE00324D521461A9BB1
:10C1D000199A049800F04EF845191CE000980028C0
:10C1E00007DB00990598884203DD1598405C199992
:10C1F00001E0199930201A9A904700986D1C401C54
:10C2000000900298401E0290002804D11A9A2E2015
:10C21000199990476D1C0199481E01900029DDDC99
:10C2200005E038781A9A7F1C199990476D1C03997C
:10C23000481E03900029F4DC21461A9B199A0498A1
:10C24000ACE600002D0000002B00000020000000E4
:10C2500000000000F8B5044600251E461746880475
:10C2600004D405E039462020B0476D1C641EF9D582
:10C270002846F8BDFFB50446002581B01E46C80318
:10C2800001D5302700E02027880404D505E0384692
:10C290000399B0476D1C641EF9D5284605B0F0BD62
:10C2A0004A68002A06D00A68531C0B601070486860
:10C2B000401E48607047F7B584B0002516880746D1
:10C2C0001580406B1446002813D003780598032E80
:10C2D00051D30221017021881122491C89B2218089
:10C2E00042542188491C89B2218043542088401C33
:10C2F0002080386B00281DD005462088059902460D
:10C300001232B24237D811220A5420881022401C1F
:10C3100080B220800A542088401C20800F202A5C94
:10C320002388401ECA54228840B2521C2280002812
:10C33000F5DA0025384620300290807B002806D0B0
:10C3400033462246059902F0B3FC050014D1029849
:10C35000407B002806D032462146059800F0B8FE02
:10C36000050009D1B878002823D005988646208892
:10C37000001DB04202D90C2007B0F0BD684679DF3D
:10C380000028F9D1218803207246505420881921B1
:10C39000401C80B22080115420887146401C80B21D
:10C3A000208041186846008804F056FA2188401819
:10C3B0002080F878002817D0218803230A46FB56EE
:10C3C000C91C0598B142D6D8022181542188012286
:10C3D000491C89B2218042542188491C89B221809C
:10C3E00043542088401C20807868002817D021887A
:10C3F0000023C3560A46C91C0598B142BBD8022186
:10C40000815421880A22491C89B221804254218802
:10C41000491C89B2218043542088401C20803889DF
:10C4200000280AD0009438460196062202210830DE
:10C43000059B04F090FA05009ED1388A00280AD0A6
:10C44000009438460196072203211030059B04F022
:10C4500082FA050090D1388B00280AD00094384623
:10C460000196152214211830059B04F074FA05007A
:10C4700082D1386A002806D033462246059901F059
:10C4800021FB0500D8D1786A002806D03346224621
:10C49000059902F071FF0500CED10298007B0028BB
:10C4A00007D0334622463846059903F06BFD050058
:10C4B000C2D13878002807D033462246384605993D
:10C4C00002F08EFF0500B7D1284655E710B598B0A9
:10C4D000382101A8FEF76DFE022168460171012492
:10C4E00084710621C17103218182124806902421A2
:10C4F0000FA8FEF75EFE10A80472FF20E130139033
:10C50000FF202D3014900020014600900A4B0FAA06
:10C5100001A800F01BFB040007D008A001F026FCD6
:10C52000204600F0ABF818B010BD14A001F01EFCBE
:10C53000F9E700000828002039F801004F6F6F70FC
:10C54000732E2E20536F6D657468696E6720697352
:10C550002077726F6E67207769746820696E6974DE
:10C5600069616C6973696E6720616476657274696C
:10C5700073696E672E2E0D0A000000004164766517
:10C5800072746973696E6720696E697469616C6938
:10C59000736564210D0A000070B504462ECC0D4869
:10C5A0002EC00C4D20682861A088A882E088E8820F
:10C5B0000948E86120892886A07A688621462846AD
:10C5C00007220B313430103CFEF7DAFD606AE86375
:10C5D00070BD00001C2C00207C15000010B50E4C16
:10C5E00004280FD005280DD007280AD1607E002826
:10C5F00007D00020607650DF0AE0E16B002900D010
:10C60000884710BD207E0028FBD0002002F03CFDB2
:10C610000028F2D110BD00001C2C002010B50B4CDE
:10C620000120207660760A484FDF002803D0E16BB6
:10C63000002900D08847012002F026FD002803D001
:10C64000E16B002900D0884710BD00001C2C0020A1
:10C65000E1F0010001490020087670471C2C002001
:10C66000BFF34F8F04490348C860BFF34F8F00BF2B
:10C67000FDE700000400FA0500ED00E00EB5002122
:10C68000029000916A4601910148FFF7E9FF00001E
:10C6900001400000014B1B6818470000602D00207E
:10C6A00038B50C46A2680C235A43064B09789D58AE
:10C6B000054A126A00920246204608302369A847BC
:10C6C00038BD0000E42F0020D828002010B506490E
:10C6D00014230A785A435118091DFFF7E1FF04207B
:10C6E00003F044FD10BD0000182F0020094B9B688B
:10C6F000002B07D0002A07D0002805D00068037C53
:10C70000002B03D008207047072070474174426116
:10C7100000207047FC280020FFB59007002581B05D
:10C7200014460E46002832D11B4F002C31D003F0A6
:10C73000D5FB0498786103203870334618212246CF
:10C7400000204B43BC601834C10089180D704D7037
:10C750008E704C601C19401C0328F5DBFD607D7059
:10C7600001240E48BD702405046003211420FFF746
:10C770007DF80B4804600B4C0198A0600321112048
:10C78000FFF774F860683861002005B0F0BD07203D
:10C79000FBE7BD60FBE70000FC28002080E200E032
:10C7A00000E100E000150140FEB50D461B491746AB
:10C7B0008968044600292AD0002C28D0052D01D2F2
:10C7C0000720FEBD6069002821D0607C012820D0B0
:10C7D000002604F083F8C0001049019089684018D1
:10C7E000694604F0A5F8002815D0012101700C4914
:10C7F000446049680830E2C00849019889684118D6
:10C8000068460078487003F0ABFE0020FEBD0820AB
:10C81000FEBD2E46DDE70420FEBD0000FC28002002
:10C8200000150140F8B5134D0446A96800291CD035
:10C83000002C1AD06069002817D00026267404F056
:10C840004DF8C700A8686946381804F071F8002848
:10C850000DD0022101704460A8683918684600783C
:10C86000487003F07DFE3046F8BD0820F8BD042076
:10C87000F8BD0000FC280020F0B50546007D00242E
:10C8800093B00E4600280DD00120014668461031B5
:10C8900003940173717B4173817BF92001406846E9
:10C8A000891C81731C2104A8FEF783FC6946087C5F
:10C8B00002210843694608742A7DEF21002A02D02C
:10C8C0001022104300E008406A4610740594079453
:10C8D0000894287D002800D003A8099001270A9415
:10C8E00010469771304A82800094B27B0270F27BCE
:10C8F00042708078F9221040F722801C1040EF210E
:10C9000008404108490068468170317B017214215A
:10C910000BA8FEF74EFC01A80B9068460C9087868A
:10C92000C486078702A80F90A888AB1D0BAA04A98C
:10C93000A2DF002835D1B068002830D06846877162
:10C940001A4981800094317C0170002001466846BC
:10C9500041708078F9210840F721801C0840EF21C0
:10C960000840410849006846817011A8B16800F08C
:10C9700093FC064614210BA8FEF71BFC01A80B90A4
:10C9800068460C908686C486068711A80F902A46B2
:10C99000E8880E320BA9A3DF002802D100E0EC8169
:10C9A000002013B0F0BD0000192A00000829000083
:10C9B00010B54F21094800F0A9FA00280CD008282A
:10C9C0000AD00749884207D00649884204D0FFF7B9
:10C9D00055FE05A001F0CAF910BD0000A02B0020F3
:10C9E00004300000013400004572726F72207570CF
:10C9F000646174696E672062617474657279206C19
:10CA00006576656C200D0A0010B5134C11481ECCDC
:10CA10001EC0FF21913110380161104981821049F7
:10CA2000C18259210183C32181760E4941621B30A5
:10CA300071DF040009D00CA001F098F92046FFF73F
:10CA40001DFE0448FFF7A8FD10BD15A001F08EF9EA
:10CA5000F7E70000B82B0020142800203412000053
:10CA600078560000B5CA01004F6F6F70732E2E20EC
:10CA7000536F6D657468696E672069732077726F94
:10CA80006E6720776974682067657474696E6720C3
:10CA900074686520616464726573732E2E0D0A00DC
:10CAA000476F7420746865206164647265737321D4
:10CAB000210D0A0010B5044603A001F057F92046E5
:10CAC000FFF7DCFD10BD0000426561636F6E206101
:10CAD000647665727469736572206572726F722113
:10CAE000210D0A00F0B50C4693B01F216A46118053
:10CAF000072600279180002809D0C17849070DD565
:10CB000002A9FFF7D8FB002809D102AD01E00025FA
:10CB10001780002C0ED0E078002802D0304613B0E9
:10CB2000F0BD01AA0AA92046FFF7C5FB0028F6D1EF
:10CB30000AAA02E068460022878068468088C3B25D
:10CB400068460088C1B2284672DFE8E770B50D4636
:10CB500004991646040042D0002E40D042480022DC
:10CB60004271C3600161242231464048FEF708FB50
:10CB700000F0D4F83D4934310846103801602031C6
:10CB8000816038215C38FEF714FB3848217838384A
:10CB90000170A1788170E178C1706178417062693B
:10CBA000216942610161E268A168C2608160014659
:10CBB000E369A269CB618A61616A002919D00146E3
:10CBC000AC310246B83241628A60636A1B880B80CE
:10CBD000616A436A898899800021436A06E00E20D1
:10CBE00070BD666AB668765C5654491C9E888E4253
:10CBF000F7D8A16A00291CD01C4AAC3211460C3966
:10CC00008A608162A36A9B888B80A16A836A098893
:10CC100019800021836A04E0A66AB668765C5654DF
:10CC2000491C9E888E42F7D82C210A5D0F4918397D
:10CC30000A73216A002909D00B4914310162226A62
:10CC400052884A80216A026A098811806168002935
:10CC500004D00549891D4160616841600348294647
:10CC60003838FFF73FFF70BDA4280020BC2D0020FE
:10CC700010B502881C4C102A17D00021112A1AD096
:10CC8000192A11D1807900280ED1607901281ED08F
:10CC9000022822D0032822D0042805D12171E2687D
:10CCA0000846002A00D0904710BD017D0129FBD124
:10CCB0008088208110BD6170808821898842F9D1E7
:10CCC000012005E021690029F4D0884710BD022029
:10CCD00000F02CF80028F5D110BD0320F8E7032060
:10CCE00020710420F4E70000A428002010B50228D9
:10CCF00001D003280ED1084C207800280AD000204B
:10CD00002070607900F012F8002803D02169002912
:10CD100000D0884710BD0000A428002010B50721CE
:10CD20000148FEF746FA10BDBC280020F0B5754C4E
:10CD300087B06071002606A8069602F099FE0127CA
:10CD4000082806D000286FD10698002802D0277046
:10CD5000D4E00696FFF7E2FF6B4D6878002802D01A
:10CD60006079012805D0A87800280AD060790228C7
:10CD700007D1E168002903D0E7700820884700E068
:10CD8000E6706079012808D16878002809D05D48EC
:10CD9000193002F029FE002803D06079022802D061
:10CDA0000CE002206071A878002805D055481930A1
:10CDB00002F01AFE002801D103206071287B0028B0
:10CDC00004D16079032801D104206071287E0028F5
:10CDD00004D16079042801D166712671E1680029C7
:10CDE0000AD06079032801D0042805D128780028CA
:10CDF00002D06078002818D0A67018216846FEF787
:10CE0000D8F9684606700196067203966079012883
:10CE10000FD0022816D03C4E243637465C3F0328FC
:10CE20001CD004285ED13BE069E0A770072088474A
:10CE3000E3E734481830019068460770468206825E
:10CE4000277152E02F4818300190684607702989F1
:10CE50004182A98801820220207146E0A88A6946A1
:10CE60004882288A08822848243003F0E3FD0028FD
:10CE700005D02878002802D06078002801D003204F
:10CE80002FE002206946087204200396F8701E48BD
:10CE900000213838FFF726FE002830D1052020E099
:10CEA000A88B69460882288C48821748243003F0F2
:10CEB000C1FD002805D02878002802D0607800281D
:10CEC00001D004200DE00220694608720420039678
:10CED000F8700D4800213838FFF704FE00280ED105
:10CEE000062020716079002803D0684673DF00288F
:10CEF00005D1E168002901D020798847002007B0DA
:10CF0000F0BD0000A4280020BC2D002073B586B021
:10CF100004002FD06A46217C127F0020914227D046
:10CF200000250126684600950680458007A80190E7
:10CF3000E188608A6A46A4DF002819D16846007F2C
:10CF40002074608A0D49884216D0207D002813D0B5
:10CF50000295039504950595E188684601818672DE
:10CF600041888181049001980590608A02A9A6DF1A
:10CF700008B070BD0E20FBE70820F9E7FFFF0000B6
:10CF800038B50D4604001AD0002D18D0286820604E
:10CF90000020C043608228792075FF202074012181
:10CFA0006846817007490180221D69460120A0DF83
:10CFB000002803D129462046FFF75EFC38BD0E202D
:10CFC00038BD00000F18000010B50A88102A06D0DE
:10CFD000112A06D0502A01D102F0AEFC10BD89887A
:10CFE00001E00021C943018010BD000070B5054675
:10CFF00001461C220E48FEF7C3F80E4C0026267090
:10D000002968002906D00822201DFEF7B9F8201D46
:10D010007ADF02E00748001D7BDF002807D1401EB1
:10D0200060806670044A00210448FFF75FFB70BD12
:10D03000A82E0020C428002079080200C00A02009F
:10D04000F8B5214C028800271E4DE689102A15D01C
:10D050001E49112A21D0122A2DD0502A1CD1C28853
:10D06000801DB24218D1028B022A15D1C27E837E66
:10D0700010021843C007C00F0CD112E081886980EC
:10D0800001461048082216310C30FEF779F86F700F
:10D09000002E01D100F0BEFDF8BD0020C043688025
:10D0A0006F700868FFF7BEFB0028F5D0A169002962
:10D0B000F2D08847F8BD811D024808220C30FEF7E7
:10D0C0005FF8E7E7C4280020A82E0020C00A02006D
:10D0D0007CB5054608880C460930904201D90C20E1
:10D0E0007CBD684671DF0028FAD121880820685489
:10D0F00020881B21401C80B220802954208800A950
:10D10000401C80B22080401906220131FEF738F819
:10D1100020886946801D80B220800978002900D0CF
:10D12000012129542088401C208000207CBD000063
:10D130007FB504460121684681714A4981804A4A87
:10D1400001A90120A0DF00287ED1228825463C3598
:10D15000002A09D044482B46801C0090434861684F
:10D1600000F00CFB00287BD12289002A0AD03E481F
:10D170002B460A3000903D48E168401F00F0FEFA5F
:10D1800000286DD1228A002A0AD037482B46123057
:10D19000009036486169001F00F0F0FA00285FD166
:10D1A000228B002A0AD030482B461A3000902F4894
:10D1B000E169801E00F0E2FA002851D1228C002A99
:10D1C0000AD029482B46223000902848616AC01EA8
:10D1D00000F0D4FA002843D1228D002A0AD0224838
:10D1E0002B462A3000902148E16A401E00F0C6FA22
:10D1F000002835D1216B00290ED002A803F023F9B5
:10D2000019482B46323000901848082202A9801F86
:10D2100000F0B4FA002823D1606B00280BD012492B
:10D220002B463A310091027901681048401C00F009
:10D23000A5FA002814D1A16B002910D002A802F091
:10D24000FBFB0948423000E00AE0009007482B460B
:10D25000072202A9273000F091FA002800D100200F
:10D2600004B070BD0A18000040280020292A0000E0
:10D2700010B5044600F0F8FE2046FFF7E1FE204618
:10D2800002F004FB2046FFF7F3FC21460148FFF7BC
:10D290009BFE10BDE02B00200A7802704978417097
:10D2A0000220704710B586B0002348222849082084
:10D2B00002F0ACFF002801D0FFF7E0F96A46012137
:10D2C000002002F08BFF040032D0224800F04EFD17
:10D2D0002046FFF7D3F9204802F04CFE002801D089
:10D2E000FFF7CCF9022069460880684602F06CFF1F
:10D2F000040021D019A000F039FD2046FFF7BEF947
:10D30000244802F057FF04001AD023A000F02EFD9D
:10D310002046FFF7B3F9304802F090FF040013D025
:10D320002EA000F023FD2046FFF7A8F906B010BD9F
:10D330003AA000F01BFDCEE746A000F017FDDFE7A6
:10D340004DA000F013FDE6E755A000F00FFDEDE75E
:10D35000582B0020EC0B0200001E00204F6F6F7056
:10D36000732E2E20536F6D657468696E6720697324
:10D370002077726F6E67207769746820656E6162CE
:10D380006C696E6720736F66746465766963652E79
:10D390002E0D0A0071D201004F6F6F70732E2E2078
:10D3A000536F6D657468696E672077656E7420775A
:10D3B000726F6E672077697468207265676973742D
:10D3C0006572696E6720746F20424C4520657665F2
:10D3D0006E74732E2E0D0A00310402004F6F6F70B1
:10D3E000732E2E20536F6D657468696E67207765A4
:10D3F0006E742077726F6E6720776974682072652B
:10D40000676973746572696E6720746F205359532E
:10D41000206576656E74732E2E0D0A00536F667448
:10D4200064657669636520636F6E666967757265AA
:10D43000642077697468206C696E6B7320616E6418
:10D4400020626C6520706172616D65746572732114
:10D450000D0A0000536F6674646576696365206524
:10D460006E61626C65642073756363657373667562
:10D470006C6C79210D0A0000536F667464657669DF
:10D480006365207265676973746572656420666F91
:10D490007220424C45206576656E7473210D0A003A
:10D4A000536F667464657669636520726567697336
:10D4B000746572656420666F7220535953206576D7
:10D4C000656E7473210D0A001CB5044681786A46A6
:10D4D0000C4802F0E1FA002812D160781C21484380
:10D4E00009491C2340181A46694602F08FFB06487A
:10D4F00006494030807A80000A58214668469047A5
:10D500001CBD00009C280020202D0020A00A020045
:10D51000F0B54C4A04460FCAA5B018AD0FC54A482D
:10D5200020AA108122AE18A8B11C63DF1C21684616
:10D53000FDF73FFE6A4610780A2100250843691C62
:10D540000907090F18AA10311E951176691C0907E1
:10D55000090F10315176937EF9210B409B1C937675
:10D560001EAA0592102210436A46107018AA1F9531
:10D57000907F0840801C90771120107750771421FD
:10D580000CA8FDF716FE1FA80D900C9601206A4608
:10D5900090871087782020AA107424A810906088A3
:10D5A000231D0CAA6946A2DF071E01D0FFF766F80B
:10D5B000264820A9888021AE18A8891D63DF002F86
:10D5C00002D03846FFF75AF81C2111A8FDF7F1FDEB
:10D5D00010AA10790A21084318AA11211C95117468
:10D5E0005174937CF9210B409B1C93741CAA1692D6
:10D5F0001022104310AA107118AA1D95907D0840A2
:10D60000801C9075112010755075142107A8FDF726
:10D61000D0FD1DA80890079601206A4610859084C9
:10D620007F2020AA107323A80B90234660880C3318
:10D6300007AA11A9A2DF002801D0FFF71FF80020D8
:10D6400025B0F0BD700A020012FA000003D00000FD
:10D6500030B502880B4B85B09A4211D001246A463E
:10D66000148200230093019302930393858915800C
:10D670009470938004AA0391029200886946A6DF01
:10D6800005B030BDFFFF000010B5104B04460FCBB6
:10D6900086B003936B4607C30D4869460882123172
:10D6A000684663DF002801D0FEF7E8FF0020C04392
:10D6B0002080A21C04A90120A0DF002801D0FEF7D1
:10D6C000DDFF2046FFF724FF06B010BD800A0200F0
:10D6D000BACF000030B502880B4B85B09A4211D00A
:10D6E00001246A461482002300930193029303935A
:10D6F000858815809470938004AA03910292008813
:10D700006946A6DF05B030BDFFFF00000022D2430E
:10D71000830004490428CA5002D308182030027438
:10D7200070470000C42E0020F0B50025ED43002A0C
:10D7300002D00023042601E0042305260A4C04E05D
:10D740009F00E7597F1C04D05B1CB342F8D32846E6
:10D75000F0BD5DB2261835759E00A151002AF6D1A4
:10D76000E11820310874F2E7C42E0020024909189C
:10D770001420085670470000C42E0020FFB58FB05B
:10D780001E4615460F0002D10020FEF777FF002D40
:10D7900002D10020FEF772FF1C216846FDF709FD4B
:10D7A0006846017802200143684601700024019414
:10D7B000039404940594012108A806948170684696
:10D7C0000F99018407943178017771784177807FD0
:10D7D000F9210840F721801C0840EF21084041084A
:10D7E000490068468177142109A8FDF7E2FC08A8E2
:10D7F000099007A80A9068468585C485058604486F
:10D800000D9709AA69460088189BA2DF13B0F0BDE6
:10D8100040280020F8B53E481422017851430C18E6
:10D82000E0680C2148433A492769CC314018058902
:10D8300041890091241D466802F0BCF90146384632
:10D84000FDF774FC002932D000200099A2884D43D6
:10D850006188AE198918CD1900222E4900280A6165
:10D8600009D002F0A7F96188884222D0B54202D1DE
:10D87000A08800281DD0A06802281AD002F09AF9CA
:10D88000A188CA1901461046FDF750FC214C8808B2
:10D89000E06002F08FF901462846FDF747FC0029B9
:10D8A00011D00020B5422FD000280ED02CE001204E
:10D8B000CBE702F07FF901463846FDF737FC154902
:10D8C0004861032021E00120ECE7ADB2B7B202F0DD
:10D8D00071F901463846FDF729FC064602F06AF95F
:10D8E00001462846FDF722FC864201D1781B09E05B
:10D8F00002F060F9064602F05DF901462846FDF7A0
:10D9000015FC701A80082061022002F02FFCF8BD7F
:10D91000182F0020D828002010B5074814220178BD
:10D92000514308180079042802D000F059F810BDBE
:10D93000012002F01BFC10BD182F002010B50B4871
:10D940001422017851430818094AC18811620079EC
:10D95000012806D0032801D0042801D1FFF75AFF7F
:10D9600010BD012002F002FC10BD0000182F0020A5
:10D97000D828002014225043054A00218018017144
:10D98000C18001220161C2604161018170470000D4
:10D99000182F0020F8B5104C069E65780A2D19D076
:10D9A00027787D190A2D00D30A3D14277D432D19B0
:10D9B00028716A6103C92961E860EB802E81607873
:10D9C000401C607005480078002801D1FFF7B6FFC1
:10D9D0000020F8BD0420F8BD182F0020D828002012
:10D9E00010B50D4C14212078484301190020091D61
:10D9F000FEF756FE2078FFF7BDFF6078401E60708E
:10DA00002078401CC0B220700A2801D1002020706C
:10DA1000002002F0ABFB10BD182F0020F8B5234802
:10DA2000C16800293ED00E6821494C680769C0785A
:10DA3000E11B0D022D0AED1C002814D101201D4A06
:10DA4000000450601B4A403A50601B494000086087
:10DA50001A4908601A49012008602F20FDF73AFB97
:10DA600012490120C870B54200D23546E8190002BB
:10DA70000F4B000A403318600D4A5168001B091B08
:10DA80000902090A0002000AC91C814209D950682A
:10DA900018602F20FDF71EFB012007494004803944
:10DAA0000860F8BD02F01AFAF8BD0000FC2800205A
:10DAB000001501404013014080E200E000E100E079
:10DAC00000100140F8B50646108814468446801DB3
:10DAD0000D46984201D90C20F8BD32880720062A4D
:10DAE000FAD31927FF01184BBA4201D99A42F3D150
:10DAF00071880629F0D3B94201D99942ECD19A42F2
:10DB000003D0994201D08A42E6D8052160462954C3
:10DB100020881221401C80B2208029542088401C7B
:10DB200080B220804119308802F096FE218840188A
:10DB300080B220804119708802F08EFE2188401842
:10DB400020800020F8BD0000FFFF000010B5044653
:10DB500003A000F00BF92046FEF790FD10BD000079
:10DB6000436F6E6E656374696F6E20706172616D74
:10DB70006574657273206572726F7221200D0A00E0
:10DB800010B588B01C216846FDF713FB0521C903B9
:10DB900001910F210904002002910090032269469F
:10DBA0000A73C88108740A4805900A4806906846B6
:10DBB000FFF71CFA040007D0074800F0D7F820460A
:10DBC000FEF75CFD08B010BD04A000F0CFF8F9E747
:10DBD00085F901004DDB0100EC0B0200536F667408
:10DBE00064657669636520636F6E666967757265E3
:10DBF000642077697468206C696E6B7320616E6451
:10DC000020626C6520706172616D6574657273214C
:10DC10000D0A0000F8B5164800F0F0FF144D00267C
:10DC20000C3D144C002807D0616900291CD001204C
:10DC30006A461070684616E02878002805D06169A9
:10DC4000002911D0684606700DE0687800280DD0D4
:10DC5000A168094800220068FEF7A6FD002803D04D
:10DC6000A169002900D088472E70F8BD6168F0E7EF
:10DC7000D0280020A82E0020C00A020070B5094B51
:10DC800004469E7A082000250E4207D006488442AA
:10DC900002D01889A04202D10020156070BD052075
:10DCA00070BD0000542D0020FFFF00000C214843F0
:10DCB000064910B5012240188272911E0181FF2190
:10DCC000C1720721FDF775FA10BD0000542D002028
:10DCD00010B5134C207900071FD46069401C6061A7
:10DCE000E068002801D0042004E000F0B9FF00281B
:10DCF00003D0022002F092FB10BD2069002809D059
:10DD00006068C10701D00320F4E701210843606087
:10DD10000020EFE7FFF700FE10BD02F073FB10BD1F
:10DD2000D828002010B5084841680A0708D48A0797
:10DD300002D5012211434160022002F06FFB10BDA9
:10DD400002F060FB10BD0000D828002000B589B0AB
:10DD5000202205496846FDF713FA0021684601F0C4
:10DD60004BFC09B000BD0000500A02000FB400B522
:10DD7000C1B0FF2143AB01316846429AFDF710FE66
:10DD8000002803D0C1B2684601F09AFC41B008BC3B
:10DD900004B01847FEB50E46044681786A4623480B
:10DDA00001F07AFE002827D160780C21204F4843EB
:10DDB000C019807A400620D4022E1ED0012E1ED01B
:10DDC0001C4DA0781C21484319490023F8394118FB
:10DDD0001C226846A847002813D0022E0CD02078B9
:10DDE0000C21484312490C314018807A12498000B6
:10DDF0000A58214668469047FEBD104DE1E7104D98
:10DE0000DFE7022EF8D060780C214843C019817AF0
:10DE1000BF221140817260781C2148430449343983
:10DE200041181C231A466846A847D8E79C280020BA
:10DE3000542D002089030200900A02004DFE0100CB
:10DE400071FD010070B50546114A124800241C23DB
:10DE500063431B189B7EFF2B04D0641C072CF6D356
:10DE6000104670BD0A78022A09D01C22624310189D
:10DE7000FD22827607221030FDF782F904E01C2192
:10DE800061430818FE2181762C700022E8E700002B
:10DE9000438000005C2C0020F7B505250F4F064697
:10DEA0000024002E0AD01C206043C01907223146EE
:10DEB0001030FDF789F9002807D00AE01C206043E4
:10DEC000C019018B0298814203D10198002504609A
:10DED00002E0641C072CE4D32846FEBD5C2C002025
:10DEE0007CB5054681B26A46074801F0D5FD0400BD
:10DEF00008D15421684601F0F9FD040002D12846FA
:10DF000001F07EFD20467CBD9C28002010B5144603
:10DF100004A0FFF72BFF200001D0FEF7AFFB00208D
:10DF200010BD0000444D206576656E74210D0A0019
:10DF30001FB56946087301F043FE040033D0204842
:10DF4000FFF714FF2046FEF799FB03A800F084FAC0
:10DF500004002CD01BA0FFF709FF2046FEF78EFB24
:10DF600001A805210130FDF724F96946487901220D
:10DF70001043E1210840DF210C3008406946487118
:10DF8000072088711020C8711D4800900A711D4833
:10DF900000F074FB04000ED01B48FFF7E7FE20469C
:10DFA000FEF76CFB1FBD19A0FFF7E0FECDE721A037
:10DFB000FFF7DCFED4E724A0FFF7D8FE1FBD00006A
:10DFC000A80B02004F6F6F70732E2E20536F6D657C
:10DFD0007468696E672077656E742077726F6E67FC
:10DFE000207769746820696E697469616C69736906
:10DFF0006E672074686520444D2E2E0D0A000000C7
:10E000000DDF0100012800205C0B020050657273D7
:10E01000697374656E742073746F72616765206DC7
:10E020006F64756C65206973207265616479210D78
:10E030000A000000444D20696E697469616C69735F
:10E040006564210D0A00000052656769737465728A
:10E05000656420706172616D657465727320666FAE
:10E060007220444D210D0A00F0B5054693B0002002
:10E070000290FF24EC480E940078002849D0EB4F22
:10E080003868002845D001A800F0D8F9002801D050
:10E09000FEF7F4FA281D05902A2069460883FF2020
:10E0A000002688710E710396E04C28880C3C1028DD
:10E0B0000ED0A88803AA0221FFF7E0FD002807D1AF
:10E0C00003980C2141430919CA7A69468A7148713B
:10E0D0002888132217287CD00FDC10281BD0112889
:10E0E00053D0132876D0142813D103980C21484319
:10E0F0000019C07AFF2871D08DE0CD4918286BD067
:10E100001C286AD0522804D1B87A8000095801A886
:10E11000884713B0F0BDC74F03AA01213846FFF767
:10E12000ADFD0028F5D103990C20484302220019C7
:10E13000827211236A4613745171A98801810722E2
:10E14000A91DFDF71DF8687DC10707D04108B64835
:10E150000830405CFF2808D00E9006E03A460EA931
:10E16000A81DFFF799FE00280ED103990C225143F8
:10E1700009190E98C8728A7A08231A438A72694666
:10E18000887101A8FFF7A0F939E103980C214843F1
:10E190000119887AFD2210408872010706D5C0094E
:10E1A0000DD0002101A8FFF7F5FD08E06846807951
:10E1B000FF2804D001F024FCFF20694688710398F1
:10E1C0000C225043102100198172122069460874F4
:10E1D00015E17FE030E001E0D5E00EE1EA890EA92B
:10E1E0000020FFF759FE00280ED103980C2250435F
:10E1F00000190E99C172837A08221343837268460C
:10E20000817101A8FFF760F903980C2148430019B8
:10E21000C07AFF2806D003981C214843834940391F
:10E220004018029003981C21484383494218A8884B
:10E230000023029982DF6CE768460274039B0C207E
:10E2400058430119887A042210438872C87AFF283B
:10E2500030D01620694608741820434373480E21B5
:10E26000243818180830FCF7A4FF03980C21484301
:10E270000019817A40221143817203990C220020F7
:10E280004A430A901219D27A1C235A436A4B0C90C3
:10E29000D2180B921C2251431A46C4328918079196
:10E2A000089009903A1DA88807AB00217FDF00285D
:10E2B000C1D1A4E00EA8FFF7C5FD002801D0064695
:10E2C000DBE769460E98887103990C2251430919BE
:10E2D000C872D2E7787A400840007872039A0C201E
:10E2E0009446424311198B7AFB2003408B72142011
:10E2F0006F463874A879002804D0C87AFFF7F0FD7B
:10E30000AE797CE0E879400779D5B879FF2876D0F6
:10E3100008273B438B72EB7A9B0708D51C250346E5
:10E320006B43454D5B199D7E6D086D009D76CB7AE4
:10E33000FF2B64D0A25C022A10D01C2250433E4D19
:10E34000072240191030FCF71BFF684680791C211A
:10E3500048434019817EFD2211400EE061461C2297
:10E360005143324A403A89184A8A1C21484332496B
:10E3700040180283817E490849008176012101A865
:10E38000FFF708FD3BE0A8790209012A23D1000725
:10E39000000F01281FD103980C2242431219927AD0
:10E3A000120718D5182148432049243940180E2156
:10E3B0000830FCF7FEFE16206946087403980C210D
:10E3C00048430119887A602210438872787A0221C2
:10E3D000084378720FE003980C2250430019827AA8
:10E3E00080231A43827215206A461074B87A80001E
:10E3F000095801A88847002601E0684602743246A1
:10E4000004A901A8FEF746F96846007C122800D04E
:10E410007FE603980C2141430919897A0129F7D035
:10E42000FFF744FC75E600008C280020602D0020DA
:10E43000B00A0200FFFF00005C2C0020002806D07C
:10E44000FF21017041708170C17000207047014848
:10E45000704700000E800000F0B585B0040036D093
:10E46000294800250560457285722846FFF71EFC85
:10E47000254818212438FCF79CFE0026FF2730464B
:10E4800001F0BEFA21488755761C072EF7D3542198
:10E49000684681800721C1801D481C4900900831D1
:10E4A000684601F007FC00280FD1184E0120083EF5
:10E4B0003070207800280CD069468888C988484385
:10E4C00081B23046103001F011FB05B0F0BD1148AB
:10E4D000FBE7114F00240D48A1B202AA083001F059
:10E4E000DBFA002809D11C206043C01900231C223C
:10E4F00002A901F08BFB002801D03570E5E7641C10
:10E50000072CE8D3E1E70000602D002094280020CC
:10E510001DE501000E8000005C2C0020FFB5544872
:10E520008FB00068189F1E4600284FD0542F4DD83A
:10E530006846FFF783FF002801D0FEF79FF800240C
:10E54000684604700471254605970696A9B20DAA7F
:10E55000484801F0A1FA002806D108220DA90F9819
:10E56000FCF732FE002819D06D1C072DEED368464B
:10E5700080780790FF2829D010982025032810D0F4
:10E580003D481C21301AFCF7D1FD012707282DD268
:10E5900004A80290119800281AD021E068468570DE
:10E5A000E5E7542F03D040206946087101E0684632
:10E5B000057169460879032108436946087104A872
:10E5C000029001A96846119AFEF764F813B0F0BDF5
:10E5D0000799384688402749103949680842F5D0DC
:10E5E000079802F03FF96846057138E020481C2181
:10E5F0004038301AFCF79AFD00280BD01C4D18212A
:10E60000243D701BFCF792FD00281AD0402069467B
:10E610000871DBE704A8029068460571447014484D
:10E620000A940C300B904C380790684680781C2177
:10E63000484311494018089007A8069018200590F3
:10E640000DE03021684601714470C77008480C38ED
:10E65000807A800703D428461821FCF7AAFD109879
:10E6600069460228087901D00221A5E73843A5E7C9
:10E67000602D00209C2800205C2C002070B50646F0
:10E6800018480D46007800280ED01749002E0ED0ED
:10E69000002D0CD02868002809D0144C21680029CE
:10E6A00007D011480A3870BD0F48801F70BD08465A
:10E6B00070BD20600522691D201DFCF761FD2879D1
:10E6C000A072207A0221400840000843FB2210403B
:10E6D0002072E0790123184308431040E0710020C4
:10E6E000307070BD8C2800200E800000602D00204E
:10E6F00038B50948006969460002C00F074C087028
:10E700002178884203D069460548FEF7A1FF684694
:10E710000078207038BD000000050050002800205F
:10E72000E02B002010B50E4900234A788C78A242D5
:10E7300012D0521CD2B24A70022A00D14B704A78D1
:10E74000074B920018339A580260086910180002AB
:10E75000000A0861012010BD0360002010BD000008
:10E76000FC28002010B5002803D0112802D0FDF7A6
:10E77000ADFF10BD0248082241681143416010BD41
:10E78000D828002010B51C4C21782046406801296B
:10E7900006D0022929D0032912D1000717D513E08A
:10E7A000000711D415481422017851430818C18874
:10E7B000A28B891A0904090CC18002D001F0E6FD80
:10E7C00010BDFFF70DF910BD00F0CAFD10BD606966
:10E7D000401C606100F044FA002803D0207801F06A
:10E7E000C5FC10BDFFF798F810BD607804498000A3
:10E7F0000858804710BD0000D8280020182F00209E
:10E80000F80A020010B528DFFFF7ACFF10BD10B505
:10E8100029DFFFF7A7FF10BD3EB51120694608723A
:10E820000A221BA102A87CDF040025D01BA0FFF751
:10E830009DFA2046FDF722FF002078DF04001FD05C
:10E8400024A0FFF793FA2046FDF718FF0020FF21D0
:10E85000913100906A46019011804B005380908066
:10E86000D18068467ADF04000ED02948FFF77EFA8F
:10E870002046FDF703FF3EBD26A0FFF777FADBE752
:10E8800029A0FFF773FAE1E72CA0FFF76FFA3EBD6E
:10E890004564647973746F6E655000004F6F6F70DC
:10E8A000732E2E20536F6D657468696E67207765CF
:10E8B0006E742077726F6E67207769746820736555
:10E8C0007474696E6720746865206E616D652E2EA4
:10E8D0000D0A00004F6F6F70732E2E20536F6D6501
:10E8E0007468696E672069732077726F6E6720772E
:10E8F0006974682073657474696E67207468652034
:10E9000061707065617272616E63652E2E0D0A0012
:10E91000300C0200446576696365206E616D652088
:10E92000736574210D0A0000417070656172616E3B
:10E93000636520736574210D0A000000436F6E6EDD
:10E94000656374696F6E20706172616D6574657264
:10E950007320736574210D0A0000000000207047C9
:10E960000020704700207047F8B50646407818210F
:10E9700004464C4324490C2250436118224A002586
:10E980004B6818328018AE462F469C46002B0CD0A0
:10E99000827A1346D20908D05A0606D40D461A4A7E
:10E9A000614689B2175908358E46174C00891834CC
:10E9B0003B4672462946A9DF0B2819D0002800D013
:10E9C0001248012F13D170780C2148430019008997
:10E9D0000F4AA7DF00280AD00E49884212D0082823
:10E9E00010D0891C88420DD011280BD00020F8BD12
:10E9F00070780C214843012300190089724629468A
:10EA0000A9DFE0E70148F8BD3C2D0020418000006F
:10EA1000FFFF00000230000070B50C460146607830
:10EA20001822084D50434019382301F0EFF8002810
:10EA300007D161781822514349194A68521C00D104
:10EA40004A6070BD3C2D0020F3B585B00D460E2008
:10EA50006946088268780C2103274843224E3B46CA
:10EA60008019008904AA6946AADF002838D168788D
:10EA700018214843741A001969460A8A0830FCF7BD
:10EA8000A3FB0028687807D018214843011949687A
:10EA900000290DD0154E0CE00C2141438919897ACB
:10EAA00089071DD4182148430019FCF782FB17E0A1
:10EAB0000F4E27506846028A68781821484300198B
:10EAC000426068784843001969460830FCF758FBF3
:10EAD0006878182148430119382318220598B0474F
:10EAE000002007B0F0BD0000542D00204DFE0100B5
:10EAF00071FD010010B5FFF737FF10BD10B5FFF72E
:10EB00008BFF10BD10B5FFF79FFF10BD70B51B4CFC
:10EB1000207900072ED41A481422017851430D1889
:10EB20002E6901F047F80146E8882A89761E801888
:10EB30008019FCF7FBFA21690025002909D06169D9
:10EB4000814206D1E56060680121084360600020D1
:10EB50000AE000F085F8002802D00220E56003E01A
:10EB60002069002803D0032001F058FC70BDFEF797
:10EB7000D3FE70BD01F046FC70BD0000D828002017
:10EB8000182F0020F8B51C4C2078002833D02069BD
:10EB9000002807D00026E068002805D00025002EB8
:10EBA00004D011E00126F6E70125F8E7684652DFB8
:10EBB000052804D0002804D0FDF760FD04E00126FC
:10EBC00002E0216900988847002D10D160886946CD
:10EBD0000880A06861DF052804D0002804D0FDF774
:10EBE0004DFD04E0012502E0E168A0688847002EA1
:10EBF000DCD0002DD3D0F8BD1C2900204188054869
:10EC00000288914204D34088814201D80120704794
:10EC100000207047C82800201048018CC9B2012983
:10EC200017D1818C090714D1018D09060A0F03D170
:10EC3000828D1206120F0ED0090F012903D1828D89
:10EC40001206120F07D0032903D1808D0006000F92
:10EC500001D000207047012070470000C00F00F075
:10EC600070B50E481422017851430C18256900F044
:10EC7000A1FF0146E08822896D1E80184019FCF72B
:10EC800055FA07494A69824206D3824202D108698D
:10EC9000002801D0002070BD012070BD182F002079
:10ECA000D8280020800701D000207047012070473D
:10ECB00030B51588EC1C9C4201D90C2030BD0224D3
:10ECC0004C5513881C255B1C9BB21380CD541388B4
:10ECD0005B1C9BB21380012807D0022807D00328B1
:10ECE00007D0042807D0072030BD002004E0012011
:10ECF00002E0CC5401E00320C8541088401C10806E
:10ED0000002030BDFEB50027134D3C460297A600FB
:10ED1000A85902A900F01CFC002801D0FDF7AEFCA8
:10ED2000A959FF208A000D49023051180860641C5F
:10ED3000022CECD9002317203C4600971A461946AE
:10ED4000019700F007FD002217200094234611468A
:10ED5000019400F0FFFCFEBD2428002000070050B5
:10ED600010B5054A80001058002902D000F0E8FBD9
:10ED700010BD00F039FC10BD24280020F8B52C4946
:10ED8000C8680A690C780F798968864694460091AC
:10ED90003EE00099E20055182A7836E018235343E4
:10EDA0006968521CC918AB78D2B2934200D10022D4
:10EDB0000B78022B02D0032B27D123E04E680346A9
:10EDC000014603E0B14204D00B46C96900291CD0BA
:10EDD000F8E7002919D08B4208D1C069002805D175
:10EDE000144F0126BE600026B44601270E68C9698B
:10EDF000D961002909D00B689B190B6005E00174EB
:10EE0000C06900E000210028F9D169789142C5D19C
:10EE10002146641EE4B20029BBD1054962460A615D
:10EE2000C8600F71704501D00120F8BD0020F8BD09
:10EE3000FC28002000100140F8B5044631480026A7
:10EE4000C168009107784EE02E48F90080680D18DF
:10EE500043E0002C02D02046E4691FE02878182106
:10EE600041436A68401CC0B251182870AA78904289
:10EE700000D12E700A784868012A30D1027C002A1D
:10EE80002DD18A684260CA6882600A69C260496995
:10EE900081611C490979002900D0466019494368FD
:10EEA0000A699C46991A0902174B090A994202D22B
:10EEB0008268891807E06146511A09028268090AC6
:10EEC0008A4202D9511A016000E0066046600121C1
:10EED00086600174C66101F04BFB002CB9D1287823
:10EEE00069788842BAD138467F1EFFB20028ABD17C
:10EEF0000448C1680098814201D00120F8BD00207B
:10EF0000F8BD0000FC280020FFFF7F00074801211A
:10EF10000170017100214171014620397D230A6988
:10EF2000DB005A438A62CA69CA6270473C2C0020DF
:10EF300010B500F039F812490122CA631249114B89
:10EF40004B61124B8B61FF2304334B63104B8B637C
:10EF50000A63104B03221A600A610B4B962240335E
:10EF60005A600D4B10225A608E224A620B4ACA61C7
:10EF70000B4ACA6348600B490220086010BD0000BC
:10EF8000C01F0040060102000015004025000302DA
:10EF90005B060000001200400013004000D6BE894E
:10EFA0005555550000E100E0F8B51B4C422020709B
:10EFB0000025657021460226A5700327E01C062265
:10EFC0005D31FCF7DDF866720120A0720620E07268
:10EFD00027736773AA20A073FE20E0730D202074AE
:10EFE00016206074AA20A074FE20E0741020207502
:10EFF000C3206075A5756720E0756F202076607668
:10F000006720A0766C20E0766520207765771B204E
:10F0100060702046F8BD0000F42B0020F8B50124F4
:10F0200001280DD0FF260A4D91360A4F02280DD037
:10F03000032804D1272000F03BF8EC603E60F8BDC7
:10F04000252000F035F804480460F8BD2620F2E7DA
:10F0500000800040408500400010004010B5084886
:10F06000064C4461074901610549801540394860F3
:10F07000FFF75EFF0120206110BD0000001000407E
:10F0800040F50140408100400146074800220270DF
:10F0900001220271417101462039CA698A62034A1C
:10F0A000CA6251DF704700003C2C002040420F0034
:10F0B0000A4A0A494032252808D026280AD027289B
:10F0C00003D150208860272050617047022088605B
:10F0D0002520F9E71A2088602620F5E70015004072
:10F0E00070B5194D002169602C1F2970002809D0C6
:10F0F000164E02280AD0F16B002901D0082088475B
:10F10000114870BDFFF7AAFF01200BE0104802690B
:10F11000012AF5D101612078FFF780FF20780428CB
:10F1200002D0401C2070EBE7FF200A4901308860C4
:10F13000307E002804D0FFF7E9FE6860032000E07D
:10F1400002202870DCE70000342800201C2C00205E
:10F150000011004000F50140FEF7F8FD2EA0FEF77B
:10F1600005FE00F0C3F904004AD035A0FEF7FEFD0D
:10F170002046FDF783FAFFF7C5FD3FA0FEF7F6FD39
:10F1800001F056FAFEF78EF8FDF73EFC2846FEF732
:10F19000CFFEFFF741FBFDF799F900F03BFFFEF7CB
:10F1A000EFFC3E480121002209040068FDF7FCFA4B
:10F1B000040029D03AA0FEF7D9FD2046FDF75EFAFB
:10F1C0000320FDF7B3FD040022D03FA0FEF7CEFDE3
:10F1D0002046FDF753FA01210020FFF7C1FD002171
:10F1E0000120FFF7BDFD00210220FFF7B9FD44A07B
:10F1F000FEF7BCFD48DF0028FCD0FDF73FFAF9E739
:10F2000043A0FEF7B3FDB6E747A0FEF7AFFDD7E793
:10F210004CA0FEF7ABFDDEE7446562756720706FBA
:10F220007274206F70656E65642E2E2E20496E6993
:10F230007469616C6973696E672E2E2E0D0A000069
:10F240004F6F6F70732E2E20536F6D657468696EEB
:10F25000672069732077726F6E6720776974682002
:10F26000696E697469616C6973696E67204750499A
:10F270004F54452E2E0D0A0056697375616C206639
:10F280006565646261636B2073686F756C6420628E
:10F290006520616374697665210D0A00440A0200E5
:10F2A0004572726F7220776974682073746172742A
:10F2B000696E6720626174746572792074696D6526
:10F2C000722E0D0A000000004F6F6F70732E2E20FB
:10F2D000536F6D657468696E672077656E7420770B
:10F2E000726F6E67207769746820737461727469D5
:10F2F0006E6720616476657274732E2E0D0A0000AD
:10F30000526561647979792E2E200D0A0000000083
:10F310004750494F544520696E697469616C69733F
:10F320006564210D0A0000004261747465727920E1
:10F3300074696D65722073746172746564210D0A5D
:10F34000000000004164766572746973656D656ED6
:10F350007473207374617274656421210D0A000056
:10F3600010B504480822416891434160007800F0DC
:10F37000FDFE10BDD828002070B5144682880E46C8
:10F3800005462088111D4118921C994201D8FE2A79
:10F3900001D90C2070BD521C32542088FF21401C22
:10F3A00080B2208031542088401C80B22080811996
:10F3B000288801F051FA2188401880B22080AA885C
:10F3C000002A09D0A968002908D08019FBF7D8FEC7
:10F3D0002088A98840182080002070BD072070BDBB
:10F3E000F8B50F46017814460546012902D1687820
:10F3F000002806D02088821C9A422DD8012902D0EC
:10F4000006E00720F8BD69784118891C994223D885
:10F41000181A801E86B2684606802188B81C081813
:10F4200069467DDF0028EDD12878022805D169469C
:10F430000988B14201D809210AE00821012805D133
:10F440006878B04202D86A46108001E068460680BB
:10F4500068460088FE2801D90C20F8BD2288401C8F
:10F46000B8542088401C80B22080395420886946D6
:10F47000401C20800988401820800020F8BD002012
:10F480007047002070470020704700008207D30EAD
:10F49000FF229A408907090E10B5994000280BDA1F
:10F4A00003071B0F083B9C080C4BA400E318DC6906
:10F4B00094430C43DC6107E08408094BA400E41882
:10F4C000236893430B432360C106C90E0120884083
:10F4D000044908600449086010BD000000ED00E028
:10F4E00000E400E080E200E000E100E070B5124DD1
:10F4F000687D002801D0082070BD0F490020203908
:10F50000421E0B18401CC0B21A752028F9D30024E3
:10F510002046FEF7FBF8641CE4B2052CF8D3032167
:10F520000620FFF7B3FF01200449C007486001200F
:10F530006875002070BD0000E42E002000630040CC
:10F54000012181400148C160704700000005005062
:10F55000FEB5044620480D460019142141560026E8
:10F56000491C01D0082633E0A97800291DD00122CA
:10F5700000212046FEF7D8F8411C14D0830017481C
:10F580002A78181869780369154F3B4003610369AD
:10F59000E706FF0C9207920BC907C90A3B430A43CF
:10F5A0001343036104E0042612E00121C9430175FD
:10F5B0006A780120A0400B49012A0BD0C8600021C5
:10F5C00000910B46012201912046114600F0D4F82B
:10F5D0003046FEBD8860F2E7C42E00200065004082
:10F5E000FFE0ECFF000500500121814001488160EF
:10F5F0007047000000050050F3B52A4C0746E07E36
:10F6000081B0002801D00820FEBD002F00D1264F78
:10F61000386800F0DEF8387801263146814023480A
:10F6200081600021786800F0CBF8214DB8696862EC
:10F63000787D397D0843E86603CFE8606961387BEF
:10F64000083F01280FD10021B86800F0B9F8F86828
:10F6500000F0BFF8387B3146814014488160F9687A
:10F66000B868A96028610298606039692160002843
:10F670000ED0FF230F481D33397F0022C250FF23D5
:10F680004533C2500D4A0C4850600220FFF7FEFE81
:10F69000042028600020E0752076A075E676A0762C
:10F6A000FEBD0000FC2E0020C40A02000005005030
:10F6B00000250040002000408000020000230040A0
:10F6C00010B5064A937D002B01D0112010BD917515
:10F6D00090600020908200F003F810BDFC2E002006
:10F6E000F8B50026194FFF251D357E510120B86061
:10F6F00000F0F8FF164C6168002910D022E0FF27C7
:10F7000001372946114800F089F8002802D1A08A63
:10F71000B842F6D1A08AB84201D000F0E3FFA08A37
:10F72000A17D8842EBD3A18AC81FF9380CD0074FBE
:10F730002946384600F072F80028F9D00120F86018
:10F740000020A0753046F8BD0F26F9E700200040E4
:10F75000FC2E002030B552000A439900039C0A4356
:10F760002102049D0A4329040A43024980004018EB
:10F77000026030BD0007005030B552000A439900C6
:10F78000039C0A432102049D0A4329040A430249B7
:10F7900080004018026030BD0007005030B55200B4
:10F7A0000A439900039C0A432102049D0A43290449
:10F7B0000A43024980004018026030BD0007005033
:10F7C0001CB500220B46009211460192FFF7E6FF9E
:10F7D0001CBD1CB5002100910B4601220191114670
:10F7E000FFF7DCFF1CBD000082000648101802680D
:10F7F00003231B049A430260026809040A4302605F
:10F8000070470000000700500349401800680128B5
:10F8100000D00020704700000060004040580028E1
:10F8200000D001207047032212028018406808406F
:10F8300000D001207047000010B5002805D0032833
:10F8400002D105A0FEF792FA10BD0AA0FEF78EFACB
:10F850000320FDF76BFA10BD456E746572696E6723
:10F86000206661737420616476657274732E2E2E27
:10F87000200D0A00456E746572696E672049646CDC
:10F8800065206D6F64652E200D0A000070B5054679
:10F890000088174C102816D0112813D1FCF7BEFE93
:10F8A000FCF714FE0320FDF741FA002801D0FCF715
:10F8B000E5FE6068FCF7B6FFA068FCF7B3FF0DA09B
:10F8C000FEF754FA70BD17A0FEF750FA1949A88840
:10F8D0004880FCF7BFFE0125ED0300222946606841
:10F8E000FCF762FF00222946A068FCF75DFF70BDAF
:10F8F000440A0200446973636F6E6E6563746564E5
:10F900002C204164766572746973696E6720706536
:10F91000726970686572616C20616761696E200D43
:10F920000A000000436F6E6E6563746564203A29B7
:10F930000D0A0000002800200EB504236A4613803B
:10F940000023538002AA0192CA8881888A4203D187
:10F9500000886A46A5DF0EBD01898A4203D100886E
:10F960006A46A5DF0EBD81898A4203D100886A46B6
:10F97000A5DF0EBD018A8A42FBD100886A46A5DF59
:10F980000EBD000010B5007800280BD108483B21BF
:10F99000408876DF040006D00648FEF7E7F92046E7
:10F9A000FCF76CFE10BD04A0FEF7E0F910BD0000EE
:10F9B000002800200C0B0200424C455F434F4E4E86
:10F9C0005F504152414D535F4556545F4641494C4B
:10F9D00045442C20646973636F6E6E656374696E51
:10F9E00067210D0A000000000021425C002A01D0BE
:10F9F00001207047491C0629F7D3002070470000FA
:10FA000070B505461C200B49684344182046113048
:10FA10000621FBF7CEFB20461021FBF7CAFBFF2196
:10FA200021740020A176C0432083284600F01AFFED
:10FA300070BD00005C2C002070B50D00044602D1A2
:10FA40000020FCF71BFE002C02D10020FCF716FE64
:10FA50002878207069886170090AA170A988E1700E
:10FA6000090A2171E8886071000AA07170BD000068
:10FA700007490979490701D408207047002804D0B4
:10FA8000044949780160002070470E20704700004B
:10FA9000D8280020182F002030B5124B1B795B07A7
:10FAA00001D4082030BD002805D0002A03D0046806
:10FAB000002C10D101E00E2030BD0B4B1D68002D35
:10FAC00009D045681889414369185D8945435868DC
:10FAD0002818884201D8072030BD146000205160EA
:10FAE00030BD0000D8280020E42F0020FEB50546D8
:10FAF00025480E460079400701D40820FEBD002DA0
:10FB000003D02868002834D101E00E20FEBD1F4C30
:10FB1000216800292DD060892189484361684118F6
:10FB20006868814225D9FFF7BDF800280FD06868C2
:10FB3000019029680C2251430F1979680091401AED
:10FB400039890C46FBF7F2FA002912D101E01020A6
:10FB5000FEBD21463046FBF7E9FA002909D1002E07
:10FB600007D078894443019881190098001981428F
:10FB700001D90720FEBD00200246009033462946E9
:10FB80000320FDF707FFFEBDD8280020E42F00204A
:10FB900010B507484469601C06D000F00BF8014618
:10FBA0002046FBF7C3FA10BD01200007406910BDD5
:10FBB0000010001001200007006980B270470000AB
:10FBC00070B500240F482546047044702846FDF7A0
:10FBD000D1FE6D1C0A2DF9D30B4D6C80FFF7D8FFB9
:10FBE000861EFFF7E7FF46430648AE60CC306C61E7
:10FBF0000460048144812C70AC610420EC61686075
:10FC0000002070BD182F0020D8280020FFB52748FD
:10FC100081B000791F4616460D46400702D40820E1
:10FC200005B0F0BD002D06D00198002803D028684B
:10FC3000002815D101E00E20F2E71D4C20680028B5
:10FC40000ED0618920896268414389186A689142AF
:10FC500006D9002E04D0B04202D3F119814201D955
:10FC60000720DDE70198FFF71DF800281BD0384674
:10FC7000FFF718F8002816D06868FFF713F8002877
:10FC800011D068683246C1190198FBF779FA0096DD
:10FC900028680C2148432458002202212846019B51
:10FCA000A0470020BCE71020BAE70000D8280020B9
:10FCB000E42F0020F8B52C4D044628790E46400765
:10FCC00001D40820F8BD002C20D0002E1ED02068C2
:10FCD00000281BD0FFF76EFF0146A088814213D396
:10FCE000102811D3E08800280ED0FFF751FF471EDF
:10FCF000FFF760FF4743E288A188A8684A431218CB
:10FD0000974201D3890703D00720F8BD0E20F8BD24
:10FD10006988012926D031600C22144B5143706050
:10FD2000CA18506020685850A0881081E08850811F
:10FD3000FFF740FF0646FFF73DFFA188E288401E1F
:10FD4000514340183146FBF707FA0446FFF732FFEC
:10FD50000146A86861430818A8606888401C68804C
:10FD60000020F8BD0420F8BDD8280020E42F002092
:10FD7000F8B5044620481E46007915460F46400750
:10FD800001D40820F8BD002F05D0002C03D0206836
:10FD9000002815D101E00E20F8BD1848016800299F
:10FDA0000ED04289018940684A4310186268904227
:10FDB00006D9002D04D0A94202D3A819884201D93E
:10FDC0000720F8BD3846FEF76DFF002811D03046F9
:10FDD000FEF768FF00280CD06068FEF763FF00287C
:10FDE00007D02B463A46214601200096FDF7D2FD6A
:10FDF000F8BD1020F8BD0000D8280020E42F002016
:10FE000010B5114902460878002811D004280FD0F7
:10FE1000022A16D0032A0BD10A79120711D48A6953
:10FE2000521C8A61032A08D0022802D000F09EF9F1
:10FE300010BD487800F0F2FA10BD0D20FCF746FC2A
:10FE400010BDFEF79FFC10BDD8280020F8B5044671
:10FE500020481E46007915460F46400701D4082069
:10FE6000F8BD002F05D0002C03D02068002815D144
:10FE700001E00E20F8BD1848016800290ED0428923
:10FE8000018940684A4310186268904206D9002DE3
:10FE900004D0A94202D3A819884201D90720F8BD8D
:10FEA0003846FEF7FFFE002811D03046FEF7FAFE76
:10FEB00000280CD06068FEF7F5FE002807D02B461E
:10FEC0003A46214604200096FDF764FDF8BD102057
:10FED000F8BD0000D8280020E42F002070B50124D0
:10FEE0000B49600408600B4940108860094940399B
:10FEF0008860094D6C602F20FBF7ECF8AC60074D73
:10FF000000242F202C61FBF7E5F8EC7070BD000099
:10FF100080E100E04013014000100140FC28002077
:10FF200030B50A48FF21C57D0022094C0931094B33
:10FF3000002D625007D09969437EC268D154417E3A
:10FF4000491C417630BD986930BD0000FC2E002070
:10FF500000200040002500401FB501236A461370B1
:10FF600010720348019106C8684690471FBD000003
:10FF7000FC2E002008B502490020009108BD0000B9
:10FF800000280020FFB50746806A81B0144600288B
:10FF90003DD0002538462030009033E00C20B96A6F
:10FFA00068430E18B088801CFE2802D90C2005B0CA
:10FFB000F0BD22880299401C885420881622401CDB
:10FFC00080B2208002990A542088401C80B2208090
:10FFD00002994118308800F03FFC2188401880B217
:10FFE0002080B288002A0AD0B16800290FD0029B75
:10FFF000C018FBF7C5F82088B188401820806D1C18
:020000040002F8
:100000000098EDB2007BA842C8D80020CFE70720B7
:10001000CDE7000010B596B0142110A8FBF7C9F881
:100020000120014610A8103141730120014610A89B
:10003000103181730020014610A8C17301200146D0
:1000400010A8103101740021012210910271129147
:100050006421017301461848FCF792FF040023D085
:1000600016A0FDF783FE2046FCF708FB40216846FA
:10007000FBF79FF80120014608A810310177002006
:10008000014608A841776846FDF752F804000FD0F2
:1000900015A0FDF76BFE2046FCF7F0FA064840304D
:1000A000FDF7F2FA16B010BD1DA0FDF75FFEDDE70B
:1000B00023A0FDF75BFEF1E7A02B00204572726FD5
:1000C00072207769746820696E697469616C6973FC
:1000D000696E6720626174746572792073657276E7
:1000E0006963652E0D0A00004572726F7220776990
:1000F000746820696E697469616C6973696E6720E0
:1001000064657669636520696E666F726D61746996
:100110006F6E20736572766963652E0D0A000000AC
:1001200042617474657279207365727669636520C3
:10013000696E697469616C69736564210D0A0000F8
:1001400044657669636520496E666F726D61746996
:100150006F6E207365727669636520696E69746974
:10016000616C69736564210D0A00000010B50F49C8
:100170000028087009D0012811D0022812D00328C5
:1001800002D14869FEF73EFB10BD00208861C861BE
:10019000074840780028F7D0FDF7D0FB10BD00F0ED
:1001A000F5F810BD00F054F810BD0000D82800206C
:1001B000182F0020002803D00249C8600020704793
:1001C0000E2070471C2900201CB5034901910091A5
:1001D000694660DF1CBD00000028002070B50E4697
:1001E0000546144614211046FAF7E3FF01200021CA
:1001F00020802161217326726572002D00D0A072CB
:10020000002070BD10B5FCF72BFA10BD70B50029A9
:1002100001D08C0701D0072070BD064C0125A160DC
:1002200062800549636010DF0028F5D12570162033
:100230002EDF70BD1C29002005020200002803D01B
:1002400002490861002070470E2070471C290020D9
:10025000F8B5164C142260684008400060601448ED
:10026000017851430E183769FFF7A4FC0146384660
:10027000FAF75CFF05466061FFF79CFC0146F088D9
:100280007F1EC019FAF752FF02228542606801D131
:10029000104300E090436060E1681040084303D0E1
:1002A000002000F0BBF8F8BD0220FAE7D8280020B3
:1002B000182F002010B502484069FEF7A3FA10BDC0
:1002C000D828002010B5FFF763FC441EFFF772FC2E
:1002D0004443FFF76FFC04494A69521E5043CA6801
:1002E0002146FEF794FA10BDD8280020F8B5104832
:1002F0001422017851430C182569FFF75BFC014675
:10030000E088228980184019FAF710FF0F46FFF79E
:100310003FFC461EFFF74EFC4643E0882289F11958
:100320008018044A40191269FEF771FAF8BD0000FE
:10033000182F0020D828002070B5FFF73BFC054699
:10034000FFF726FC441EFFF735FC60432946FAF709
:10035000EDFEFEF757FA70BD70B5FFF72BFC86086F
:10036000FFF728FC0749496948430446FFF710FC9A
:10037000451EFFF71FFC684332462146FEF747FA49
:1003800070BD0000D82800200020704770B51448C8
:100390001422017851430C18241DFFF70BFC6188CF
:1003A000104E884211D2FFF705FC61880D1AFFF745
:1003B00001FC8208A188E0684018216940194919A8
:1003C000FEF725FAFFF7F6FB07E0A288E068801841
:1003D0008A082169FEF71BFA6088F06170BD000091
:1003E000182F0020D828002010B5054800790007F4
:1003F00003D4012000F012F810BD00F003F810BD86
:10040000D828002010B50448082241689143416073
:10041000407800F003F810BDD82800200249487049
:100420000249800008580047D8280020E40A02004A
:1004300010B50446FFF7E4FC2046FCF7CFF8204651
:10044000FCF754FC10BD70B50C00054602D100202D
:10045000FCF714F9002D02D10020FCF70FF92078E9
:1004600028702088FF2109020840000A687020686F
:1004700009020840000CA8702068000EE87020797E
:100480002871207A68712089000AA871A068000C80
:10049000E87170BD10B505480079000702D4FDF77A
:1004A0003BFA10BDFFF7AEFF10BD0000D8280020BA
:1004B00038B500200090684653DF064C009861680C
:1004C000884203D069460448FDF704F9009860604B
:1004D00038BD000000280020E02B0020FEB51F4C96
:1004E00000252769E06802906846FEF71BF9019035
:1004F000FEF744FC06460198002822D0002300980D
:10050000E16817E00E680A46864202D9301A086090
:1005100012E0801BF31800261660D668D169B44635
:10052000002E07D0FE183602360A566066469660E0
:10053000D56115460029E5D12846E160FEF77CFC2F
:1005400006E02846FEF778FC002801D1002E02D0F4
:100550000298FDF763FA00202071FEBDFC28002000
:1005600001200249000508607047000000E200E039
:1005700010B50E4BD968002906D002680C68A2425B
:1005800004D8A21A0A60C161D86010BD0B4604E00D
:100590000B46C969121B002904D00C689442F7D39A
:1005A000A41A0C600260C161D86110BDFC28002053
:1005B000F8B51D4DEC68002C34D01C48002740686D
:1005C0002969401A0602360A2068B04218D8361A3D
:1005D000C7192246107CE46900280FD0002010744F
:1005E0006B69002B07D0916950699847002805D0A6
:1005F000FCF744F802E0516990698847002CE3D188
:100600006978A878814206D1401CC0B2A87002283F
:1006100001D10020A87004490006800D18310F5048
:10062000FFF79EFFF8BD0000FC28002000150140E8
:1006300010B50023134A05211846FCF76DF8002871
:1006400001D0FCF71BF8104A01211048FCF74EF8C6
:10065000040012D00EA0FDF789FB2046FCF70EF82F
:100660000A48164A0121001DFCF740F80748144AC1
:1006700001210830FCF73AF810BD12A0FDF776FB17
:10068000EEE7000090290020B1C90100440A0200F1
:100690004572726F72207769746820696E69746937
:1006A000616C6973696E6720626174746572792028
:1006B00074696D65722E0D0A00000000B10402001D
:1006C000F1E60100426174746572792074696D65A8
:1006D0007220696E697469616C69736564210D0AC1
:1006E00000000000FF2107481D310022425006484B
:1006F000828A8168895C828A521C82820348C16135
:100700007047000000200040FC2E00200025004023
:100710001FB500216A461170107204488268019268
:10072000817506C8684690471FBD0000FC2E00205A
:10073000F0B5454D012185B049022846FFF773F811
:1007400001270026414C002824D0FF2125312846CE
:10075000FFF764F800281DD0FF2025302E5081209F
:100760003B4980008860A07E002800D16F60022194
:10077000684601703749086808600390E17D684663
:100780000172E0680190E675267606CC6846083C62
:1007900090472BE004212846FFF745F8002825D094
:1007A000FF2109312846FFF739F800281ED0FFF74E
:1007B000B7FBE07D617E884218D1207E002808D0FA
:1007C000627EE168E0752069E06026766676104614
:1007D0000AE0A07E002800D16F6081201C498000C3
:1007E0008860E675607EE168FFF7B6FBFF211D318A
:1007F0002846FFF713F800280DD0A18AA07D81427A
:1008000002D2FFF76FFF06E0FF211D316E50002876
:1008100001D0FFF77DFFFF2145312846FEF7FEFF9F
:1008200000280ED0FF2045302E50A07E002800D09A
:100830002F60E07D002804D0E675607EE168FFF758
:100840008BFB05B0F0BD000000200040FC2E002016
:1008500000230040802400400870000A48700220F5
:100860007047000001218140024842688A4342608B
:10087000704700008C28002038B51549154A488873
:1008800090420FD04A78144C521CD2B24A70237B4B
:10089000934208D3091D75DF002803D0A169002900
:1008A00000D0884738BD00254D70217C002907D035
:1008B0003B2176DF002803D0A169002900D08847BA
:1008C00061690029EED068460570884738BD000090
:1008D000C4280020FFFF0000A82E0020124948680D
:1008E000C005C00D19D0103840B2002807DA020741
:1008F000120F083A920892005118C96904E0810861
:100900000A4A8900891809688007C00EC140080694
:10091000800F012803D0032803D002207047002055
:10092000704701207047000000ED00E000E400E0A7
:1009300042788378521CD2B2934200D100220378CD
:10094000934201D1002070470A7041684078182214
:10095000504308187047FFB583B016460C9D0D9C98
:100960001F46022200950194039800F00CF800281D
:1009700007D13B461022314600950194039800F0C0
:1009800002F807B0F0BDFFB583B0074600200C9C0D
:100990008646268805463AE07868A90042181188FC
:1009A000684681805188C1800022694601A865DFC0
:1009B000002839D1684601780598814226D17046D1
:1009C000002801D0002200E0022220888918421865
:1009D0000D998A4227D8714600290AD1401C80B25D
:1009E0002080069A049911542088401C2080012000
:1009F0008646218806980A18694601A865DF0028FE
:100A000012D1694620880978401820806D1C3888EA
:100A1000A842C1DC704600280AD02088801B401EF6
:100A200080B2FF2802D90C2007B0F0BD0699885586
:100A30000020F9E70179002902D1007B002800D0CD
:100A40000120704730290020502900207029002003
:100A50001100000012000000000000000000000073
:100A6000000000000000000000509D000300000096
:100A7000ACFA23AA3378A319AAF444A922A93FFD0A
:100A8000ACFA23AA3378A319AAF444A922A93FFDFA
:100A900087F4010049EA010065E9010005EB010066
:100AA00083F4010019EA010061E90100FDEA010097
:100AB0007FF4010069E901005DE90100F5EA010048
:100AC000882E00201100000012000000000000002D
