:020000040001F9
:10B000006038002049B1010063B1010065B1010061
:10B010000000000000000000000000000000000030
:10B0200000000000000000000000000067B1010007
:10B03000000000000000000069B101006BB10100D8
:10B040006DB101006DB10100EDB901006DB10100FC
:10B050006DB1010000000000C5B70100A9B70100F3
:10B060006DB101006DB101006DB101006DB1010064
:10B070006DB101006DB101006DB101006DB1010054
:10B080006DB1010005B901006DB101006DB10100A4
:10B0900025B901006DB101002DB901006DB10100AC
:10B0A0006DB101006DB10100000000000000000062
:10B0B0000000000000000000000000000000000090
:10B0C0000348854600F0AEFA004800477DF80100CD
:10B0D00060380020401E00BF00BF00BF00BF00BF9F
:10B0E00000BF00BF00BF00BF00BF00BF00BFF1D165
:10B0F00070470000401E00BF00BF00BF00BF00BF80
:10B1000000BF00BF00BF00BF00BF00BF00BFF1D144
:10B1100070470000056885F308884068FF2464B222
:10B12000EFF30585002D01D1A646004725460646CA
:10B1300021273FBAF0B40024002500260027F0B4F0
:10B14000F92040B2004700000321094802680A4381
:10B150000260084802680A430260074880470748BF
:10B160000047FEE7FEE7FEE7FEE7FEE7FEE700003A
:10B1700024050040540500404DB90100C1B0010054
:10B1800030B50B46014600202022012409E00D467F
:10B19000D5409D4205D31D469540491B2546954007
:10B1A00040191546521E002DF1DC30BD70B500244B
:10B1B0002546002801DA01244042002901DA012550
:10B1C0004942FFF7DDFFAC4200D04042002C00D0E6
:10B1D000494270BD03460B439B0703D009E008C9F1
:10B1E000121F08C0042AFAD203E00B780370401C37
:10B1F000491C521EF9D27047D2B201E00270401CC5
:10B20000491EFBD270470022F6E710B513460A46E6
:10B2100004461946FFF7F0FF204610BD30B504463E
:10B220000020034600E05B1C934203D2E05CCD5C4F
:10B23000401BF8D030BDF0B51FB40646002082B0E8
:10B2400005464024019100901BE0019922460F46DB
:10B25000304600F009FA049A059B801A994110D3F0
:10B2600010461946224600F0EFF9361A8F41019731
:10B27000224601200021009F00F0E6F938184D41D8
:10B2800000902046641E0028DFDC019B00982946C0
:10B29000324607B0F0BD0000F0B5074608465840FA
:10B2A00087B0C00F049048000E4659004008490876
:10B2B000BC1A884105D2384631461E4617460B4611
:10B2C00002465800400810434CD0300D0390400512
:10B2D0005900400D490D0590401A0290402872DA3D
:10B2E00018030121000B09050843019004980092FE
:10B2F000002805D001995242002088410092019017
:10B30000029840210A1A0199009800F09DF905461B
:10B310000C466B4607CB00F0B8F9C0197141039A8F
:10B320000E0D0023D71756401A467A40164344D0D4
:10B33000049A002A2DD0029A012A039A15DC1205DC
:10B34000C01A914101263605001C7141D20F059E9D
:10B35000D2070093019202962A46234600F0B5F9DF
:10B3600007B0F0BD38463146FAE71605224A0F46C7
:10B37000B218C01AB74101210905001C4F4100183D
:10B380007F41114618187941E20F10436D1964414D
:10B3900013E0E2076D0815436408C2071443039ADB
:10B3A00001261205C01A91413605001C7141CE07D5
:10B3B000400830434908C01851412A46234600F04E
:10B3C00077F9CDE7FFE7049801224000C117121A70
:10B3D00000238B4104983146C417381AA141EEE787
:10B3E00030B40124E407634030BC55E730B4012495
:10B3F000E407614030BC4FE70000E0FFF0B51FB448
:10B4000088B00B990998002448400999C00F490059
:10B4100049080991C0070B990090490049080B9110
:10B4200009990898A64608431CD00B990A98084326
:10B4300018D0099801244000420D4800410D099898
:10B4400024050003000B204309900B980003000B18
:10B4500020430B9050181C494018002201901446BC
:10B46000104605E0002001460DB0F0BD032801DACA
:10B47000034600E003239C46C11A0AAE0AE05F00BF
:10B4800008ADED5B4F00F75B7D430027AA187C41B8
:10B49000491C5B1E6145F2DD410004AB5A52210498
:10B4A000120C0A43240C401C0828DFDB0198029090
:10B4B0000099704601910090059B049A079906989F
:10B4C00000F003F9D0E700000DFCFFFFF0B50C46DB
:10B4D0005C4085B0E40FE40703944C000026640848
:10B4E00059009446490802460296224321D06246FA
:10B4F0000A431ED06200570D4A000E032303550D68
:10B50000012402462C492405781B1B0B360B4018DE
:10B5100023432643614600901C46501AB44103D38E
:10B520000098401C009002E0921800985B410028AF
:10B5300003DA0020014605B0F0BD00200121090515
:10B540000746864611E064461D46141BB54106D3E6
:10B550006546521BB341744607430C43A646CD07CC
:10B5600040084908284392185B4105460D43EAD13B
:10B570001046184313D060461946504071400843A6
:10B5800006D06046101AB34106D20122002306E01D
:10B5900000220123DB0702E00122D243531000986E
:10B5A00074460105381C6141029C039D00196941E4
:10B5B00000F07EF8BFE70000FD0300004A00090329
:10B5C0000123090B1B0519430A4B10B5520D9A4272
:10B5D00002DA0020014610BD064B34339A4203DCE8
:10B5E0009A1A00F041F810BD034BD21800F02CF865
:10B5F00010BD0000FF030000CDFBFFFF10B50029C8
:10B6000004DB0124E40740428C412146002B04DB8B
:10B610001C460123DB075242A341994200D19042CC
:10B6200010BD0000064C0125064E05E0E36807CC7E
:10B630002B430C3C98471034B442F7D3FFF744FD3A
:10B64000341602005416020010B5202A04DB01460D
:10B65000203A9140002010BD914020239C1A0346BF
:10B66000E3401943904010BD10B5202A04DB084682
:10B67000203AD040002110BD0B46D340D0402024BA
:10B68000A21A91400843194610BD10B5202A06DBC6
:10B69000CB170846203A1041C1170B4306E00B4672
:10B6A0001341D0402024A21A91400843194610BDEE
:10B6B00010B5002B08DA0024401C614192185B4150
:10B6C0001A4301D14008400010BDF0B51FB482B04C
:10B6D00005460C0003D0084600F09EF902E000F099
:10B6E0009BF920300246009021462846FFF7ACFF28
:10B6F000049B059A04460F4618431143084314D08F
:10B70000184610431BD0009840210A1A1846059984
:10B71000FFF7AAFF05460E46009A05990498FFF721
:10B7200093FF084305D0012004E02046394607B0C6
:10B73000F0BD0020C11705430E432C433743009949
:10B740000E986305401A7905E40A00220C43FD0AAD
:10B750000A3002D500200146E9E7010510196941C8
:10B760000C9C0D9D00196941FFF7A2FFDFE730B582
:10B770008C180278401C13071B0F01D10378401C62
:10B78000120906D10278401C03E005780D70401CB8
:10B79000491C5B1EF9D101E00B70491C521EFBD104
:10B7A000A142E6D3002030BD0349002008600348D1
:10B7B00080680349086070470071004000750040D0
:10B7C0000C280020F8B50024FF2501350126274666
:10B7D0000094284604F022FC002808D03148406834
:10B7E000304204D0304800212818344301602D1D18
:10B7F00076007F1CADB2042FEBD3FF207D3004F028
:10B800000DFC002807D029480021016040070443AF
:10B81000274800690090274E200712D001270025F5
:10B8200027420AD02448AA00111808690969C004EF
:10B83000C00E8903B258890F90477F006D1C042DFC
:10B84000EED3002C1DDA3046203014214156491C1D
:10B8500017D0077DBC06A40E204602F0CFF880006A
:10B860003558002D0DD0BE090121A140134AA0007A
:10B8700080180068009A8003800F114202D00228CD
:10B8800002D0F8BD0328FCD1032E05D1022807D031
:10B890000221204604F0B2FB31462046A847F8BDFD
:10B8A0000321F6E700630040006000407C61004037
:10B8B00000050050F82E00200065004000070050F1
:10B8C0008307FF22DB0E9A408907090E9940002862
:10B8D0000BDA0007000F0838830808489B00181887
:10B8E000C36993430B43C3617047830804489B00BB
:10B8F0001B181868904308431860704700ED00E07B
:10B9000000E400E010B50649002008604860886047
:10B91000C860034940390860486005F01DFB10BD50
:10B920004011014010B505F0ADFA10BD10B5064844
:10B930004068002805D08047002801D000F03CFF77
:10B9400010BD03F099FC10BD2029002010B503F0B4
:10B95000DDFC002805D01F491D484860C8131E495A
:10B9600088611E48018CC9B201290BD1828C120753
:10B9700008D1028D1206120F042A03D1828D1206FD
:10B98000120F0AD0012921D1818C09071ED1018D06
:10B990000906090F0A2904D007E0114A0121916024
:10B9A000F5E7828D1206120F05D00D290ED1808D7C
:10B9B0000006000F0AD10B480168012904D00A498A
:10B9C000016001680129FCD1C021416110BD000066
:10B9D000DFFF07C000050040006C0040C00F00F012
:10B9E0000006004000EC06407593000010B505F01D
:10B9F00073FB10BD7CB51C461546491E0191009095
:10BA0000044B6A462146284600F0E6F8009A0021D9
:10BA100011707CBD11C301002021020C01D0102146
:10BA20001046020A01D010460839020901D010461A
:10BA3000091F820801D01046891E420801D0881EC5
:10BA40007047081A704730B47446641E2578641C29
:10BA5000AB4200D21D46635D5B00E31830BC184763
:10BA600002E008C8121F08C1002AFAD170477047C7
:10BA7000002001E001C1121F002AFBD17047000025
:10BA8000F0B51FB484B007980699020D014314D095
:10BA90004A484B491018484305140F9801280E983E
:10BAA0001CD0281A401C0024464E4749009401919E
:10BAB0000290002814DA474227E00F98012443A39C
:10BAC000012808D0002104980F9A84600360C260A6
:10BAD000416009B0F0BD0E98C143F4E74042E2E78F
:10BAE000074612E0F80707D022463346019900982E
:10BAF000FFF784FC01910090224633461046194618
:10BB0000FFF77CFC04460E467F10002FEAD1029816
:10BB1000019B0028009A0799069802DAFFF76EFC4D
:10BB200001E0FFF7D3FC04460E460022284BFFF746
:10BB300065FD03D80020C043014607E00022254BE5
:10BB400020463146FFF7A8FBFFF738FD102409E037
:10BB5000002C0ADB0A220023FFF76DFB059B303225
:10BB60001A55641E02460A43F2D11122641C059B39
:10BB7000121B1C190F9B012B03D0012308430ED16C
:10BB80000AE0084304D011200E9000200F9084E7B3
:10BB90000E98151A6D1E0BE00E98824202DD0023EE
:10BBA0006D1C03E0824201DA00236D1E002BEED0F3
:10BBB00004980F998260C16030C08AE701FCFFFFE2
:10BBC000104D0000000024400000F03F3000000055
:10BBD0000000F0430000E03FFFB597B006460025A7
:10BBE00018E2252877D100242746FD49049400E077
:10BBF0000443761C32780120203A90400842F7D165
:10BC000030782A280ED002223078014630390929AE
:10BC100016D804990A235943303940181443761C26
:10BC20000490F1E7189802C804911890002904DAEA
:10BC30000120400304434842049002200443761C40
:10BC400030782E2814D1042004437078761C2A28DA
:10BC500009D11898761C80C8189009E00A214F4332
:10BC6000303FC719761C3078014630390929F5D99B
:10BC700030786C2810D006DC4C281AD068280ED0FA
:10BC80006A2817D104E0742813D07A2812D110E062
:10BC90000120400504430CE00121090501E00321D6
:10BCA00009050C437178814203D101200005241855
:10BCB000761C761C3078119066280BD013DC58283F
:10BCC0007DD009DC00287BD04528F6D04628F4D06A
:10BCD00047281AD1A5E118E0632835D0642870D030
:10BCE000652812D19DE170286CD008DC6728F1D05E
:10BCF00069287BD06E280DD06F2806D1BAE0732852
:10BD00002ED0752871D0782859D01A9A1999904751
:10BD10006D1C7EE16002400F022809D003280DD07F
:10BD20000428189801680DD00D60001D189070E16E
:10BD30001898EA1701680D604A60F6E718980168DC
:10BD40000D80F2E70D70F0E718986A4601781172DD
:10BD5000001D18900020507202A80090012005E0FC
:10BD6000189802C8189000200091C04361070DD5B3
:10BD7000002101E00199491C0191B94212DA814286
:10BD8000F8DB009A515C0029F4D10BE0002101E0BE
:10BD90000199491C01918142FADB019A0099895C61
:10BDA0000029F5D1019904981A9B471A2146384673
:10BDB000199A00F097FA0199401945180BE04FE0E5
:10BDC0002CE113E04EE0009800990078491C0091A6
:10BDD0001A9A199990470198401E0190401CF2D17F
:10BDE000214638461A9B199A10E137E00A200021B3
:10BDF000009001916002410F022907D0189A01CAF0
:10BE00001892C2179446032908D00AE01898C01D5A
:10BE1000C108C90005C91891944607E000B2C217CD
:10BE20009446042902D140B2C1178C4600226146D3
:10BE3000944506DA0A460021404291418C462D2164
:10BE400002E0210504D52B216A461173012103E08C
:10BE5000E10701D02021F7E7029155E00A200AE02E
:10BE6000102008E0102000900021042004430191DC
:10BE7000082703E008200021019100906002410F93
:10BE8000022907D0189A01CA189200229446032961
:10BE900008D008E01898C01DC108C90005C918914C
:10BEA000944603E080B2042900D1C0B2002102917F
:10BEB000210729D51199702906D0009A1021019BDC
:10BEC0004A401A4305D00EE040216A461173012111
:10BED00008E06146014306D030216A46117311998A
:10BEE000517302210291009A0821019B4A401A4392
:10BEF0000AD16146014301D1610705D530216A4667
:10BF0000117301217F1E02911199582904D035A186
:10BF10000E910DA90D910DE037A1F9E76146019B46
:10BF2000009AFFF788F90E9B8C469B5C0D9A521E77
:10BF30000D92137061460143F0D10D9805A9081ABE
:10BF400020300190600703D501200004844300E005
:10BF500001270198874201DD381A00E0002001998D
:10BF600000904118029809180498401A0490E003C0
:10BF700006D421461A9B199A049800F0B3F9451982
:10BF8000002706E003A81A9AC05D199990476D1C16
:10BF90007F1C02988742F5DBE0030CD521461A9BF3
:10BFA000199A049800F09EF9451904E01A9A302075
:10BFB000199990476D1C0099481E00900029F5DCE6
:10BFC00008E00D980D990078491C0D911A9A19995D
:10BFD00090476D1C0199481E01900029F1DC63E136
:10BFE000092801003031323334353637383961624F
:10BFF0006364656600000000303132333435363713
:10C0000038394142434445460000000000F05AF9E7
:10C010004519761C3078002800D0E2E528461BB090
:10C02000F0BD600700D406271898C01DC108C900DC
:10C0300048680A680831C30FDB071891190001D05E
:10C040009CA108E0210501D59BA104E0E10701D0F6
:10C050009AA100E09AA1430011985B08109165280D
:10C060000CD006DC452809D046281DD0472841D1F0
:10C0700041E0662818D067283CD13CE00021112F10
:10C0800001DB112000E0781C0191009008A911A8A3
:10C09000FFF7F6FC139905910021119A15927F1C68
:10C0A00012980197009150E00120C00703900120F1
:10C0B000019008A9009711A8FFF7E2FC139A1499C0
:10C0C00005920022119B009212981593059A0192F5
:10C0D000002901D0104602E0791C40180190381A5E
:10C0E00001D5019804E04042401E0090781C019068
:10C0F000C01B029043E0012F00DA01270021112F1D
:10C1000001DD112000E038460191009008A911A836
:10C11000FFF7B6FC13990591119A00211298159218
:10C120000091019721070CD40599B94201DB0199CF
:10C1300000E00191012904DD159A491E515C302966
:10C1400006D0B84201DA011D05DA0121029115E09D
:10C150000199491EEDE7002805DC0099411800917E
:10C160000199091A03E0019A411C914200DD0191F5
:10C170000099401A401C02900120C007039020073C
:10C1800006D402990198814202DB0020C04302904C
:10C1900000206946C87707AF012103980337C90714
:10C1A000884224D0022011902B201290039800285E
:10C1B0000CDA404203902D20129007E00A210398E8
:10C1C000FEF7DEFF30317F1E039039701199481E53
:10C1D00011900029F2DC03980028EFD1791E129803
:10C1E00008703078202108404530BF1E387006A8FE
:10C1F000C01BC01D039010980078002800D00120BB
:10C20000019941180298C017091803980918049851
:10C21000401A401E0490E00306D421461A9B199A46
:10C22000049800F05FF8451910980078002803D0B2
:10C230001A9A199990476D1CE00324D521461A9B40
:10C24000199A049800F04EF845191CE0009800284F
:10C2500007DB00990598884203DD1598405C199921
:10C2600001E0199930201A9A904700986D1C401CE3
:10C2700000900298401E0290002804D11A9A2E20A5
:10C28000199990476D1C0199481E01900029DDDC29
:10C2900005E038781A9A7F1C199990476D1C03990C
:10C2A000481E03900029F4DC21461A9B199A049831
:10C2B000ACE600002D0000002B0000002000000074
:10C2C00000000000F8B5044600251E461746880405
:10C2D00004D405E039462020B0476D1C641EF9D512
:10C2E0002846F8BDFFB50446002581B01E46C803A8
:10C2F00001D5302700E02027880404D505E0384622
:10C300000399B0476D1C641EF9D5284605B0F0BDF1
:10C310004A68002A06D00A68531C0B6010704868EF
:10C32000401E4860704700001CB50F4903C90090CB
:10C330000191684603F076FC0C48012142688902AD
:10C34000FF231B029A431143416001210160084809
:10C350004160084801680902090A020711430160A7
:10C360000549802008601CBDF813020000750040DC
:10C370000073004004E400E000E100E0F7B584B0A1
:10C380000025168807461580406B1446002813D0F8
:10C3900003780598032E51D30221017021881122C0
:10C3A000491C89B2218042542188491C89B22180CC
:10C3B00043542088401C2080386B00281DD005463F
:10C3C0002088059902461232B24237D811220A5407
:10C3D00020881022401C80B220800A542088401CF3
:10C3E00020800F202A5C2388401ECA54228840B235
:10C3F000521C22800028F5DA0025384620300290B1
:10C40000807B002806D033462246059902F0CAFFF9
:10C41000050014D10298407B002806D03246214600
:10C42000059800F08DFE050009D1B878002823D0CA
:10C43000059886462088001DB04202D90C2007B01E
:10C44000F0BD684679DF0028F9D1218803207246C3
:10C45000505420881921401C80B22080115420881B
:10C460007146401C80B2208041186846008804F064
:10C47000C7FE218840182080F878002817D021882E
:10C4800003230A46FB56C91C0598B142D6D802219F
:10C49000815421880122491C89B22180425421887B
:10C4A000491C89B2218043542088401C2080786830
:10C4B000002817D021880023C3560A46C91C0598B6
:10C4C000B142BBD80221815421880A22491C89B279
:10C4D000218042542188491C89B2218043542088FC
:10C4E000401C2080388900280AD0009438460196E4
:10C4F000062202210830059B04F001FF05009ED1B1
:10C50000388A00280AD00094384601960722032171
:10C510001030059B04F0F3FE050090D1388B002805
:10C520000AD0009438460196152214211830059B34
:10C5300004F0E5FE050082D1386A002806D03346B3
:10C540002246059901F006FC0500D8D1786A00283A
:10C5500006D033462246059903F0DAFA0500CED11B
:10C560000298007B002807D03346224638460599BA
:10C5700004F0ACF90500C2D13878002807D0334662
:10C5800022463846059903F0F7FA0500B7D1284648
:10C5900055E7000010B598B0382101A8FEF733FE2A
:10C5A00002206946087101248C710622CA718882B2
:10C5B0001148069024210FA8FEF725FE10A9FF20A0
:10C5C0000C72E1301390FF202D30149000200146B2
:10C5D00000900A4B0FAA01A800F0E8FA040007D067
:10C5E00007A001F00BFD204600F0E6F818B010BDE2
:10C5F00013A001F003FDF9E7102800204D00020010
:10C600004F6F6F70732E2E20536F6D657468696E57
:10C61000672069732077726F6E672077697468206E
:10C62000696E697469616C6973696E6720616476AB
:10C630006572746973696E672E2E0D0A0000000022
:10C640004164766572746973696E6720696E697496
:10C6500069616C69736564210D0A000070B5044658
:10C660002ECC0D482EC00C4D20682861A088A882D1
:10C67000E088E8820948E86120892886A07A6886EF
:10C680002146284607220B313430103CFEF7A2FD2C
:10C69000606AE86370BD0000502C00207C1500002B
:10C6A00010B50E4C04280FD005280DD007280AD14C
:10C6B000607E002807D00020607650DF0AE0E16B42
:10C6C000002900D0884710BD207E0028FBD0002024
:10C6D00003F06CF80028F2D110BD0000502C0020AF
:10C6E00010B50B4C0120207660760A484FDF0028F9
:10C6F00003D0E16B002900D08847012003F056F8F1
:10C70000002803D0E16B002900D0884710BD00004D
:10C71000502C002005F801000149002008767047E0
:10C72000502C00203EB5044604200190164802908B
:10C730006946204601F02EFF002805D013498842A3
:10C7400001D000F039F83EBD0F480838017AC9071A
:10C7500014D00F4A0C214088A7DF00280ED00D49C5
:10C7600088420BD0082809D0891C884206D011289D
:10C7700004D00949884201D000F01EF8204601F09B
:10C7800005FF0028DDD13EBD0828002040800000C4
:10C79000FFFF00000230000001340000BFF34F8FA4
:10C7A00004490348C860BFF34F8F00BFFDE7000096
:10C7B0000400FA0500ED00E00EB5002102900091A2
:10C7C0006A4601910148FFF7E9FF000001400000BF
:10C7D000014B1B6818470000942D002038B50C460B
:10C7E000A2680C235A43064B09789D58054A126AE1
:10C7F00000920246204608302369A84738BD000051
:10C8000018300020D428002010B5064914230A78D7
:10C810005A435118091DFFF7E1FF042004F066F99F
:10C8200010BD00004C2F0020094B9B68002B07D047
:10C83000002A07D0002805D00068037C002B03D015
:10C8400008207047072070474174426100207047FC
:10C85000F8280020FFB59007002581B014460E4649
:10C86000002832D11B4F002C31D003F0DBFF04989D
:10C8700078610320387033461821224600204B434C
:10C88000BC601834C10089180D704D708E704C60FA
:10C890001C19401C0328F5DBFD607D7001240E4847
:10C8A000BD702405046003211420FFF709F80B482C
:10C8B00004600B4C0198A06003211120FFF700F8E1
:10C8C00060683861002005B0F0BD0720FBE7BD605F
:10C8D000FBE70000F828002080E200E000E100E033
:10C8E00000150140FEB50D461B49174689680446F0
:10C8F00000292AD0002C28D0052D01D20720FEBD0A
:10C900006069002821D0607C012820D0002604F036
:10C91000B9FCC0001049019089684018694604F0CC
:10C92000DBFC002815D0012101700C4944604968E6
:10C930000830E2C0084901988968411868460078C3
:10C94000487004F0E1FA0020FEBD0820FEBD2E462E
:10C95000DDE70420FEBD0000F8280020001501409E
:10C96000F8B5134D0446A96800291CD0002C1AD034
:10C970006069002817D00026267404F083FCC700E5
:10C98000A8686946381804F0A7FC00280DD00221D9
:10C9900001704460A868391868460078487004F04F
:10C9A000B3FA3046F8BD0820F8BD0420F8BD0000F9
:10C9B000F8280020F0B50546007D002493B00E460F
:10C9C00000280DD001200146684610310394017300
:10C9D000717B4173817BF92001406846891C81731A
:10C9E0001C2104A8FEF70FFC6946087C02210843BD
:10C9F000694608742A7DEF21002A02D010221043D4
:10CA000000E008406A461074059407940894287D55
:10CA1000002800D003A8099001270A9410469771B6
:10CA2000304A82800094B27B0270F27B4270807840
:10CA3000F9221040F722801C1040EF2108404108E5
:10CA4000490068468170317B017214210BA8FEF702
:10CA5000DAFB01A80B9068460C908786C48607878E
:10CA600002A80F90A888AB1D0BAA04A9A2DF00287A
:10CA700035D1B068002830D0684687711A49818066
:10CA80000094317C01700020014668464170807836
:10CA9000F9210840F721801C0840EF210840410897
:10CAA00049006846817011A8B16800F0EDFC0646A7
:10CAB00014210BA8FEF7A7FB01A80B9068460C9069
:10CAC0008686C486068711A80F902A46E8880E320B
:10CAD0000BA9A3DF002802D100E0EC81002013B0F5
:10CAE000F0BD0000192A00000829000010B54F21F0
:10CAF000094800F03BFA00280CD008280AD0074962
:10CB0000884207D00649884204D0FFF755FE05A0A9
:10CB100001F074FA10BD0000A42B002004300000C6
:10CB2000013400004572726F72207570646174691F
:10CB30006E672062617474657279206C6576656CCD
:10CB4000200D0A00F0B50C4693B01F216A461180F3
:10CB5000072600279180002809D0C17849070DD504
:10CB600002A9FFF70BFC002809D102AD01E0002566
:10CB70001780002C0ED0E078002802D0304613B089
:10CB8000F0BD01AA0AA92046FFF7F8FB0028F6D15C
:10CB90000AAA02E068460022878068468088C3B2FD
:10CBA00068460088C1B2284672DFE8E770B50D46D6
:10CBB00004991646040042D0002E40D0424800227C
:10CBC0004271C3600161242231464048FEF702FBF6
:10CBD00000F0D4F83D493431084610380160203166
:10CBE000816038215C38FEF70EFB384821783838F0
:10CBF0000170A1788170E178C170617841706269DB
:10CC0000216942610161E268A168C26081600146F8
:10CC1000E369A269CB618A61616A002919D0014682
:10CC2000AC310246B83241628A60636A1B880B806D
:10CC3000616A436A898899800021436A06E00E2070
:10CC400070BD666AB668765C5654491C9E888E42F2
:10CC5000F7D8A16A00291CD01C4AAC3211460C3905
:10CC60008A608162A36A9B888B80A16A836A098833
:10CC700019800021836A04E0A66AB668765C56547F
:10CC8000491C9E888E42F7D82C210A5D0F4918391D
:10CC90000A73216A002909D00B4914310162226A02
:10CCA00052884A80216A026A0988118061680029D5
:10CCB00004D00549891D41606168416003482946E7
:10CCC0003838FFF73FFF70BD98280020F02D002076
:10CCD00010B502881C4C102A17D00021112A1AD036
:10CCE000192A11D1807900280ED1607901281ED02F
:10CCF000022822D0032822D0042805D12171E2681D
:10CD00000846002A00D0904710BD017D0129FBD1C3
:10CD10008088208110BD6170808821898842F9D186
:10CD2000012005E021690029F4D0884710BD0220C8
:10CD300000F02CF80028F5D110BD0320F8E70320FF
:10CD400020710420F4E700009828002010B5022884
:10CD500001D003280ED1084C207800280AD00020EA
:10CD60002070607900F012F8002803D021690029B2
:10CD700000D0884710BD00009828002010B507217A
:10CD80000148FEF740FA10BDB0280020F0B5754C00
:10CD900087B06071002606A8069603F0EBFA01271B
:10CDA000082806D000286FD10698002802D02770E6
:10CDB000D4E00696FFF7E2FF6B4D6878002802D0BA
:10CDC0006079012805D0A87800280AD06079022867
:10CDD00007D1E168002903D0E7700820884700E008
:10CDE000E6706079012808D16878002809D05D488C
:10CDF000193003F07BFA002803D06079022802D0B2
:10CE00000CE002206071A878002805D05548193040
:10CE100003F06CFA002801D103206071287B002800
:10CE200004D16079032801D104206071287E002894
:10CE300004D16079042801D166712671E168002966
:10CE40000AD06079032801D0042805D12878002869
:10CE500002D06078002818D0A67018216846FEF726
:10CE6000D2F9684606700196067203966079012829
:10CE70000FD0022816D03C4E243637465C3F03289C
:10CE80001CD004285ED13BE069E0A77007208847EA
:10CE9000E3E73448183001906846077046820682FE
:10CEA000277152E02F481830019068460770298991
:10CEB0004182A98801820220207146E0A88A694641
:10CEC0004882288A08822848243004F087FA0028FB
:10CED00005D02878002802D06078002801D00320EF
:10CEE0002FE002206946087204200396F8701E485D
:10CEF00000213838FFF726FE002830D1052020E039
:10CF0000A88B69460882288C48821748243004F090
:10CF100065FA002805D02878002802D0607800281B
:10CF200001D004200DE00220694608720420039617
:10CF3000F8700D4800213838FFF704FE00280ED1A4
:10CF4000062020716079002803D0684673DF00282E
:10CF500005D1E168002901D020798847002007B079
:10CF6000F0BD000098280020F02D002073B586B099
:10CF700004002FD06A46217C127F0020914227D0E6
:10CF800000250126684600950680458007A8019087
:10CF9000E188608A6A46A4DF002819D16846007FCC
:10CFA0002074608A0D49884216D0207D002813D055
:10CFB0000295039504950595E1886846018186727E
:10CFC00041888181049001980590608A02A9A6DFBA
:10CFD00008B070BD0E20FBE70820F9E7FFFF000056
:10CFE00038B50D4604001AD0002D18D028682060EE
:10CFF0000020C043608228792075FF202074012121
:10D000006846817007490180221D69460120A0DF22
:10D01000002803D129462046FFF7CCFC38BD0E205E
:10D0200038BD00000F18000010B50A88102A06D07D
:10D03000112A06D0502A01D103F088F810BD898842
:10D0400001E00021C943018010BD000070B5054614
:10D0500001461C220E48FEF7BDF80E4C0026267035
:10D060002968002906D00822201DFEF7B3F8201DEC
:10D070007ADF02E00748001D7BDF002807D1401E51
:10D0800060806670044A00210448FFF7CDFB70BD44
:10D09000DC2E0020B82800202112020070140200AB
:10D0A000F8B5214C028800271E4DE689102A15D0BC
:10D0B0001E49112A21D0122A2DD0502A1CD1C288F3
:10D0C000801DB24218D1028B022A15D1C27E837E06
:10D0D00010021843C007C00F0CD112E0818869808C
:10D0E00001461048082216310C30FEF773F86F70B5
:10D0F000002E01D100F0D6FEF8BD0020C0436880AC
:10D100006F700868FFF72CFC0028F5D0A169002992
:10D11000F2D08847F8BD811D024808220C30FEF786
:10D1200059F8E7E7B8280020DC2E00207014020030
:10D1300010B502480068FFF713FC10BD7014020020
:10D140007CB5054608880C460930904201D90C2070
:10D150007CBD684671DF0028FAD121880820685418
:10D1600020881B21401C80B220802954208800A9DF
:10D17000401C80B22080401906220131FEF72AF8B7
:10D1800020886946801D80B220800978002900D05F
:10D19000012129542088401C208000207CBD0000F3
:10D1A00030B585B00D46040039D0002D37D0686801
:10D1B000002834D00020C0431A4B20800FCB0493AA
:10D1C00001AB07C318486946088001A8811E63DFC8
:10D1D000002822D1221D69460120A0DF00281CD191
:10D1E00068468078A071204601F046F9002814D1E5
:10D1F000204601F0FDF800280FD12946204601F015
:10D200007DF9002809D16868A062A868002800D0CC
:10D21000E062064901200870002005B030BD0E20F4
:10D22000FBE700007414020030150000CC28002039
:10D230003EB5002828D0002926D0826A002A23D0B3
:10D240000A88102A21D0112A30D0502A1FD0512A02
:10D250001AD10A460446891D0878022814D1488844
:10D26000238A984210D1907A04280DD006280BD03A
:10D27000052809D02046891C02F0C0FF002803D0F1
:10D28000E16A002900D088473EBD898810E0CB883C
:10D2900002899342F8D108226B461A708A7F1A726B
:10D2A00020310191826A694690473EBD0021C94301
:10D2B00001803EBD30B585B0002822D00388134CD4
:10D2C000A34220D0124B1B78002B1CD0104B1025F2
:10D2D0005B1C1D705970002401259A700322694659
:10D2E0000A820094019402940394028A0A808D7049
:10D2F0008C8004A90291039300886946A6DF05B0DB
:10D3000030BD0E20FBE70820F9E70000FFFF00001A
:10D31000CC2800207FB504460121684681714A4926
:10D3200081804A4A01A90120A0DF00287ED12288FD
:10D3300025463C35002A09D044482B46801C0090E5
:10D340004348616800F062FB00287BD12289002AF3
:10D350000AD03E482B460A3000903D48E168401F05
:10D3600000F054FB00286DD1228A002A0AD03748E9
:10D370002B461230009036486169001F00F046FBD2
:10D3800000285FD1228B002A0AD030482B461A3061
:10D3900000902F48E169801E00F038FB002851D131
:10D3A000228C002A0AD029482B4622300090284897
:10D3B000616AC01E00F02AFB002843D1228D002A9A
:10D3C0000AD022482B462A3000902148E16A401EAC
:10D3D00000F01CFB002835D1216B00290ED002A8DB
:10D3E00003F0F1FC19482B4632300090184808220F
:10D3F00002A9801F00F00AFB002823D1606B0028DF
:10D400000BD012492B463A3100910279016810483D
:10D41000401C00F0FBFA002814D1A16B002910D0A9
:10D4200002A802F08BFF0948423000E00AE00090B9
:10D4300007482B46072202A9273000F0E7FA002808
:10D4400000D1002004B070BD0A180000342800206C
:10D45000292A000010B5044601F0C4F82046FFF761
:10D460001FFE21460748FFF7E3FE204602F018FEA4
:10D470002046FFF72DFC034821461438FFF7D4FD62
:10D4800010BD0000F82B00200A7802704978417026
:10D490000220704710B586B0002348222A49082090
:10D4A00003F074FB002801D0FFF786F96A460121DA
:10D4B000002003F053FB040035D0244800F09EFD0B
:10D4C0002046FFF779F9012069460873204803F0E8
:10D4D000F5F9002801D0FFF76FF9022069460880AE
:10D4E000684603F031FB040021D01AA000F086FD4D
:10D4F0002046FFF761F9254803F01CFB04001AD011
:10D5000023A000F07BFD2046FFF756F9304803F0DA
:10D5100055FB040013D02FA000F070FD2046FFF74C
:10D520004BF906B010BD3BA000F068FDCBE747A06B
:10D5300000F064FDDFE74EA000F060FDE6E756A0D6
:10D5400000F05CFDEDE700005C2B0020AC15020054
:10D55000001E00204F6F6F70732E2E20536F6D656D
:10D560007468696E672069732077726F6E672077C1
:10D5700069746820656E61626C696E6720736F669E
:10D58000746465766963652E2E0D0A0055D401001A
:10D590004F6F6F70732E2E20536F6D657468696EB8
:10D5A000672077656E742077726F6E672077697475
:10D5B00068207265676973746572696E6720746F3D
:10D5C00020424C45206576656E74732E2E0D0A0040
:10D5D000B10D02004F6F6F70732E2E20536F6D656B
:10D5E0007468696E672077656E742077726F6E67F6
:10D5F0002077697468207265676973746572696EF3
:10D600006720746F20535953206576656E74732EAE
:10D610002E0D0A00536F6674646576696365206336
:10D620006F6E666967757265642077697468206CCF
:10D63000696E6B7320616E6420626C65207061722C
:10D64000616D6574657273210D0A0000536F667415
:10D6500064657669636520656E61626C65642073DC
:10D6600075636365737366756C6C79210D0A0000D0
:10D67000536F667464657669636520726567697364
:10D68000746572656420666F7220424C4520657631
:10D69000656E7473210D0A00536F66746465766954
:10D6A0006365207265676973746572656420666F6F
:10D6B0007220535953206576656E7473210D0A00EC
:10D6C0001CB5044681786A460C4802F067FE0028C3
:10D6D00012D160781C21484309491C2340181A467E
:10D6E000694602F015FF064806494030807A8000FE
:10D6F0000A582146684690471CBD0000902800202B
:10D70000542D002050140200F8B505460820694643
:10D71000088001236A461A492846AADF194800688A
:10D720008047B12044DF002801D0FFF745F811DF22
:10D73000002801D0FFF740F8134C606913DF002880
:10D7400001D0FFF739F8284600F0FCFD01210F4A0F
:10D75000880510600E4802680D4B002080330D468E
:10D760008540154204D0C606F60E0D46B5401D6034
:10D77000401C2028F3D3606900F00CF8F8BD0000CD
:10D7800058300020182900200010001080E200E02E
:10D7900000E100E010B5FDF7BDFC10BDF0B54D4B4C
:10D7A00004460FCBA5B018AD0FC54B4820AA108179
:10D7B00022AE18A8B11C63DF1C216846FDF723FDCB
:10D7C0006A4610780A2100250843691C0907090FD9
:10D7D00018AA10311E951176691C0907090F10311E
:10D7E0005176937EF9210B409B1C93761EAA0592DD
:10D7F000102210436A46107018AA1F95907F0840A7
:10D80000801C9077112010770020507714210CA8ED
:10D81000FDF7F9FC1FA80D900C9601206A46908731
:10D820001087782020AA107424A810906088231DE7
:10D830000CAA6946A2DF071E01D0FEF7BDFF2748EC
:10D8400020A9888021AE18A8891D63DF380001D087
:10D85000FEF7B2FF1C2111A8FDF7D5FC10AA107924
:10D860000A21084318AA11211C9511745174937C44
:10D87000F9210B409B1C93741CAA16921022104392
:10D8800010AA107118AA1D95907D0840801C9075F3
:10D890001120107500205075142107A8FDF7B3FC66
:10D8A0001DA80890079601206A46108590847F2065
:10D8B00020AA107323A80B90234660880C3307AA74
:10D8C00011A9A2DF002801D0FEF776FF002025B0C5
:10D8D000F0BD00002014020012FA000003D0000086
:10D8E00030B502880B4B85B09A4211D001246A46AC
:10D8F000148200230093019302930393858915807A
:10D900009470938004AA0391029200886946A6DF6E
:10D9100005B030BDFFFF000010B5104B04460FCB23
:10D9200086B003936B4607C30D48694608821231DF
:10D93000684663DF002801D0FEF73EFF0020C043A9
:10D940002080A21C04A90120A0DF002801D0FEF73E
:10D9500033FF2046FFF722FF06B010BD301402004F
:10D96000BACF000030B502880B4B85B09A4211D077
:10D9700001246A46148200230093019302930393C7
:10D98000858815809470938004AA03910292008880
:10D990006946A6DF05B030BDFFFF00000022D2437C
:10D9A000830004490428CA5002D3081820300274A6
:10D9B00070470000F82E0020F0B50025ED43002A46
:10D9C00002D00023042601E0042305260A4C04E0CB
:10D9D0009F00E7597F1C04D05B1CB342F8D3284654
:10D9E000F0BD5DB2261835759E00A151002AF6D112
:10D9F000E11820310874F2E7F82E002002490918D6
:10DA00001420085670470000F82E0020FFB58FB094
:10DA10001E4615460F0002D10020FEF7CDFE002D58
:10DA200002D10020FEF7C8FE1C216846FDF7EBFB83
:10DA30006846017802200143684601700024019481
:10DA4000039404940594012108A806948170684603
:10DA50000F99018407943178017771784177807F3D
:10DA6000F9210840F721801C0840EF2108404108B7
:10DA7000490068468177142109A8FDF7C4FB08A86E
:10DA8000099007A80A9068468585C48505860448DC
:10DA90000D9709AA69460088189BA2DF13B0F0BD54
:10DAA00034280020F8B53E481422017851430C1860
:10DAB000E0680C2148433A492769CC314018058970
:10DAC00041890091241D466802F0F6FC0146384663
:10DAD000FDF756FB002932D000200099A2884D4363
:10DAE0006188AE198918CD1900222E4900280A61D3
:10DAF00009D002F0E1FC6188884222D0B54202D10F
:10DB0000A08800281DD0A06802281AD002F0D4FCFA
:10DB1000A188CA1901461046FDF732FB214C88083E
:10DB2000E06002F0C9FC01462846FDF729FB002908
:10DB300011D00020B5422FD000280ED02CE00120BB
:10DB4000CBE702F0B9FC01463846FDF719FB154951
:10DB50004861032021E00120ECE7ADB2B7B202F04A
:10DB6000ABFC01463846FDF70BFB064602F0A4FC71
:10DB700001462846FDF704FB864201D1781B09E0E7
:10DB800002F09AFC064602F097FC01462846FDF793
:10DB9000F7FA701A80082061022002F0A7FFF8BD92
:10DBA0004C2F0020D428002010B5074814220178FB
:10DBB000514308180079042802D000F059F810BD2C
:10DBC000012002F093FF10BD4C2F002010B50B4830
:10DBD0001422017851430818094AC188116200795A
:10DBE000012806D0032801D0042801D1FFF75AFFED
:10DBF00010BD012002F07AFF10BD00004C2F002064
:10DC0000D428002014225043054A002180180171B5
:10DC1000C18001220161C260416101817047000041
:10DC20004C2F0020F8B5104C069E65780A2D19D0AF
:10DC300027787D190A2D00D30A3D14277D432D191D
:10DC400028716A6103C92961E860EB802E816078E0
:10DC5000401C607005480078002801D1FFF7B6FF2E
:10DC60000020F8BD0420F8BD4C2F0020D42800204F
:10DC700010B50D4C14212078484301190020091DCE
:10DC8000FEF7ACFD2078FFF7BDFF6078401E6070A6
:10DC90002078401CC0B220700A2801D100202070DA
:10DCA000002002F023FF10BD4C2F0020F8B52348C0
:10DCB000C16800293ED00E6821494C680769C078C8
:10DCC000E11B0D022D0AED1C002814D101201D4A74
:10DCD000000450601B4A403A50601B4940000860F5
:10DCE0001A4908601A49012008602F20FDF702FA3E
:10DCF00012490120C870B54200D23546E819000229
:10DD00000F4B000A403318600D4A5168001B091B75
:10DD10000902090A0002000AC91C814209D9506897
:10DD200018602F20FDF7E6F90120074940048039EB
:10DD30000860F8BD02F076FDF8BD0000F82800206C
:10DD4000001501404013014080E200E000E100E0E6
:10DD500000100140F8B50646108814468446801D20
:10DD60000D46984201D90C20F8BD32880720062ABA
:10DD7000FAD31927FF01184BBA4201D99A42F3D1BD
:10DD800071880629F0D3B94201D99942ECD19A425F
:10DD900003D0994201D08A42E6D805216046295431
:10DDA00020881221401C80B2208029542088401CE9
:10DDB00080B220804119308803F022FA218840186F
:10DDC00080B220804119708803F01AFA2188401827
:10DDD00020800020F8BD0000FFFF000010B50446C1
:10DDE00003A000F00BF92046FEF7E6FC10BD000092
:10DDF000436F6E6E656374696F6E20706172616DE2
:10DE00006574657273206572726F7221200D0A004D
:10DE100010B588B01C216846FDF7F5F90521C90346
:10DE200001910F210904002002910090032269460C
:10DE30000A73C88108740A4805900A480690684623
:10DE4000FFF704F9040007D0074800F0D7F8204690
:10DE5000FEF7B2FC08B010BD04A000F0CFF8F9E75F
:10DE600099010200DDDD0100AC150200536F6674FC
:10DE700064657669636520636F6E66696775726550
:10DE8000642077697468206C696E6B7320616E64BE
:10DE900020626C6520706172616D657465727321BA
:10DEA0000D0A0000F8B5164801F022FA144D0026BC
:10DEB0000C3D144C002807D0616900291CD00120BA
:10DEC0006A461070684616E02878002805D0616917
:10DED000002911D0684606700DE0687800280DD042
:10DEE000A168094800220068FEF7FCFC002803D066
:10DEF000A169002900D088472E70F8BD6168F0E75D
:10DF0000C4280020DC2E00207014020070B5094BDC
:10DF100004469E7A082000250E4207D00648844217
:10DF200002D01889A04202D10020156070BD0520E2
:10DF300070BD0000882D0020FFFF00000C21484329
:10DF4000064910B5012240188272911E0181FF21FD
:10DF5000C1720721FDF757F910BD0000882D002080
:10DF600010B5134C207900071FD46069401C606114
:10DF7000E068002801D0042004E001F0EBF900285B
:10DF800003D0022002F00AFF10BD2069002809D04A
:10DF90006068C10701D00320F4E7012108436060F5
:10DFA0000020EFE7FFF700FE10BD02F0EBFE10BD12
:10DFB000D428002010B5084841680A0708D48A0709
:10DFC00002D5012211434160022002F0E7FE10BD9C
:10DFD00002F0D8FE10BD0000D428002000B589B0A2
:10DFE000202205496846FDF7F5F80021684601F052
:10DFF0000DFF09B000BD0000001402000FB400B511
:10E00000C1B0FF2143AB01316846429AFDF7F2FCF3
:10E01000002803D0C1B2684601F05CFF41B008BCE3
:10E0200004B01847FEB50E46044681786A46234878
:10E0300002F0B4F9002827D160780C21204F484322
:10E04000C019807A400620D4022E1ED0012E1ED088
:10E050001C4DA0781C21484319490023F839411868
:10E060001C226846A847002813D0022E0CD0207826
:10E070000C21484312490C314018807A1249800023
:10E080000A58214668469047FEBD104DE1E7104D05
:10E09000DFE7022EF8D060780C214843C019817A5E
:10E0A000BF221140817260781C21484304493439F1
:10E0B00041181C231A466846A847D8E79028002034
:10E0C000882D0020090D02004014020051070200B3
:10E0D0007506020070B50546114A124800241C233B
:10E0E00063431B189B7EFF2B04D0641C072CF6D3C4
:10E0F000104670BD0A78022A09D01C22624310180B
:10E10000FD22827607221030FDF764F804E01C211E
:10E1100061430818FE2181762C700022E8E7000098
:10E1200043800000902C0020F7B505250F4F0646D0
:10E130000024002E0AD01C206043C019072231465B
:10E140001030FDF76BF8002807D00AE01C20604370
:10E15000C019018B0298814203D101980025046007
:10E1600002E0641C072CE4D32846FEBD902C00205E
:10E170007CB5054681B26A46074802F00FF90400F3
:10E1800008D15421684602F033F9040002D1284630
:10E1900002F0B8F820467CBD9028002070B50646F5
:10E1A00014460D4607A0FFF729FF200001D0FEF717
:10E1B00003FB2878152802D13046FEF7B3FA002079
:10E1C00070BD0000444D206576656E74210D0A0017
:10E1D0001FB56946087302F075F9040033D0204872
:10E1E000FFF70CFF2046FEF7E7FA03A800F06EFCED
:10E1F00004002CD01BA0FFF701FF2046FEF7DCFA3D
:10E2000001A805210130FCF7FEFF6946487901228B
:10E210001043E1210840DF210C3008406946487175
:10E22000072088711020C8711D4800900A711D4890
:10E2300000F09EFD04000ED01B48FFF7DFFE2046D5
:10E24000FEF7BAFA1FBD19A0FFF7D8FECDE721A04F
:10E25000FFF7D4FED4E724A0FFF7D0FE1FBD0000D7
:10E26000681502004F6F6F70732E2E20536F6D650F
:10E270007468696E672077656E742077726F6E6759
:10E28000207769746820696E697469616C69736963
:10E290006E672074686520444D2E2E0D0A00000024
:10E2A0009DE10100012800201C15020050657273D9
:10E2B000697374656E742073746F72616765206D25
:10E2C0006F64756C65206973207265616479210DD6
:10E2D0000A000000444D20696E697469616C6973BD
:10E2E0006564210D0A0000005265676973746572E8
:10E2F000656420706172616D657465727320666F0C
:10E300007220444D210D0A0001B50449684600F011
:10E3100049F9002801D0FEF74FFA08BD1C2900205A
:10E3200010B50978002908D003220121FEF7C2FFA9
:10E33000002801D0FEF740FA10BD0088FFF7E4F98D
:10E3400010BD000010B58AB000242349009400F0ED
:10E350008BFB002813D101A91F4800F02DFB0028DA
:10E360000FD01E491C4800F013FC002801D0FEF716
:10E3700023FA1A4800DF002801D0FEF71DFA0AB080
:10E3800010BD0599072215481031FCF723FF1348EB
:10E390001022C01D0599FCF71DFF104811221830EE
:10E3A0000199FCF717FF0D4801990A222A30123112
:10E3B000FCF710FF094800DF002801D0FEF7FCF948
:10E3C00001200090042008906846099007A907944E
:10E3D000014800F0E3F8CEE71C290020243000209B
:10E3E00070470000014908607047000018290020AC
:10E3F00030B58FB005461C216846FCF704FF69461E
:10E400000878082108431022104369460870002448
:10E4100001940394049405940694A87908A988703B
:10E42000144869460884601C00070794000F0C77A5
:10E4300010304877887FF9210840F721801C084078
:10E4400010430121084369468877142109A8FCF785
:10E45000DAFE08A8099007A80A9069468C8517205B
:10E46000CC8508860D942B46A888103309AAA2DF14
:10E470000FB030BD3115000030B58FB005461C21FE
:10E480006846FCF7C0FE69460878042108436946DF
:10E490000870002401940394049405940694A879C8
:10E4A00008A98870144869460884601C000707940E
:10E4B000000F0C77103048778A7FF9200240F72050
:10E4C000921C0240EF200240012002438A7714216F
:10E4D00009A8FCF798FE08A8099007A80A906946C1
:10E4E0008C851420CC8508860D942B46A88808338B
:10E4F00009AAA2DF0FB030BD32150000F0B58FB011
:10E500000F4605461C216846FCF77DFE68460178EB
:10E51000022631430170002401940394049405946D
:10E520000694A97908A88170174968460184601C7F
:10E530000107090F68461031079401770020014652
:10E5400068464177817FF9200140F720891C01400E
:10E55000EF2001400120014368468177142109A87A
:10E56000FCF751FE08A8099007A80A90684686851E
:10E57000C48506860D972B46A888203309AA6946CC
:10E58000A2DF0FB0F0BD0000341500000048704756
:10E59000918000000048704791800000004870475B
:10E5A000918000000C4A13780C4A002B11D0931D67
:10E5B000002905D0002803D00078002809D101E007
:10E5C00018467047064B1B68002B02D008700020CD
:10E5D0007047104670470000802800200880000027
:10E5E000942D0020F0B5054693B000200290FF2442
:10E5F000EC480E940078002849D0EB4F386800288A
:10E6000045D001A800F054FA002801D0FEF7D4F854
:10E61000281D05902A2069460883FF20002688715E
:10E620000E710396E04C28880C3C10280ED0A88868
:10E6300003AA0221FFF76AFC002807D103980C21E6
:10E6400041430919CA7A69468A7148712888132298
:10E6500017287CD00FDC10281BD0112853D013288A
:10E6600076D0142813D103980C2148430019C07A9E
:10E67000FF2871D08DE0CD4918286BD01C286AD0B6
:10E68000522804D1B87A8000095801A8884713B0ED
:10E69000F0BDC74F03AA01213846FFF737FC002819
:10E6A000F5D103990C2048430222001982721123EC
:10E6B0006A4613745171A98801810722A91DFCF7CC
:10E6C00089FD687DC10707D04108B6480830405C25
:10E6D000FF2808D00E9006E03A460EA9A81DFFF7C5
:10E6E00023FD00280ED103990C22514309190E98DD
:10E6F000C8728A7A08231A438A726946887101A807
:10E70000FEF7DEFF39E103980C2148430119887AAE
:10E71000FD2210408872010706D5C0090DD00021E6
:10E7200001A8FFF77FFC08E068468079FF2804D045
:10E7300001F0E8FDFF206946887103980C225043E0
:10E7400010210019817212206946087415E17FE0DA
:10E7500030E001E0D5E00EE1EA890EA90020FFF7E4
:10E76000E3FC00280ED103980C22504300190E99A7
:10E77000C172837A0822134383726846817101A8AB
:10E78000FEF79EFF03980C2148430019C07AFF282A
:10E7900006D003981C214843834940394018029011
:10E7A00003981C21484383494218A88800230299F2
:10E7B00082DF6CE768460274039B0C205843011902
:10E7C000887A042210438872C87AFF2830D0162035
:10E7D000694608741820434373480E2124381818DA
:10E7E0000830FCF710FD03980C2148430019817A8A
:10E7F00040221143817203990C2200204A430A905F
:10E800001219D27A1C235A436A4B0C90D2180B92DD
:10E810001C2251431A46C432891807910890099066
:10E820003A1DA88807AB00217FDF0028C1D1A4E0F2
:10E830000EA8FFF74FFC002801D00646DBE769462B
:10E840000E98887103990C2251430919C872D2E7B6
:10E85000787A400840007872039A0C20944642432C
:10E8600011198B7AFB2003408B7214206F46387489
:10E87000A879002804D0C87AFFF77AFCAE797CE04A
:10E88000E879400779D5B879FF2876D008273B4347
:10E890008B72EB7A9B0708D51C2503466B43454DCD
:10E8A0005B199D7E6D086D009D76CB7AFF2B64D041
:10E8B000A25C022A10D01C2250433E4D0722401970
:10E8C0001030FCF787FC684680791C2148434019CA
:10E8D000817EFD2211400EE061461C225143324AE6
:10E8E000403A89184A8A1C21484332494018028319
:10E8F000817E490849008176012101A8FFF792FB3A
:10E900003BE0A8790209012A23D10007000F012862
:10E910001FD103980C2242431219927A120718D57C
:10E92000182148432049243940180E210830FCF7AB
:10E930006AFC16206946087403980C2148430119A3
:10E94000887A602210438872787A022108437872AC
:10E950000FE003980C2250430019827A80231A4357
:10E96000827215206A461074B87A8000095801A88E
:10E970008847002601E068460274324604A901A8CF
:10E98000FDF726FF6846007C122800D07FE603983A
:10E990000C2141430919897A0129F7D0FFF7CEFAF2
:10E9A00075E6000080280020942D002060140200ED
:10E9B000FFFF0000902C0020F0B5064626480C46CC
:10E9C0000178264889B000293FD0811D002E3ED015
:10E9D000002C3CD03178002937D121490025096825
:10E9E000002932D0B078072833D21C211D4F48436C
:10E9F000C019807EFF282CD0E560B078656148435F
:10EA0000C01920611648A5600C306060684620601F
:10EA10001148B17807AA103001F0C0FC002814D1C9
:10EA20001C231A4607A9684601F072FD00280CD184
:10EA3000E560B1781C225143C9196561216108491B
:10EA4000A5600C3161606946216009B0F0BD0846DF
:10EA5000FBE702480830F8E7802800200880000023
:10EA6000942D0020902C002030B50446002903D0BE
:10EA70000878002814D101E00B4830BD0B48002372
:10EA8000006800280CD0094AFF2088700C3A1589CC
:10EA90000520A542F1D14B70D07A8870002030BD9E
:10EAA0000148801F30BD00000E800000942D002022
:10EAB000002806D0FF21017041708170C1700020D4
:10EAC00070470148704700000E800000F0B585B027
:10EAD000040036D029480025056045728572284615
:10EAE000FFF72CFA254818212438FCF78CFB002668
:10EAF000FF27304601F006FC21488755761C072E7B
:10EB0000F7D35421684681800721C1801D481C49E4
:10EB100000900831684601F04FFD00280FD1184ED3
:10EB20000120083E3070207800280CD06946888883
:10EB3000C988484381B23046103001F059FC05B015
:10EB4000F0BD1148FBE7114F00240D48A1B202AA05
:10EB5000083001F023FC002809D11C206043C019B3
:10EB600000231C2202A901F0D3FC002801D035703B
:10EB7000E5E7641C072CE8D3E1E70000942D0020B2
:10EB80008828002011EC01000E800000902C00204D
:10EB90000B4610B51A491B4A0978002920D0911D4F
:10EBA000002805D0002B03D00178002918D101E0FE
:10EBB000084610BD14490968002911D0114A81780E
:10EBC000D21EFF290ED01C20414310480918887E10
:10EBD000800705D4072218461031FCF7FBFA002203
:10EBE000104610BD4078FF28FAD00C214843064952
:10EBF0000C394118887A8007F2D507221846ECE7CD
:10EC00008028002008800000942D0020902C0020F7
:10EC1000FFB554488FB00068189F1E4600284FD09B
:10EC2000542F4DD86846FFF743FF002801D0FDF769
:10EC3000C3FD0024684604700471254605970696B6
:10EC4000A9B20DAA484801F0A9FB002806D1082264
:10EC50000DA90F98FCF7E2FA002819D06D1C072DBA
:10EC6000EED3684680780790FF2829D01098202599
:10EC7000032810D03D481C21301AFCF781FA0127E7
:10EC800007282DD204A80290119800281AD021E05C
:10EC900068468570E5E7542F03D040206946087127
:10ECA00001E0684605716946087903210843694611
:10ECB000087104A8029001A96846119AFDF788FD21
:10ECC00013B0F0BD07993846884027491039496884
:10ECD0000842F5D0079802F099FA6846057138E0C5
:10ECE00020481C214038301AFCF74AFA00280BD083
:10ECF0001C4D1821243D701BFCF742FA00281AD045
:10ED0000402069460871DBE704A802906846057157
:10ED1000447014480A940C300B904C3807906846A5
:10ED200080781C21484311494018089007A8069094
:10ED3000182005900DE03021684601714470C770BD
:10ED400008480C38807A800703D428461821FCF73D
:10ED50005AFA109869460228087901D00221A5E7DD
:10ED60003843A5E7942D002090280020902C002007
:10ED700070B5064618480D46007800280ED0174991
:10ED8000002E0ED0002D0CD02868002809D0144C7D
:10ED90002168002907D011480A3870BD0F48801F2C
:10EDA00070BD084670BD20600522691D201DFCF75E
:10EDB00011FA2879A072207A022140084000084305
:10EDC000FB2210402072E0790123184308431040D1
:10EDD000E0710020307070BD802800200E8000009F
:10EDE000942D002038B50948006969464007C00FD6
:10EDF000074C08702178884203D069460548FEF721
:10EE00006FFD68460078207038BD00000005005096
:10EE100000280020E42B002010B50E4900234A787A
:10EE20008C78A24212D0521CD2B24A70022A00D16F
:10EE30004B704A78074B920018339A580260086961
:10EE400010180002000A0861012010BD03600020B4
:10EE500010BD0000F828002010B5002803D01128AC
:10EE600002D0FDF7D1FC10BD0248082241681143D1
:10EE7000416010BDD428002010B51C4C21782046DC
:10EE80004068012906D0022929D0032912D10007A0
:10EE900017D513E0000711D4154814220178514307
:10EEA0000818C188A28B891A0904090CC18002D0F4
:10EEB00001F02CFF10BDFEF7DBFE10BD00F01CFEC4
:10EEC00010BD6069401C606100F044FA002803D066
:10EED000207801F00BFE10BDFEF766FE10BD6078D5
:10EEE000044980000858804710BD0000D428002045
:10EEF0004C2F0020B814020010B528DFFFF7ACFF3C
:10EF000010BD10B529DFFFF7A7FF10BD3EB51120DA
:10EF1000694608720A221BA102A87CDF040025D0E2
:10EF20001BA0FFF76BF82046FDF746FC002078DFBA
:10EF300004001FD024A0FFF761F82046FDF73CFC39
:10EF40000020FF21913100906A46019011804B0012
:10EF500053809080D18068467ADF04000ED0294823
:10EF6000FFF74CF82046FDF727FC3EBD26A0FFF733
:10EF700045F8DBE729A0FFF741F8E1E72CA0FFF710
:10EF80003DF83EBD4564647973746F6E6550000052
:10EF90004F6F6F70732E2E20536F6D657468696E9E
:10EFA000672077656E742077726F6E67207769745B
:10EFB000682073657474696E6720746865206E617B
:10EFC0006D652E2E0D0A00004F6F6F70732E2E2070
:10EFD000536F6D657468696E672069732077726F0F
:10EFE0006E6720776974682073657474696E672032
:10EFF0007468652061707065617272616E63652E00
:10F000002E0D0A00F0150200446576696365206ED6
:10F01000616D6520736574210D0A00004170706593
:10F020006172616E636520736574210D0A000000D2
:10F03000436F6E6E656374696F6E20706172616D8F
:10F04000657465727320736574210D0A00000000F9
:10F05000002070470020704700207047F8B5064632
:10F060004078182104464C4324490C22504361182F
:10F07000224A00254B6818328018AE462F469C461F
:10F08000002B0CD0827A1346D20908D05A0606D437
:10F090000D461A4A614689B2175908358E46174CF3
:10F0A000008918343B4672462946A9DF0B2819D03F
:10F0B000002800D01248012F13D170780C2148434A
:10F0C000001900890F4AA7DF00280AD00E4988429C
:10F0D00012D0082810D0891C88420DD011280BD0DE
:10F0E0000020F8BD70780C214843012300190089E5
:10F0F00072462946A9DFE0E70148F8BD702D0020DF
:10F1000041800000FFFF00000230000070B50C4697
:10F11000014660781822084D50434019382301F009
:10F12000F7F9002807D161781822514349194A6834
:10F13000521C00D14A6070BD702D0020F3B585B01F
:10F140000D460E206946088268780C210327484343
:10F15000224E3B468019008904AA6946AADF00288E
:10F1600038D1687818214843741A001969460A8A08
:10F170000830FCF753F80028687807D01821484376
:10F180000119496800290DD0154E0CE00C214143AE
:10F190008919897A89071DD4182148430019FCF779
:10F1A00032F817E00F4E27506846028A6878182117
:10F1B000484300194260687848430019694608309E
:10F1C000FCF708F8687818214843011938231822F9
:10F1D0000598B047002007B0F0BD0000882D002042
:10F1E000510702007506020010B5FFF737FF10BD8A
:10F1F00010B5FFF78BFF10BD10B5FFF79FFF10BDD7
:10F2000070B51B4C207900072ED41A4814220178BF
:10F2100051430D182E6901F04FF90146E8882A89FB
:10F22000761E80188019FBF7ABFF216900250029A5
:10F2300009D06169814206D1E56060680121084317
:10F24000606000200AE000F085F8002802D002206B
:10F25000E56003E02069002803D0032001F09EFD53
:10F2600070BDFEF7A1FC70BD01F08CFD70BD00000B
:10F27000D42800204C2F0020F8B51C4C2078002802
:10F2800033D02069002807D00026E068002805D088
:10F290000025002E04D011E00126F6E70125F8E74D
:10F2A000684652DF052804D0002804D0FDF784FA10
:10F2B00004E0012602E0216900988847002D10D162
:10F2C000608869460880A06861DF052804D00028AE
:10F2D00004D0FDF771FA04E0012502E0E168A068BE
:10F2E0008847002EDCD0002DD3D0F8BD2029002087
:10F2F000418805480288914204D34088814201D860
:10F300000120704700207047BC2800201048018C65
:10F31000C9B2012917D1818C090714D1018D0906C1
:10F320000A0F03D1828D1206120F0ED0090F012988
:10F3300003D1828D1206120F07D0032903D1808DCD
:10F340000006000F01D00020704701207047000028
:10F35000C00F00F070B50E481422017851430C180C
:10F36000256901F0A9F80146E08822896D1E801800
:10F370004019FBF705FF07494A69824206D38242DA
:10F3800002D10869002801D0002070BD012070BDA5
:10F390004C2F0020D4280020800701D00020704787
:10F3A0000120704730B51588EC1C9C4201D90C2017
:10F3B00030BD02244C5513881C255B1C9BB2138066
:10F3C000CD5413885B1C9BB21380012807D0022800
:10F3D00007D0032807D0042807D0072030BD00201D
:10F3E00004E0012002E0CC5401E00320C85410885E
:10F3F000401C1080002030BDFEB50025134E2C4669
:10F400000295A700F05902A900F0ACFC002801D039
:10F41000FDF7D2F9F159FF208A000D490230511849
:10F420000860641C022CECD90023022000951A46C7
:10F430001946019500F098FD002202200323009553
:10F440001146019500F090FDFEBD00001828002037
:10F450000007005010B5054A80001058002902D05E
:10F4600000F078FC10BD00F0C9FC10BD1828002089
:10F47000F8B52C49C8680A690C780F7989688646FE
:10F48000944600913EE00099E20055182A7836E053
:10F49000182353436968521CC918AB78D2B29342FF
:10F4A00000D100220B78022B02D0032B27D123E0BE
:10F4B0004E680346014603E0B14204D00B46C969D9
:10F4C00000291CD0F8E7002919D08B4208D1C06967
:10F4D000002805D1144F0126BE600026B44601273E
:10F4E0000E68C969D961002909D00B689B190B60A6
:10F4F00005E00174C06900E000210028F9D16978B5
:10F500009142C5D12146641EE4B20029BBD1054910
:10F5100062460A61C8600F71704501D00120F8BDD4
:10F520000020F8BDF828002000100140F8B504467E
:10F5300031480026C168009107784EE02E48F90056
:10F5400080680D1843E0002C02D02046E4691FE0DB
:10F550002878182141436A68401CC0B251182870AD
:10F56000AA78904200D12E700A784868012A30D1DA
:10F57000027C002A2DD18A684260CA6882600A69CA
:10F58000C260496981611C490979002900D046603F
:10F59000194943680A699C46991A0902174B090AD6
:10F5A000994202D28268891807E06146511A09021D
:10F5B0008268090A8A4202D9511A016000E0066095
:10F5C0004660012186600174C66101F0A5FC002C33
:10F5D000B9D1287869788842BAD138467F1EFFB2FF
:10F5E0000028ABD10448C1680098814201D00120B5
:10F5F000F8BD0020F8BD0000F8280020FFFF7F00C4
:10F600000748012101700171002141710146203933
:10F610007D230A69DB005A438A62CA69CA6270475D
:10F62000702C002010B500F039F812490122CA638D
:10F630001249114B4B61124B8B61FF2304334B6317
:10F64000104B8B630A63104B03221A600A610B4B49
:10F65000962240335A600D4B10225A608E224A6225
:10F660000B4ACA610B4ACA6348600B490220086012
:10F6700010BD0000C01F0040060102000015004040
:10F68000250003025B06000000120040001300404A
:10F6900000D6BE895555550000E100E0F8B5274C6D
:10F6A000422020700025657021460226A5700327A0
:10F6B000E01C06225D31FBF78DFD66720120A07211
:10F6C0000620E07227736773AA20A073FE20E07300
:10F6D0001720207416206074AA20A074FE20E07405
:10F6E0002575C32060755420A0754820E075492019
:10F6F0002076532060764920A0765320E07655206E
:10F700002077492060774420A0772120E0772021CE
:10F7100010226254215422203021215423204021E0
:10F72000215424205021215460202521605426207A
:10F7300025542720255461702046F8BD282C002030
:10F74000F8B5012401280DD0FF260A4D91360A4F45
:10F7500002280DD0032804D1272000F03BF8EC60EC
:10F760003E60F8BD252000F035F804480460F8BD7F
:10F770002620F2E700800040408500400010004055
:10F7800010B50848064C44610749016105498015D8
:10F7900040394860FFF746FF0120206110BD00009E
:10F7A0000010004040F501404081004001460748FC
:10F7B0000022027001220271417101462039CA699A
:10F7C0008A62034ACA6251DF70470000702C002031
:10F7D00040420F000A4A0A494032252808D026280C
:10F7E0000AD0272803D15020886027205061704715
:10F7F000022088602520F9E71A2088602620F5E796
:10F800000015004070B5194D002169602C1F29704A
:10F81000002809D0164E02280AD0F16B002901D029
:10F8200008208847114870BDFFF7AAFF01200BE0B0
:10F8300010480269012AF5D101612078FFF780FFA5
:10F840002078042802D0401C2070EBE7FF200A49F2
:10F8500001308860307E002804D0FFF7D1FE686058
:10F86000032000E002202870DCE7000028280020A8
:10F87000502C00200011004000F50140FEF7AEFBC7
:10F8800037A0FEF7BBFB00F03BFA040058D03EA0C7
:10F89000FEF7B4FB2046FCF78FFFFFF7ADFDFCF74A
:10F8A00043FD47A0FEF7AAFB01F096FBFDF7F2FD32
:10F8B0004C4871DF040047D04BA0FEF79FFB204669
:10F8C000FCF77AFF47481B38FCF7C8FE2846FEF7CE
:10F8D0007FFCFFF71BFBFCF75DFE01F03FF8FEF736
:10F8E00097FA4F480121002209040068FCF7FAFF4B
:10F8F00004002DD04BA0FEF781FB2046FCF75CFFF7
:10F900000320FDF743FA040026D050A0FEF776FB53
:10F910002046FCF751FF01210020FFF79BFD00214D
:10F920000120FFF797FD00210220FFF793FD55A06E
:10F93000FEF764FB48DF0028FCD0FCF73DFFF9E749
:10F9400054A0FEF75BFBA8E758A0FEF757FBB9E70A
:10F950005BA0FEF753FBD3E760A0FEF74FFBDAE7AF
:10F96000446562756720706F7274206F70656E6594
:10F97000642E2E2E20496E697469616C6973696EFC
:10F98000672E2E2E0D0A00004F6F6F70732E2E20E3
:10F99000536F6D657468696E672069732077726F45
:10F9A0006E67207769746820696E697469616C6933
:10F9B00073696E67204750494F54452E2E0D0A003B
:10F9C00056697375616C20666565646261636B205E
:10F9D00073686F756C642062652061637469766515
:10F9E000210D0A00D72B00204F6F6F70732E2E2031
:10F9F000536F6D657468696E672069732077726FE5
:10FA00006E6720776974682067657474696E672013
:10FA100074686520616464726573732E2E0D0A002C
:10FA2000EC1302004572726F72207769746820735C
:10FA300074617274696E6720626174746572792092
:10FA400074696D65722E0D0A000000004F6F6F70B3
:10FA5000732E2E20536F6D657468696E672077650D
:10FA60006E742077726F6E67207769746820737484
:10FA7000617274696E6720616476657274732E2E8C
:10FA80000D0A0000526561647979792E2E200D0AE5
:10FA9000000000004750494F544520696E69746961
:10FAA000616C69736564210D0A000000476F742062
:10FAB000746865206164647265737321210D0A00A6
:10FAC000426174746572792074696D657220737413
:10FAD0006172746564210D0A00000000416476655E
:10FAE00072746973656D656E74732073746172747A
:10FAF000656421210D0A000010B504480822416800
:10FB000091434160007800F0F1FF10BDD42800203F
:10FB100070B5144682880E4605462088111D41188E
:10FB2000921C994201D8FE2A01D90C2070BD521CAA
:10FB300032542088FF21401C80B22080315420881C
:10FB4000401C80B220808119288801F059FB21884F
:10FB5000401880B22080AA88002A09D0A96800290C
:10FB600008D08019FBF736FB2088A9884018208030
:10FB7000002070BD072070BDF8B50F46017814460F
:10FB80000546012902D16878002806D02088821C09
:10FB90009A422DD8012902D006E00720F8BD6978E5
:10FBA0004118891C994223D8181A801E86B26846CB
:10FBB00006802188B81C081869467DDF0028EDD131
:10FBC0002878022805D169460988B14201D809215F
:10FBD0000AE00821012805D16878B04202D86A46B7
:10FBE000108001E06846068068460088FE2801D93A
:10FBF0000C20F8BD2288401CB8542088401C80B2DC
:10FC00002080395420886946401C2080098840188B
:10FC100020800020F8BD00207047002070470020A1
:10FC20007047000010B501788A074178920F4907A4
:10FC3000C90E406811438207540E0C438103890F9B
:10FC400003D00321090408400443002000F00AF80F
:10FC500003494868FF22120210402043486010BD4B
:10FC60000075004010B5064902024B68FF242402CB
:10FC7000A3431A434A60002800D00120086010BD49
:10FC80000075004031B5054C04E0401E0090204650
:10FC9000FBF720FA00980028F7D138BDE7030000F1
:10FCA0008207D30EFF229A408907090E10B59940AA
:10FCB00000280BDA03071B0F083B9C080C4BA40021
:10FCC000E318DC6994430C43DC6107E08408094BCA
:10FCD000A400E418236893430B432360C106C90EB4
:10FCE00001208840044908600449086010BD0000F4
:10FCF00000ED00E000E400E080E200E000E100E070
:10FD000070B5124D687D002801D0082070BD0F49E4
:10FD100000202039421E0B18401CC0B21A75202842
:10FD2000F9D300242046FDF739FE641CE4B2052C0B
:10FD3000F8D303210620FFF7B3FF01200449C007D1
:10FD4000486001206875002070BD0000182F002059
:10FD500000630040012181400148C16070470000FC
:10FD600000050050FEB5044620480D460019142138
:10FD700041560026491C01D0082633E0A978002905
:10FD80001DD0012200212046FDF716FE411C14D093
:10FD9000830017482A78181869780369154F3B4083
:10FDA00003610369E706FF0C9207920BC907C90AB2
:10FDB0003B430A431343036104E0042612E001219C
:10FDC000C94301756A780120A0400B49012A0BD074
:10FDD000C860002100910B46012201912046114686
:10FDE00000F0D4F83046FEBD8860F2E7F82E00201F
:10FDF00000650040FFE0ECFF00050050012181405C
:10FE0000014881607047000000050050F3B52A4C9E
:10FE10000746E07E81B0002801D00820FEBD002FFB
:10FE200000D1264F386800F0DEF8387801263146D8
:10FE30008140234881600021786800F0CBF8214D93
:10FE4000B8696862787D397D0843E86603CFE86069
:10FE50006961387B083F01280FD10021B86800F0A4
:10FE6000B9F8F86800F0BFF8387B31468140144893
:10FE70008160F968B868A960286102986060396992
:10FE8000216000280ED0FF230F481D33397F002248
:10FE9000C250FF234533C2500D4A0C485060022027
:10FEA000FFF7FEFE042028600020E0752076A07594
:10FEB000E676A076FEBD0000302F002084140200FC
:10FEC0000005005000250040002000408000020096
:10FED0000023004010B5064A937D002B01D011206D
:10FEE00010BD917590600020908200F003F810BD65
:10FEF000302F0020F8B50026194FFF251D357E5103
:10FF00000120B86001F0C2F8164C6168002910D0D9
:10FF100022E0FF2701372946114800F089F8002820
:10FF200002D1A08AB842F6D1A08AB84201D001F02D
:10FF3000ADF8A08AA17D8842EBD3A18AC81FF93809
:10FF40000CD0074F2946384600F072F80028F9D047
:10FF50000120F8600020A0753046F8BD0F26F9E7B3
:10FF600000200040302F002030B552000A43990095
:10FF7000039C0A432102049D0A4329040A430249BF
:10FF800080004018026030BD0007005030B55200BC
:10FF90000A439900039C0A432102049D0A43290451
:10FFA0000A43024980004018026030BD000700503B
:10FFB00030B552000A439900039C0A432102049D74
:10FFC0000A4329040A43024980004018026030BDF8
:10FFD000000700501CB500220B460092114601920A
:10FFE000FFF7E6FF1CBD1CB5002100910B46012266
:10FFF00001911146FFF7DCFF1CBD0000820006489E
:020000040002F8
:100000001018026803231B049A4302600268090463
:100010000A4302607047000000070050034940187F
:100020000068012800D000207047000000600040F8
:100030004058002800D00120704703221202801887
:100040004068084000D001207047000010B500282B
:1000500005D0032802D105A0FDF7D0FF10BD0AA0EE
:10006000FDF7CCFF0320FCF791FE10BD456E7465D3
:1000700072696E672066617374206164766572745C
:10008000732E2E2E200D0A00456E746572696E6700
:100090002049646C65206D6F64652E200D0A000098
:1000A00070B505460088174C102816D0112813D1BA
:1000B000FCF716FBFCF76EFA0320FCF767FE00283E
:1000C00001D0FCF779FB6068FCF74AFCA068FCF7FC
:1000D00047FC0DA0FDF792FF70BD17A0FDF78EFF46
:1000E0001949A8884880FCF717FB0125ED03002279
:1000F00029466068FCF7F6FB00222946A068FCF759
:10010000F1FB70BDEC130200446973636F6E6E65A2
:10011000637465642C204164766572746973696EDA
:1001200067207065726970686572616C20616761D3
:10013000696E200D0A000000436F6E6E6563746582
:1001400064203A290D0A0000002800200EB504237F
:100150006A4613800023538002AA0192CA888188CC
:100160008A4203D100886A46A5DF0EBD01898A4212
:1001700003D100886A46A5DF0EBD81898A4203D17A
:1001800000886A46A5DF0EBD018A8A42FBD100883D
:100190006A46A5DF0EBD000010B5007800280BD11F
:1001A00008483B21408876DF040006D00648FDF76A
:1001B00025FF2046FCF700FB10BD04A0FDF71EFF45
:1001C00010BD000000280020CC140200424C455F06
:1001D000434F4E4E5F504152414D535F4556545F21
:1001E0004641494C45442C20646973636F6E6E65CB
:1001F0006374696E67210D0A00000000F0B58BB0D2
:100200000C46054602216846017301268674E28A7F
:100210008282228BC28220461A30002706900897DD
:1002200068460184478407A80990A98A288808AAF3
:10023000A5DF002804D0E96A002919D0884717E013
:100240006846808BC007C00F12D068460782288896
:1002500003A9A8DF002812D1A17E20461B300B0085
:10026000FBF7F1FB09420F1C22242729402B4200F7
:10027000FF20FE3069460882288803A9A8DF0BB05A
:10028000F0BD6A4617700BE006221BE069460E724D
:100290000190AA6A284690470020F0E76A46167047
:1002A000228B022AF2D2EFE7022000E00320694607
:1002B00014E00420FBE70520F9E7218B032905D290
:1002C000032208212846FCF7F5FFD8E74178027899
:1002D000080210436946888002D006200870D8E7DB
:1002E0000720FBE70920E2E70322EBE70021425C5D
:1002F000002A01D001207047491C0629F7D30020AD
:100300007047000070B505461C200B49684344182F
:10031000204611300621FAF776FF20461021FAF721
:1003200072FFFF2121740020A176C043208328465C
:1003300000F06CFF70BD0000902C002070B50D0027
:10034000044602D10020FCF737FA002C02D100202D
:10035000FCF732FA2878207069886170090AA17068
:10036000A988E170090A2171E8886071000AA0710A
:1003700070BD000007490979490701D4082070477A
:10038000002804D0044949780160002070470E20FD
:1003900070470000D42800204C2F002030B5124BAD
:1003A0001B795B0701D4082030BD002805D0002A46
:1003B00003D00468002C10D101E00E2030BD0B4B9F
:1003C0001D68002D09D045681889414369185D8969
:1003D000454358682818884201D8072030BD14606A
:1003E0000020516030BD0000D428002018300020CB
:1003F000FEB5054625480E460079400701D4082081
:10040000FEBD002D03D02868002834D101E00E2065
:10041000FEBD1F4C216800292DD0608921894843E9
:10042000616841186868814225D9FEF7B5FF002848
:100430000FD06868019029680C2251430F19796820
:100440000091401A39890C46FAF79AFE002912D118
:1004500001E01020FEBD21463046FAF791FE00294A
:1004600009D1002E07D0788944430198811900985A
:100470000019814201D90720FEBD002002460090EC
:10048000334629460320FDF7CDFBFEBDD4280020CE
:100490001830002010B507484469601C06D000F0F1
:1004A0000BF801462046FAF76BFE10BD012000074D
:1004B000406910BD0010001001200007006980B2E3
:1004C0007047000070B500240F4825460470447042
:1004D0002846FDF797FB6D1C0A2DF9D30B4D6C8058
:1004E000FFF7D8FF861EFFF7E7FF46430648AE60DA
:1004F000CC306C610460048144812C70AC610420B8
:10050000EC616860002070BD4C2F0020D4280020D2
:10051000FFB5274881B000791F4616460D464007B3
:1005200002D4082005B0F0BD002D06D001980028A7
:1005300003D02868002815D101E00E20F2E71D4CF9
:10054000206800280ED0618920896268414389189B
:100550006A68914206D9002E04D0B04202D3F11944
:10056000814201D90720DDE70198FEF715FF002839
:100570001BD03846FEF710FF002816D06868FEF73B
:100580000BFF002811D068683246C1190198FAF7AC
:1005900021FE009628680C2148432458002202219D
:1005A0002846019BA0470020BCE71020BAE70000C6
:1005B000D428002018300020F8B52C4D04462879A6
:1005C0000E46400701D40820F8BD002C20D0002E94
:1005D0001ED0206800281BD0FFF76EFF0146A088C0
:1005E000814213D3102811D3E08800280ED0FFF7E2
:1005F00051FF471EFFF760FF4743E288A188A868C4
:100600004A431218974201D3890703D00720F8BD47
:100610000E20F8BD6988012926D031600C22144BC8
:1006200051437060CA18506020685850A0881081EB
:10063000E0885081FFF740FF0646FFF73DFFA188A5
:10064000E288401E514340183146FAF7AFFD044698
:10065000FFF732FF0146A86861430818A860688860
:10066000401C68800020F8BD0420F8BDD42800207C
:1006700018300020F8B5044620481E46007915467B
:100680000F46400701D40820F8BD002F05D0002CEC
:1006900003D02068002815D101E00E20F8BD1848CD
:1006A000016800290ED04289018940684A43101828
:1006B0006268904206D9002D04D0A94202D3A8193D
:1006C000884201D90720F8BD3846FEF765FE0028AC
:1006D00011D03046FEF760FE00280CD06068FEF7AF
:1006E0005BFE002807D02B463A46214601200096A3
:1006F000FDF798FAF8BD1020F8BD0000D4280020BE
:100700001830002010B5114902460878002811D091
:1007100004280FD0022A16D0032A0BD10A79120717
:1007200011D48A69521C8A61032A08D0022802D097
:1007300000F0DCF910BD487800F030FB10BD0D2052
:10074000FCF762F810BDFEF797FB10BDD42800201F
:10075000F8B5044620481E46007915460F46400766
:1007600001D40820F8BD002F05D0002C03D020684C
:10077000002815D101E00E20F8BD184801680029B5
:100780000ED04289018940684A431018626890423D
:1007900006D9002D04D0A94202D3A819884201D954
:1007A0000720F8BD3846FEF7F7FD002811D0304687
:1007B000FEF7F2FD00280CD06068FEF7EDFD002882
:1007C00007D02B463A46214604200096FDF72AFA28
:1007D000F8BD1020F8BD0000D428002018300020FB
:1007E00010B50E480E494088884205D0132176DFA7
:1007F00005E0FBF7E1FF04E0FBF78EFF74DF002864
:10080000F7D1FBF789FFFCF793FC002801D0FBF739
:10081000D3FFFF20F530FFF735FA10BD0028002088
:10082000FFFF000070B501240B49600408600B490C
:1008300040108860094940398860094D6C602F205C
:10084000FAF758FCAC60074D00242F202C61FAF712
:1008500051FCEC7070BD000080E100E040130140ED
:1008600000100140F828002030B50A48FF21C57D5E
:100870000022094C0931094B002D625007D09969BB
:10088000437EC268D154417E491C417630BD98698F
:1008900030BD0000302F0020002000400025004027
:1008A0001FB501236A46137010720348019106C8F0
:1008B000684690471FBD0000302F002008B5024950
:1008C0000020009108BD000000280020FFB5074669
:1008D000806A81B0144600283DD00025384620307B
:1008E000009033E00C20B96A68430E18B088801C71
:1008F000FE2802D90C2005B0F0BD22880299401CC8
:10090000885420881622401C80B2208002990A5404
:100910002088401C80B2208002994118308800F065
:100920006FFC2188401880B22080B288002A0AD04B
:10093000B16800290FD0029BC018FAF74BFC208841
:10094000B188401820806D1C0098EDB2007BA84251
:10095000C8D80020CFE70720CDE7000070B598B0D9
:10096000142110A8FAF74FFC0120014610A81031FD
:1009700041730120014610A8103181730020014607
:1009800010A8C1730120014610A810310174002481
:1009900001261094067164211294017301462348C4
:1009A000FCF71EFB050039D021A0FDF727FB2846E8
:1009B000FBF702FF40216846FAF725FC01200146BB
:1009C00008A8103101770020014608A84177684641
:1009D000FCF7A0FC050025D020A0FDF70FFB284662
:1009E000FBF7EAFE11484030FCF796FF29481690C5
:1009F0001594179410A886820C4815A95430FCF75A
:100A0000CFFB002801D0FBF7D7FE2348FDF7EAFC17
:100A100022484078FDF778FC18B070BD20A0FDF7A3
:100A2000EDFAC7E726A0FDF7E9FADBE7A42B0020E3
:100A30004572726F72207769746820696E69746993
:100A4000616C6973696E6720626174746572792084
:100A5000736572766963652E0D0A00004572726FC8
:100A600072207769746820696E697469616C697352
:100A7000696E672064657669636520696E666F726A
:100A80006D6174696F6E20736572766963652E0D92
:100A90000A00000021E30100E10702000028002015
:100AA000426174746572792073657276696365203A
:100AB000696E697469616C69736564210D0A00006F
:100AC00044657669636520496E666F726D6174690D
